{
  "contractName": "NFTMarket",
  "abi": [
    {
      "inputs": [],
      "stateMutability": "nonpayable",
      "type": "constructor"
    },
    {
      "anonymous": false,
      "inputs": [
        {
          "indexed": true,
          "internalType": "address",
          "name": "owner",
          "type": "address"
        },
        {
          "indexed": true,
          "internalType": "address",
          "name": "approved",
          "type": "address"
        },
        {
          "indexed": true,
          "internalType": "uint256",
          "name": "tokenId",
          "type": "uint256"
        }
      ],
      "name": "Approval",
      "type": "event"
    },
    {
      "anonymous": false,
      "inputs": [
        {
          "indexed": true,
          "internalType": "address",
          "name": "owner",
          "type": "address"
        },
        {
          "indexed": true,
          "internalType": "address",
          "name": "operator",
          "type": "address"
        },
        {
          "indexed": false,
          "internalType": "bool",
          "name": "approved",
          "type": "bool"
        }
      ],
      "name": "ApprovalForAll",
      "type": "event"
    },
    {
      "anonymous": false,
      "inputs": [
        {
          "indexed": false,
          "internalType": "uint256",
          "name": "tokenId",
          "type": "uint256"
        },
        {
          "indexed": false,
          "internalType": "uint256",
          "name": "price",
          "type": "uint256"
        },
        {
          "indexed": false,
          "internalType": "address",
          "name": "creator",
          "type": "address"
        },
        {
          "indexed": false,
          "internalType": "bool",
          "name": "isListed",
          "type": "bool"
        }
      ],
      "name": "NFTItemCreated",
      "type": "event"
    },
    {
      "anonymous": false,
      "inputs": [
        {
          "indexed": true,
          "internalType": "address",
          "name": "previousOwner",
          "type": "address"
        },
        {
          "indexed": true,
          "internalType": "address",
          "name": "newOwner",
          "type": "address"
        }
      ],
      "name": "OwnershipTransferred",
      "type": "event"
    },
    {
      "anonymous": false,
      "inputs": [
        {
          "indexed": true,
          "internalType": "address",
          "name": "from",
          "type": "address"
        },
        {
          "indexed": true,
          "internalType": "address",
          "name": "to",
          "type": "address"
        },
        {
          "indexed": true,
          "internalType": "uint256",
          "name": "tokenId",
          "type": "uint256"
        }
      ],
      "name": "Transfer",
      "type": "event"
    },
    {
      "inputs": [
        {
          "internalType": "address",
          "name": "to",
          "type": "address"
        },
        {
          "internalType": "uint256",
          "name": "tokenId",
          "type": "uint256"
        }
      ],
      "name": "approve",
      "outputs": [],
      "stateMutability": "nonpayable",
      "type": "function"
    },
    {
      "inputs": [
        {
          "internalType": "address",
          "name": "owner",
          "type": "address"
        }
      ],
      "name": "balanceOf",
      "outputs": [
        {
          "internalType": "uint256",
          "name": "",
          "type": "uint256"
        }
      ],
      "stateMutability": "view",
      "type": "function",
      "constant": true
    },
    {
      "inputs": [
        {
          "internalType": "uint256",
          "name": "tokenId",
          "type": "uint256"
        }
      ],
      "name": "getApproved",
      "outputs": [
        {
          "internalType": "address",
          "name": "",
          "type": "address"
        }
      ],
      "stateMutability": "view",
      "type": "function",
      "constant": true
    },
    {
      "inputs": [
        {
          "internalType": "address",
          "name": "owner",
          "type": "address"
        },
        {
          "internalType": "address",
          "name": "operator",
          "type": "address"
        }
      ],
      "name": "isApprovedForAll",
      "outputs": [
        {
          "internalType": "bool",
          "name": "",
          "type": "bool"
        }
      ],
      "stateMutability": "view",
      "type": "function",
      "constant": true
    },
    {
      "inputs": [],
      "name": "listingPrice",
      "outputs": [
        {
          "internalType": "uint256",
          "name": "",
          "type": "uint256"
        }
      ],
      "stateMutability": "view",
      "type": "function",
      "constant": true
    },
    {
      "inputs": [],
      "name": "name",
      "outputs": [
        {
          "internalType": "string",
          "name": "",
          "type": "string"
        }
      ],
      "stateMutability": "view",
      "type": "function",
      "constant": true
    },
    {
      "inputs": [],
      "name": "owner",
      "outputs": [
        {
          "internalType": "address",
          "name": "",
          "type": "address"
        }
      ],
      "stateMutability": "view",
      "type": "function",
      "constant": true
    },
    {
      "inputs": [
        {
          "internalType": "uint256",
          "name": "tokenId",
          "type": "uint256"
        }
      ],
      "name": "ownerOf",
      "outputs": [
        {
          "internalType": "address",
          "name": "",
          "type": "address"
        }
      ],
      "stateMutability": "view",
      "type": "function",
      "constant": true
    },
    {
      "inputs": [],
      "name": "renounceOwnership",
      "outputs": [],
      "stateMutability": "nonpayable",
      "type": "function"
    },
    {
      "inputs": [
        {
          "internalType": "address",
          "name": "from",
          "type": "address"
        },
        {
          "internalType": "address",
          "name": "to",
          "type": "address"
        },
        {
          "internalType": "uint256",
          "name": "tokenId",
          "type": "uint256"
        }
      ],
      "name": "safeTransferFrom",
      "outputs": [],
      "stateMutability": "nonpayable",
      "type": "function"
    },
    {
      "inputs": [
        {
          "internalType": "address",
          "name": "from",
          "type": "address"
        },
        {
          "internalType": "address",
          "name": "to",
          "type": "address"
        },
        {
          "internalType": "uint256",
          "name": "tokenId",
          "type": "uint256"
        },
        {
          "internalType": "bytes",
          "name": "data",
          "type": "bytes"
        }
      ],
      "name": "safeTransferFrom",
      "outputs": [],
      "stateMutability": "nonpayable",
      "type": "function"
    },
    {
      "inputs": [
        {
          "internalType": "address",
          "name": "operator",
          "type": "address"
        },
        {
          "internalType": "bool",
          "name": "approved",
          "type": "bool"
        }
      ],
      "name": "setApprovalForAll",
      "outputs": [],
      "stateMutability": "nonpayable",
      "type": "function"
    },
    {
      "inputs": [
        {
          "internalType": "bytes4",
          "name": "interfaceId",
          "type": "bytes4"
        }
      ],
      "name": "supportsInterface",
      "outputs": [
        {
          "internalType": "bool",
          "name": "",
          "type": "bool"
        }
      ],
      "stateMutability": "view",
      "type": "function",
      "constant": true
    },
    {
      "inputs": [],
      "name": "symbol",
      "outputs": [
        {
          "internalType": "string",
          "name": "",
          "type": "string"
        }
      ],
      "stateMutability": "view",
      "type": "function",
      "constant": true
    },
    {
      "inputs": [
        {
          "internalType": "uint256",
          "name": "tokenId",
          "type": "uint256"
        }
      ],
      "name": "tokenURI",
      "outputs": [
        {
          "internalType": "string",
          "name": "",
          "type": "string"
        }
      ],
      "stateMutability": "view",
      "type": "function",
      "constant": true
    },
    {
      "inputs": [
        {
          "internalType": "address",
          "name": "from",
          "type": "address"
        },
        {
          "internalType": "address",
          "name": "to",
          "type": "address"
        },
        {
          "internalType": "uint256",
          "name": "tokenId",
          "type": "uint256"
        }
      ],
      "name": "transferFrom",
      "outputs": [],
      "stateMutability": "nonpayable",
      "type": "function"
    },
    {
      "inputs": [
        {
          "internalType": "address",
          "name": "newOwner",
          "type": "address"
        }
      ],
      "name": "transferOwnership",
      "outputs": [],
      "stateMutability": "nonpayable",
      "type": "function"
    },
    {
      "inputs": [
        {
          "internalType": "uint256",
          "name": "newPrice",
          "type": "uint256"
        }
      ],
      "name": "setListingPrice",
      "outputs": [],
      "stateMutability": "nonpayable",
      "type": "function"
    },
    {
      "inputs": [
        {
          "internalType": "string",
          "name": "tokenURI",
          "type": "string"
        },
        {
          "internalType": "uint256",
          "name": "price",
          "type": "uint256"
        }
      ],
      "name": "mintToken",
      "outputs": [
        {
          "internalType": "uint256",
          "name": "",
          "type": "uint256"
        }
      ],
      "stateMutability": "payable",
      "type": "function",
      "payable": true
    },
    {
      "inputs": [
        {
          "internalType": "uint256",
          "name": "tokenId",
          "type": "uint256"
        }
      ],
      "name": "buyNFT",
      "outputs": [],
      "stateMutability": "payable",
      "type": "function",
      "payable": true
    },
    {
      "inputs": [
        {
          "internalType": "uint256",
          "name": "tokenId",
          "type": "uint256"
        },
        {
          "internalType": "uint256",
          "name": "newPrice",
          "type": "uint256"
        }
      ],
      "name": "sellNFT",
      "outputs": [],
      "stateMutability": "payable",
      "type": "function",
      "payable": true
    },
    {
      "inputs": [
        {
          "internalType": "uint256",
          "name": "tokenId",
          "type": "uint256"
        }
      ],
      "name": "burnToken",
      "outputs": [],
      "stateMutability": "nonpayable",
      "type": "function"
    },
    {
      "inputs": [],
      "name": "getOwnedNFTs",
      "outputs": [
        {
          "components": [
            {
              "internalType": "uint256",
              "name": "tokenId",
              "type": "uint256"
            },
            {
              "internalType": "uint256",
              "name": "price",
              "type": "uint256"
            },
            {
              "internalType": "address",
              "name": "creator",
              "type": "address"
            },
            {
              "internalType": "bool",
              "name": "isListed",
              "type": "bool"
            }
          ],
          "internalType": "struct NFTMarket.NFTItem[]",
          "name": "",
          "type": "tuple[]"
        }
      ],
      "stateMutability": "view",
      "type": "function",
      "constant": true
    },
    {
      "inputs": [],
      "name": "getAllNFTsOnSale",
      "outputs": [
        {
          "components": [
            {
              "internalType": "uint256",
              "name": "tokenId",
              "type": "uint256"
            },
            {
              "internalType": "uint256",
              "name": "price",
              "type": "uint256"
            },
            {
              "internalType": "address",
              "name": "creator",
              "type": "address"
            },
            {
              "internalType": "bool",
              "name": "isListed",
              "type": "bool"
            }
          ],
          "internalType": "struct NFTMarket.NFTItem[]",
          "name": "",
          "type": "tuple[]"
        }
      ],
      "stateMutability": "view",
      "type": "function",
      "constant": true
    },
    {
      "inputs": [],
      "name": "totalSupply",
      "outputs": [
        {
          "internalType": "uint256",
          "name": "",
          "type": "uint256"
        }
      ],
      "stateMutability": "view",
      "type": "function",
      "constant": true
    },
    {
      "inputs": [
        {
          "internalType": "uint256",
          "name": "index",
          "type": "uint256"
        }
      ],
      "name": "tokenByIndex",
      "outputs": [
        {
          "internalType": "uint256",
          "name": "",
          "type": "uint256"
        }
      ],
      "stateMutability": "view",
      "type": "function",
      "constant": true
    },
    {
      "inputs": [
        {
          "internalType": "address",
          "name": "owner",
          "type": "address"
        },
        {
          "internalType": "uint256",
          "name": "index",
          "type": "uint256"
        }
      ],
      "name": "tokenOfOwnerByIndex",
      "outputs": [
        {
          "internalType": "uint256",
          "name": "",
          "type": "uint256"
        }
      ],
      "stateMutability": "view",
      "type": "function",
      "constant": true
    },
    {
      "inputs": [
        {
          "internalType": "uint256",
          "name": "tokenId",
          "type": "uint256"
        }
      ],
      "name": "getNFTItem",
      "outputs": [
        {
          "components": [
            {
              "internalType": "uint256",
              "name": "tokenId",
              "type": "uint256"
            },
            {
              "internalType": "uint256",
              "name": "price",
              "type": "uint256"
            },
            {
              "internalType": "address",
              "name": "creator",
              "type": "address"
            },
            {
              "internalType": "bool",
              "name": "isListed",
              "type": "bool"
            }
          ],
          "internalType": "struct NFTMarket.NFTItem",
          "name": "",
          "type": "tuple"
        }
      ],
      "stateMutability": "view",
      "type": "function",
      "constant": true
    },
    {
      "inputs": [],
      "name": "getListedItemsCount",
      "outputs": [
        {
          "internalType": "uint256",
          "name": "",
          "type": "uint256"
        }
      ],
      "stateMutability": "view",
      "type": "function",
      "constant": true
    },
    {
      "inputs": [
        {
          "internalType": "string",
          "name": "tokenURI",
          "type": "string"
        }
      ],
      "name": "tokenURIExists",
      "outputs": [
        {
          "internalType": "bool",
          "name": "",
          "type": "bool"
        }
      ],
      "stateMutability": "view",
      "type": "function",
      "constant": true
    }
  ],
  "bytecode": "0x60806040526658d15e17628000600a553480156200001c57600080fd5b506040518060400160405280600c81526020017f4372656174757265734e465400000000000000000000000000000000000000008152506040518060400160405280600481526020017f434e46540000000000000000000000000000000000000000000000000000000081525081600090816200009a91906200041d565b508060019081620000ac91906200041d565b505050620000cf620000c3620000d560201b60201c565b620000dd60201b60201c565b62000504565b600033905090565b6000600760009054906101000a900473ffffffffffffffffffffffffffffffffffffffff16905081600760006101000a81548173ffffffffffffffffffffffffffffffffffffffff021916908373ffffffffffffffffffffffffffffffffffffffff1602179055508173ffffffffffffffffffffffffffffffffffffffff168173ffffffffffffffffffffffffffffffffffffffff167f8be0079c531659141344cd1fd0a4f28419497f9722a3daafe3b4186f6b6457e060405160405180910390a35050565b600081519050919050565b7f4e487b7100000000000000000000000000000000000000000000000000000000600052604160045260246000fd5b7f4e487b7100000000000000000000000000000000000000000000000000000000600052602260045260246000fd5b600060028204905060018216806200022557607f821691505b6020821081036200023b576200023a620001dd565b5b50919050565b60008190508160005260206000209050919050565b60006020601f8301049050919050565b600082821b905092915050565b600060088302620002a57fffffffffffffffffffffffffffffffffffffffffffffffffffffffffffffffff8262000266565b620002b1868362000266565b95508019841693508086168417925050509392505050565b6000819050919050565b6000819050919050565b6000620002fe620002f8620002f284620002c9565b620002d3565b620002c9565b9050919050565b6000819050919050565b6200031a83620002dd565b62000332620003298262000305565b84845462000273565b825550505050565b600090565b620003496200033a565b620003568184846200030f565b505050565b5b818110156200037e57620003726000826200033f565b6001810190506200035c565b5050565b601f821115620003cd57620003978162000241565b620003a28462000256565b81016020851015620003b2578190505b620003ca620003c18562000256565b8301826200035b565b50505b505050565b600082821c905092915050565b6000620003f260001984600802620003d2565b1980831691505092915050565b60006200040d8383620003df565b9150826002028217905092915050565b6200042882620001a3565b67ffffffffffffffff811115620004445762000443620001ae565b5b6200045082546200020c565b6200045d82828562000382565b600060209050601f83116001811462000495576000841562000480578287015190505b6200048c8582620003ff565b865550620004fc565b601f198416620004a58662000241565b60005b82811015620004cf57848901518255600182019150602085019450602081019050620004a8565b86831015620004ef5784890151620004eb601f891682620003df565b8355505b6001600288020188555050505b505050505050565b614c8c80620005146000396000f3fe6080604052600436106101cd5760003560e01c806370a08231116100f7578063a22cb46511610095578063c87b56dd11610064578063c87b56dd14610685578063e985e9c5146106c2578063f0be4fac146106ff578063f2fde38b1461072a576101cd565b8063a22cb465146105d8578063b88d4fde14610601578063c046372c1461062a578063c78f19f91461065a576101cd565b80637c726b69116100d15780637c726b691461053d5780638da5cb5b1461056657806391a48a1e1461059157806395d89b41146105ad576101cd565b806370a08231146104c0578063715018a6146104fd5780637b47ec1a14610514576101cd565b806333353f481161016f5780634f6ccce71161013e5780634f6ccce7146103ed57806351ed82881461042a5780636352211e146104465780636a3ceff914610483576101cd565b806333353f481461033157806342842e0e1461035c57806343d32ae7146103855780634c0eb7d9146103c2576101cd565b8063095ea7b3116101ab578063095ea7b31461027757806318160ddd146102a057806323b872dd146102cb5780632f745c59146102f4576101cd565b806301ffc9a7146101d257806306fdde031461020f578063081812fc1461023a575b600080fd5b3480156101de57600080fd5b506101f960048036038101906101f491906132a6565b610753565b60405161020691906132ee565b60405180910390f35b34801561021b57600080fd5b50610224610835565b6040516102319190613399565b60405180910390f35b34801561024657600080fd5b50610261600480360381019061025c91906133f1565b6108c7565b60405161026e919061345f565b60405180910390f35b34801561028357600080fd5b5061029e600480360381019061029991906134a6565b61090d565b005b3480156102ac57600080fd5b506102b5610a24565b6040516102c291906134f5565b60405180910390f35b3480156102d757600080fd5b506102f260048036038101906102ed9190613510565b610a31565b005b34801561030057600080fd5b5061031b600480360381019061031691906134a6565b610a91565b60405161032891906134f5565b60405180910390f35b34801561033d57600080fd5b50610346610b36565b60405161035391906134f5565b60405180910390f35b34801561036857600080fd5b50610383600480360381019061037e9190613510565b610b47565b005b34801561039157600080fd5b506103ac60048036038101906103a79190613698565b610b67565b6040516103b991906132ee565b60405180910390f35b3480156103ce57600080fd5b506103d7610ba3565b6040516103e49190613812565b60405180910390f35b3480156103f957600080fd5b50610414600480360381019061040f91906133f1565b610d07565b60405161042191906134f5565b60405180910390f35b610444600480360381019061043f91906133f1565b610d78565b005b34801561045257600080fd5b5061046d600480360381019061046891906133f1565b610ee0565b60405161047a919061345f565b60405180910390f35b34801561048f57600080fd5b506104aa60048036038101906104a591906133f1565b610f66565b6040516104b79190613889565b60405180910390f35b3480156104cc57600080fd5b506104e760048036038101906104e291906138a4565b611018565b6040516104f491906134f5565b60405180910390f35b34801561050957600080fd5b506105126110cf565b005b34801561052057600080fd5b5061053b600480360381019061053691906133f1565b6110e3565b005b34801561054957600080fd5b50610564600480360381019061055f91906133f1565b6110ef565b005b34801561057257600080fd5b5061057b611144565b604051610588919061345f565b60405180910390f35b6105ab60048036038101906105a691906138d1565b61116e565b005b3480156105b957600080fd5b506105c26112ea565b6040516105cf9190613399565b60405180910390f35b3480156105e457600080fd5b506105ff60048036038101906105fa919061393d565b61137c565b005b34801561060d57600080fd5b5061062860048036038101906106239190613a1e565b611392565b005b610644600480360381019061063f9190613aa1565b6113f4565b60405161065191906134f5565b60405180910390f35b34801561066657600080fd5b5061066f611504565b60405161067c91906134f5565b60405180910390f35b34801561069157600080fd5b506106ac60048036038101906106a791906133f1565b61150a565b6040516106b99190613399565b60405180910390f35b3480156106ce57600080fd5b506106e960048036038101906106e49190613afd565b61161c565b6040516106f691906132ee565b60405180910390f35b34801561070b57600080fd5b506107146116b0565b6040516107219190613812565b60405180910390f35b34801561073657600080fd5b50610751600480360381019061074c91906138a4565b61184a565b005b60007f80ac58cd000000000000000000000000000000000000000000000000000000007bffffffffffffffffffffffffffffffffffffffffffffffffffffffff1916827bffffffffffffffffffffffffffffffffffffffffffffffffffffffff1916148061081e57507f5b5e139f000000000000000000000000000000000000000000000000000000007bffffffffffffffffffffffffffffffffffffffffffffffffffffffff1916827bffffffffffffffffffffffffffffffffffffffffffffffffffffffff1916145b8061082e575061082d826118cd565b5b9050919050565b60606000805461084490613b6c565b80601f016020809104026020016040519081016040528092919081815260200182805461087090613b6c565b80156108bd5780601f10610892576101008083540402835291602001916108bd565b820191906000526020600020905b8154815290600101906020018083116108a057829003601f168201915b5050505050905090565b60006108d282611937565b6004600083815260200190815260200160002060009054906101000a900473ffffffffffffffffffffffffffffffffffffffff169050919050565b600061091882610ee0565b90508073ffffffffffffffffffffffffffffffffffffffff168373ffffffffffffffffffffffffffffffffffffffff1603610988576040517f08c379a000000000000000000000000000000000000000000000000000000000815260040161097f90613c0f565b60405180910390fd5b8073ffffffffffffffffffffffffffffffffffffffff166109a7611982565b73ffffffffffffffffffffffffffffffffffffffff1614806109d657506109d5816109d0611982565b61161c565b5b610a15576040517f08c379a0000000000000000000000000000000000000000000000000000000008152600401610a0c90613ca1565b60405180910390fd5b610a1f838361198a565b505050565b6000600f80549050905090565b610a42610a3c611982565b82611a43565b610a81576040517f08c379a0000000000000000000000000000000000000000000000000000000008152600401610a7890613d33565b60405180910390fd5b610a8c838383611ad8565b505050565b6000610a9c83611018565b8210610add576040517f08c379a0000000000000000000000000000000000000000000000000000000008152600401610ad490613d9f565b60405180910390fd5b600d60008473ffffffffffffffffffffffffffffffffffffffff1673ffffffffffffffffffffffffffffffffffffffff168152602001908152602001600020600083815260200190815260200160002054905092915050565b6000610b426008611dd1565b905090565b610b6283838360405180602001604052806000815250611392565b505050565b600060011515600b83604051610b7d9190613dfb565b908152602001604051809103902060009054906101000a900460ff161515149050919050565b60606000610bb033611018565b905060008167ffffffffffffffff811115610bce57610bcd61356d565b5b604051908082528060200260200182016040528015610c0757816020015b610bf461319d565b815260200190600190039081610bec5790505b50905060005b82811015610cfe576000610c213383610a91565b90506000600c600083815260200190815260200160002090508060405180608001604052908160008201548152602001600182015481526020016002820160009054906101000a900473ffffffffffffffffffffffffffffffffffffffff1673ffffffffffffffffffffffffffffffffffffffff1673ffffffffffffffffffffffffffffffffffffffff1681526020016002820160149054906101000a900460ff161515151581525050848481518110610cde57610cdd613e12565b5b602002602001018190525050508080610cf690613e70565b915050610c0d565b50809250505090565b6000610d11610a24565b8210610d52576040517f08c379a0000000000000000000000000000000000000000000000000000000008152600401610d4990613d9f565b60405180910390fd5b600f8281548110610d6657610d65613e12565b5b90600052602060002001549050919050565b6000600c60008381526020019081526020016000206001015490506000610d9e83610ee0565b90508073ffffffffffffffffffffffffffffffffffffffff163373ffffffffffffffffffffffffffffffffffffffff1603610e0e576040517f08c379a0000000000000000000000000000000000000000000000000000000008152600401610e0590613f04565b60405180910390fd5b813414610e50576040517f08c379a0000000000000000000000000000000000000000000000000000000008152600401610e4790613f70565b60405180910390fd5b6000600c600085815260200190815260200160002060020160146101000a81548160ff021916908315150217905550610e896008611ddf565b610e94813385611ad8565b8073ffffffffffffffffffffffffffffffffffffffff166108fc349081150290604051600060405180830381858888f19350505050158015610eda573d6000803e3d6000fd5b50505050565b600080610eec83611e3b565b9050600073ffffffffffffffffffffffffffffffffffffffff168173ffffffffffffffffffffffffffffffffffffffff1603610f5d576040517f08c379a0000000000000000000000000000000000000000000000000000000008152600401610f5490613fdc565b60405180910390fd5b80915050919050565b610f6e61319d565b600c600083815260200190815260200160002060405180608001604052908160008201548152602001600182015481526020016002820160009054906101000a900473ffffffffffffffffffffffffffffffffffffffff1673ffffffffffffffffffffffffffffffffffffffff1673ffffffffffffffffffffffffffffffffffffffff1681526020016002820160149054906101000a900460ff1615151515815250509050919050565b60008073ffffffffffffffffffffffffffffffffffffffff168273ffffffffffffffffffffffffffffffffffffffff1603611088576040517f08c379a000000000000000000000000000000000000000000000000000000000815260040161107f9061406e565b60405180910390fd5b600360008373ffffffffffffffffffffffffffffffffffffffff1673ffffffffffffffffffffffffffffffffffffffff168152602001908152602001600020549050919050565b6110d7611e78565b6110e16000611ef6565b565b6110ec81611fbc565b50565b6110f7611e78565b6000811161113a576040517f08c379a0000000000000000000000000000000000000000000000000000000008152600401611131906140da565b60405180910390fd5b80600a8190555050565b6000600760009054906101000a900473ffffffffffffffffffffffffffffffffffffffff16905090565b3373ffffffffffffffffffffffffffffffffffffffff1661118e83610ee0565b73ffffffffffffffffffffffffffffffffffffffff16146111e4576040517f08c379a00000000000000000000000000000000000000000000000000000000081526004016111db90614146565b60405180910390fd5b60001515600c600084815260200190815260200160002060020160149054906101000a900460ff1615151461124e576040517f08c379a0000000000000000000000000000000000000000000000000000000008152600401611245906141b2565b60405180910390fd5b600a543414611292576040517f08c379a000000000000000000000000000000000000000000000000000000000815260040161128990614244565b60405180910390fd5b6001600c600084815260200190815260200160002060020160146101000a81548160ff02191690831515021790555080600c6000848152602001908152602001600020600101819055506112e6600861200f565b5050565b6060600180546112f990613b6c565b80601f016020809104026020016040519081016040528092919081815260200182805461132590613b6c565b80156113725780601f1061134757610100808354040283529160200191611372565b820191906000526020600020905b81548152906001019060200180831161135557829003601f168201915b5050505050905090565b61138e611387611982565b8383612025565b5050565b6113a361139d611982565b83611a43565b6113e2576040517f08c379a00000000000000000000000000000000000000000000000000000000081526004016113d990613d33565b60405180910390fd5b6113ee84848484612191565b50505050565b60006113ff83610b67565b1561143f576040517f08c379a0000000000000000000000000000000000000000000000000000000008152600401611436906142b0565b60405180910390fd5b600a543414611483576040517f08c379a000000000000000000000000000000000000000000000000000000000815260040161147a90614244565b60405180910390fd5b61148d600961200f565b611497600861200f565b60006114a36009611dd1565b90506114af33826121ed565b6114b9818561220b565b6114c38184612278565b6001600b856040516114d59190613dfb565b908152602001604051809103902060006101000a81548160ff0219169083151502179055508091505092915050565b600a5481565b606061151582611937565b600060066000848152602001908152602001600020805461153590613b6c565b80601f016020809104026020016040519081016040528092919081815260200182805461156190613b6c565b80156115ae5780601f10611583576101008083540402835291602001916115ae565b820191906000526020600020905b81548152906001019060200180831161159157829003601f168201915b5050505050905060006115bf6123c8565b905060008151036115d4578192505050611617565b6000825111156116095780826040516020016115f19291906142d0565b60405160208183030381529060405292505050611617565b611612846123df565b925050505b919050565b6000600560008473ffffffffffffffffffffffffffffffffffffffff1673ffffffffffffffffffffffffffffffffffffffff16815260200190815260200160002060008373ffffffffffffffffffffffffffffffffffffffff1673ffffffffffffffffffffffffffffffffffffffff16815260200190815260200160002060009054906101000a900460ff16905092915050565b606060006116bc610a24565b90506000806116cb6008611dd1565b67ffffffffffffffff8111156116e4576116e361356d565b5b60405190808252806020026020018201604052801561171d57816020015b61170a61319d565b8152602001906001900390816117025790505b50905060005b8381101561184057600061173682610d07565b90506000600c60008381526020019081526020016000209050600115158160020160149054906101000a900460ff1615150361182b578060405180608001604052908160008201548152602001600182015481526020016002820160009054906101000a900473ffffffffffffffffffffffffffffffffffffffff1673ffffffffffffffffffffffffffffffffffffffff1673ffffffffffffffffffffffffffffffffffffffff1681526020016002820160149054906101000a900460ff1615151515815250508486815181106118105761180f613e12565b5b602002602001018190525060018561182891906142f4565b94505b5050808061183890613e70565b915050611723565b5080935050505090565b611852611e78565b600073ffffffffffffffffffffffffffffffffffffffff168173ffffffffffffffffffffffffffffffffffffffff16036118c1576040517f08c379a00000000000000000000000000000000000000000000000000000000081526004016118b89061439a565b60405180910390fd5b6118ca81611ef6565b50565b60007f01ffc9a7000000000000000000000000000000000000000000000000000000007bffffffffffffffffffffffffffffffffffffffffffffffffffffffff1916827bffffffffffffffffffffffffffffffffffffffffffffffffffffffff1916149050919050565b61194081612447565b61197f576040517f08c379a000000000000000000000000000000000000000000000000000000000815260040161197690613fdc565b60405180910390fd5b50565b600033905090565b816004600083815260200190815260200160002060006101000a81548173ffffffffffffffffffffffffffffffffffffffff021916908373ffffffffffffffffffffffffffffffffffffffff160217905550808273ffffffffffffffffffffffffffffffffffffffff166119fd83610ee0565b73ffffffffffffffffffffffffffffffffffffffff167f8c5be1e5ebec7d5bd14f71427d1e84f3dd0314c0f7b2291e5b200ac8c7c3b92560405160405180910390a45050565b600080611a4f83610ee0565b90508073ffffffffffffffffffffffffffffffffffffffff168473ffffffffffffffffffffffffffffffffffffffff161480611a915750611a90818561161c565b5b80611acf57508373ffffffffffffffffffffffffffffffffffffffff16611ab7846108c7565b73ffffffffffffffffffffffffffffffffffffffff16145b91505092915050565b8273ffffffffffffffffffffffffffffffffffffffff16611af882610ee0565b73ffffffffffffffffffffffffffffffffffffffff1614611b4e576040517f08c379a0000000000000000000000000000000000000000000000000000000008152600401611b459061442c565b60405180910390fd5b600073ffffffffffffffffffffffffffffffffffffffff168273ffffffffffffffffffffffffffffffffffffffff1603611bbd576040517f08c379a0000000000000000000000000000000000000000000000000000000008152600401611bb4906144be565b60405180910390fd5b611bca8383836001612488565b8273ffffffffffffffffffffffffffffffffffffffff16611bea82610ee0565b73ffffffffffffffffffffffffffffffffffffffff1614611c40576040517f08c379a0000000000000000000000000000000000000000000000000000000008152600401611c379061442c565b60405180910390fd5b6004600082815260200190815260200160002060006101000a81549073ffffffffffffffffffffffffffffffffffffffff02191690556001600360008573ffffffffffffffffffffffffffffffffffffffff1673ffffffffffffffffffffffffffffffffffffffff168152602001908152602001600020600082825403925050819055506001600360008473ffffffffffffffffffffffffffffffffffffffff1673ffffffffffffffffffffffffffffffffffffffff16815260200190815260200160002060008282540192505081905550816002600083815260200190815260200160002060006101000a81548173ffffffffffffffffffffffffffffffffffffffff021916908373ffffffffffffffffffffffffffffffffffffffff160217905550808273ffffffffffffffffffffffffffffffffffffffff168473ffffffffffffffffffffffffffffffffffffffff167fddf252ad1be2c89b69c2b068fc378daa952ba7f163c4a11628f55a4df523b3ef60405160405180910390a4611dcc83838360016125da565b505050565b600081600001549050919050565b60008160000154905060008111611e2b576040517f08c379a0000000000000000000000000000000000000000000000000000000008152600401611e229061452a565b60405180910390fd5b6001810382600001819055505050565b60006002600083815260200190815260200160002060009054906101000a900473ffffffffffffffffffffffffffffffffffffffff169050919050565b611e80611982565b73ffffffffffffffffffffffffffffffffffffffff16611e9e611144565b73ffffffffffffffffffffffffffffffffffffffff1614611ef4576040517f08c379a0000000000000000000000000000000000000000000000000000000008152600401611eeb90614596565b60405180910390fd5b565b6000600760009054906101000a900473ffffffffffffffffffffffffffffffffffffffff16905081600760006101000a81548173ffffffffffffffffffffffffffffffffffffffff021916908373ffffffffffffffffffffffffffffffffffffffff1602179055508173ffffffffffffffffffffffffffffffffffffffff168173ffffffffffffffffffffffffffffffffffffffff167f8be0079c531659141344cd1fd0a4f28419497f9722a3daafe3b4186f6b6457e060405160405180910390a35050565b611fc5816125e0565b6000600660008381526020019081526020016000208054611fe590613b6c565b90501461200c5760066000828152602001908152602001600020600061200b91906131dd565b5b50565b6001816000016000828254019250508190555050565b8173ffffffffffffffffffffffffffffffffffffffff168373ffffffffffffffffffffffffffffffffffffffff1603612093576040517f08c379a000000000000000000000000000000000000000000000000000000000815260040161208a90614602565b60405180910390fd5b80600560008573ffffffffffffffffffffffffffffffffffffffff1673ffffffffffffffffffffffffffffffffffffffff16815260200190815260200160002060008473ffffffffffffffffffffffffffffffffffffffff1673ffffffffffffffffffffffffffffffffffffffff16815260200190815260200160002060006101000a81548160ff0219169083151502179055508173ffffffffffffffffffffffffffffffffffffffff168373ffffffffffffffffffffffffffffffffffffffff167f17307eab39ab6107e8899845ad3d59bd9653f200f220920489ca2b5937696c318360405161218491906132ee565b60405180910390a3505050565b61219c848484611ad8565b6121a88484848461272e565b6121e7576040517f08c379a00000000000000000000000000000000000000000000000000000000081526004016121de90614694565b60405180910390fd5b50505050565b6122078282604051806020016040528060008152506128b5565b5050565b61221482612447565b612253576040517f08c379a000000000000000000000000000000000000000000000000000000000815260040161224a90614726565b60405180910390fd5b8060066000848152602001908152602001600020908161227391906148f2565b505050565b600081116122bb576040517f08c379a00000000000000000000000000000000000000000000000000000000081526004016122b2906140da565b60405180910390fd5b60405180608001604052808381526020018281526020013373ffffffffffffffffffffffffffffffffffffffff16815260200160011515815250600c6000848152602001908152602001600020600082015181600001556020820151816001015560408201518160020160006101000a81548173ffffffffffffffffffffffffffffffffffffffff021916908373ffffffffffffffffffffffffffffffffffffffff16021790555060608201518160020160146101000a81548160ff0219169083151502179055509050507f43f35c7892cef3db6314a5b129e161ca0731bb9e4a5d4f7244b605bb7b65b11582823360016040516123bc94939291906149c4565b60405180910390a15050565b606060405180602001604052806000815250905090565b60606123ea82611937565b60006123f46123c8565b90506000815111612414576040518060200160405280600081525061243f565b8061241e84612910565b60405160200161242f9291906142d0565b6040516020818303038152906040525b915050919050565b60008073ffffffffffffffffffffffffffffffffffffffff1661246983611e3b565b73ffffffffffffffffffffffffffffffffffffffff1614159050919050565b612494848484846129de565b600073ffffffffffffffffffffffffffffffffffffffff168473ffffffffffffffffffffffffffffffffffffffff16036124d6576124d182612b04565b612515565b8273ffffffffffffffffffffffffffffffffffffffff168473ffffffffffffffffffffffffffffffffffffffff1614612514576125138483612b4d565b5b5b600073ffffffffffffffffffffffffffffffffffffffff168373ffffffffffffffffffffffffffffffffffffffff16036125575761255282612cba565b612596565b8373ffffffffffffffffffffffffffffffffffffffff168373ffffffffffffffffffffffffffffffffffffffff1614612595576125948383612d8b565b5b5b8373ffffffffffffffffffffffffffffffffffffffff168373ffffffffffffffffffffffffffffffffffffffff16146125d4576125d38383612d8b565b5b50505050565b50505050565b60006125eb82610ee0565b90506125fb816000846001612488565b61260482610ee0565b90506004600083815260200190815260200160002060006101000a81549073ffffffffffffffffffffffffffffffffffffffff02191690556001600360008373ffffffffffffffffffffffffffffffffffffffff1673ffffffffffffffffffffffffffffffffffffffff168152602001908152602001600020600082825403925050819055506002600083815260200190815260200160002060006101000a81549073ffffffffffffffffffffffffffffffffffffffff021916905581600073ffffffffffffffffffffffffffffffffffffffff168273ffffffffffffffffffffffffffffffffffffffff167fddf252ad1be2c89b69c2b068fc378daa952ba7f163c4a11628f55a4df523b3ef60405160405180910390a461272a8160008460016125da565b5050565b600061274f8473ffffffffffffffffffffffffffffffffffffffff16612e0a565b156128a8578373ffffffffffffffffffffffffffffffffffffffff1663150b7a02612778611982565b8786866040518563ffffffff1660e01b815260040161279a9493929190614a5e565b6020604051808303816000875af19250505080156127d657506040513d601f19601f820116820180604052508101906127d39190614abf565b60015b612858573d8060008114612806576040519150601f19603f3d011682016040523d82523d6000602084013e61280b565b606091505b506000815103612850576040517f08c379a000000000000000000000000000000000000000000000000000000000815260040161284790614694565b60405180910390fd5b805181602001fd5b63150b7a0260e01b7bffffffffffffffffffffffffffffffffffffffffffffffffffffffff1916817bffffffffffffffffffffffffffffffffffffffffffffffffffffffff1916149150506128ad565b600190505b949350505050565b6128bf8383612e2d565b6128cc600084848461272e565b61290b576040517f08c379a000000000000000000000000000000000000000000000000000000000815260040161290290614694565b60405180910390fd5b505050565b60606000600161291f8461304a565b01905060008167ffffffffffffffff81111561293e5761293d61356d565b5b6040519080825280601f01601f1916602001820160405280156129705781602001600182028036833780820191505090505b509050600082602001820190505b6001156129d3578080600190039150507f3031323334353637383961626364656600000000000000000000000000000000600a86061a8153600a85816129c7576129c6614aec565b5b0494506000850361297e575b819350505050919050565b6001811115612afe57600073ffffffffffffffffffffffffffffffffffffffff168473ffffffffffffffffffffffffffffffffffffffff1614612a725780600360008673ffffffffffffffffffffffffffffffffffffffff1673ffffffffffffffffffffffffffffffffffffffff1681526020019081526020016000206000828254612a6a9190614b1b565b925050819055505b600073ffffffffffffffffffffffffffffffffffffffff168373ffffffffffffffffffffffffffffffffffffffff1614612afd5780600360008573ffffffffffffffffffffffffffffffffffffffff1673ffffffffffffffffffffffffffffffffffffffff1681526020019081526020016000206000828254612af591906142f4565b925050819055505b5b50505050565b600f805490506010600083815260200190815260200160002081905550600f81908060018154018082558091505060019003906000526020600020016000909190919091505550565b60006001612b5a84611018565b612b649190614b1b565b90506000600e6000848152602001908152602001600020549050818114612c49576000600d60008673ffffffffffffffffffffffffffffffffffffffff1673ffffffffffffffffffffffffffffffffffffffff168152602001908152602001600020600084815260200190815260200160002054905080600d60008773ffffffffffffffffffffffffffffffffffffffff1673ffffffffffffffffffffffffffffffffffffffff16815260200190815260200160002060008481526020019081526020016000208190555081600e600083815260200190815260200160002081905550505b600e600084815260200190815260200160002060009055600d60008573ffffffffffffffffffffffffffffffffffffffff1673ffffffffffffffffffffffffffffffffffffffff16815260200190815260200160002060008381526020019081526020016000206000905550505050565b60006001600f80549050612cce9190614b1b565b90506000601060008481526020019081526020016000205490506000600f8381548110612cfe57612cfd613e12565b5b9060005260206000200154905080600f8381548110612d2057612d1f613e12565b5b90600052602060002001819055508160106000838152602001908152602001600020819055506010600085815260200190815260200160002060009055600f805480612d6f57612d6e614b4f565b5b6001900381819060005260206000200160009055905550505050565b6000612d9683611018565b905081600d60008573ffffffffffffffffffffffffffffffffffffffff1673ffffffffffffffffffffffffffffffffffffffff16815260200190815260200160002060008381526020019081526020016000208190555080600e600084815260200190815260200160002081905550505050565b6000808273ffffffffffffffffffffffffffffffffffffffff163b119050919050565b600073ffffffffffffffffffffffffffffffffffffffff168273ffffffffffffffffffffffffffffffffffffffff1603612e9c576040517f08c379a0000000000000000000000000000000000000000000000000000000008152600401612e9390614bca565b60405180910390fd5b612ea581612447565b15612ee5576040517f08c379a0000000000000000000000000000000000000000000000000000000008152600401612edc90614c36565b60405180910390fd5b612ef3600083836001612488565b612efc81612447565b15612f3c576040517f08c379a0000000000000000000000000000000000000000000000000000000008152600401612f3390614c36565b60405180910390fd5b6001600360008473ffffffffffffffffffffffffffffffffffffffff1673ffffffffffffffffffffffffffffffffffffffff16815260200190815260200160002060008282540192505081905550816002600083815260200190815260200160002060006101000a81548173ffffffffffffffffffffffffffffffffffffffff021916908373ffffffffffffffffffffffffffffffffffffffff160217905550808273ffffffffffffffffffffffffffffffffffffffff16600073ffffffffffffffffffffffffffffffffffffffff167fddf252ad1be2c89b69c2b068fc378daa952ba7f163c4a11628f55a4df523b3ef60405160405180910390a46130466000838360016125da565b5050565b600080600090507a184f03e93ff9f4daa797ed6e38ed64bf6a1f01000000000000000083106130a8577a184f03e93ff9f4daa797ed6e38ed64bf6a1f010000000000000000838161309e5761309d614aec565b5b0492506040810190505b6d04ee2d6d415b85acef810000000083106130e5576d04ee2d6d415b85acef810000000083816130db576130da614aec565b5b0492506020810190505b662386f26fc10000831061311457662386f26fc10000838161310a57613109614aec565b5b0492506010810190505b6305f5e100831061313d576305f5e100838161313357613132614aec565b5b0492506008810190505b612710831061316257612710838161315857613157614aec565b5b0492506004810190505b60648310613185576064838161317b5761317a614aec565b5b0492506002810190505b600a8310613194576001810190505b80915050919050565b60405180608001604052806000815260200160008152602001600073ffffffffffffffffffffffffffffffffffffffff1681526020016000151581525090565b5080546131e990613b6c565b6000825580601f106131fb575061321a565b601f016020900490600052602060002090810190613219919061321d565b5b50565b5b8082111561323657600081600090555060010161321e565b5090565b6000604051905090565b600080fd5b600080fd5b60007fffffffff0000000000000000000000000000000000000000000000000000000082169050919050565b6132838161324e565b811461328e57600080fd5b50565b6000813590506132a08161327a565b92915050565b6000602082840312156132bc576132bb613244565b5b60006132ca84828501613291565b91505092915050565b60008115159050919050565b6132e8816132d3565b82525050565b600060208201905061330360008301846132df565b92915050565b600081519050919050565b600082825260208201905092915050565b60005b83811015613343578082015181840152602081019050613328565b60008484015250505050565b6000601f19601f8301169050919050565b600061336b82613309565b6133758185613314565b9350613385818560208601613325565b61338e8161334f565b840191505092915050565b600060208201905081810360008301526133b38184613360565b905092915050565b6000819050919050565b6133ce816133bb565b81146133d957600080fd5b50565b6000813590506133eb816133c5565b92915050565b60006020828403121561340757613406613244565b5b6000613415848285016133dc565b91505092915050565b600073ffffffffffffffffffffffffffffffffffffffff82169050919050565b60006134498261341e565b9050919050565b6134598161343e565b82525050565b60006020820190506134746000830184613450565b92915050565b6134838161343e565b811461348e57600080fd5b50565b6000813590506134a08161347a565b92915050565b600080604083850312156134bd576134bc613244565b5b60006134cb85828601613491565b92505060206134dc858286016133dc565b9150509250929050565b6134ef816133bb565b82525050565b600060208201905061350a60008301846134e6565b92915050565b60008060006060848603121561352957613528613244565b5b600061353786828701613491565b935050602061354886828701613491565b9250506040613559868287016133dc565b9150509250925092565b600080fd5b600080fd5b7f4e487b7100000000000000000000000000000000000000000000000000000000600052604160045260246000fd5b6135a58261334f565b810181811067ffffffffffffffff821117156135c4576135c361356d565b5b80604052505050565b60006135d761323a565b90506135e3828261359c565b919050565b600067ffffffffffffffff8211156136035761360261356d565b5b61360c8261334f565b9050602081019050919050565b82818337600083830152505050565b600061363b613636846135e8565b6135cd565b90508281526020810184848401111561365757613656613568565b5b613662848285613619565b509392505050565b600082601f83011261367f5761367e613563565b5b813561368f848260208601613628565b91505092915050565b6000602082840312156136ae576136ad613244565b5b600082013567ffffffffffffffff8111156136cc576136cb613249565b5b6136d88482850161366a565b91505092915050565b600081519050919050565b600082825260208201905092915050565b6000819050602082019050919050565b613716816133bb565b82525050565b6137258161343e565b82525050565b613734816132d3565b82525050565b608082016000820151613750600085018261370d565b506020820151613763602085018261370d565b506040820151613776604085018261371c565b506060820151613789606085018261372b565b50505050565b600061379b838361373a565b60808301905092915050565b6000602082019050919050565b60006137bf826136e1565b6137c981856136ec565b93506137d4836136fd565b8060005b838110156138055781516137ec888261378f565b97506137f7836137a7565b9250506001810190506137d8565b5085935050505092915050565b6000602082019050818103600083015261382c81846137b4565b905092915050565b60808201600082015161384a600085018261370d565b50602082015161385d602085018261370d565b506040820151613870604085018261371c565b506060820151613883606085018261372b565b50505050565b600060808201905061389e6000830184613834565b92915050565b6000602082840312156138ba576138b9613244565b5b60006138c884828501613491565b91505092915050565b600080604083850312156138e8576138e7613244565b5b60006138f6858286016133dc565b9250506020613907858286016133dc565b9150509250929050565b61391a816132d3565b811461392557600080fd5b50565b60008135905061393781613911565b92915050565b6000806040838503121561395457613953613244565b5b600061396285828601613491565b925050602061397385828601613928565b9150509250929050565b600067ffffffffffffffff8211156139985761399761356d565b5b6139a18261334f565b9050602081019050919050565b60006139c16139bc8461397d565b6135cd565b9050828152602081018484840111156139dd576139dc613568565b5b6139e8848285613619565b509392505050565b600082601f830112613a0557613a04613563565b5b8135613a158482602086016139ae565b91505092915050565b60008060008060808587031215613a3857613a37613244565b5b6000613a4687828801613491565b9450506020613a5787828801613491565b9350506040613a68878288016133dc565b925050606085013567ffffffffffffffff811115613a8957613a88613249565b5b613a95878288016139f0565b91505092959194509250565b60008060408385031215613ab857613ab7613244565b5b600083013567ffffffffffffffff811115613ad657613ad5613249565b5b613ae28582860161366a565b9250506020613af3858286016133dc565b9150509250929050565b60008060408385031215613b1457613b13613244565b5b6000613b2285828601613491565b9250506020613b3385828601613491565b9150509250929050565b7f4e487b7100000000000000000000000000000000000000000000000000000000600052602260045260246000fd5b60006002820490506001821680613b8457607f821691505b602082108103613b9757613b96613b3d565b5b50919050565b7f4552433732313a20617070726f76616c20746f2063757272656e74206f776e6560008201527f7200000000000000000000000000000000000000000000000000000000000000602082015250565b6000613bf9602183613314565b9150613c0482613b9d565b604082019050919050565b60006020820190508181036000830152613c2881613bec565b9050919050565b7f4552433732313a20617070726f76652063616c6c6572206973206e6f7420746f60008201527f6b656e206f776e6572206f7220617070726f76656420666f7220616c6c000000602082015250565b6000613c8b603d83613314565b9150613c9682613c2f565b604082019050919050565b60006020820190508181036000830152613cba81613c7e565b9050919050565b7f4552433732313a2063616c6c6572206973206e6f7420746f6b656e206f776e6560008201527f72206f7220617070726f76656400000000000000000000000000000000000000602082015250565b6000613d1d602d83613314565b9150613d2882613cc1565b604082019050919050565b60006020820190508181036000830152613d4c81613d10565b9050919050565b7f496e646578206f7574206f6620626f756e647300000000000000000000000000600082015250565b6000613d89601383613314565b9150613d9482613d53565b602082019050919050565b60006020820190508181036000830152613db881613d7c565b9050919050565b600081905092915050565b6000613dd582613309565b613ddf8185613dbf565b9350613def818560208601613325565b80840191505092915050565b6000613e078284613dca565b915081905092915050565b7f4e487b7100000000000000000000000000000000000000000000000000000000600052603260045260246000fd5b7f4e487b7100000000000000000000000000000000000000000000000000000000600052601160045260246000fd5b6000613e7b826133bb565b91507fffffffffffffffffffffffffffffffffffffffffffffffffffffffffffffffff8203613ead57613eac613e41565b5b600182019050919050565b7f596f7520616c7265616479206f776e2074686973204e46540000000000000000600082015250565b6000613eee601883613314565b9150613ef982613eb8565b602082019050919050565b60006020820190508181036000830152613f1d81613ee1565b9050919050565b7f506c65617365207375626d6974207468652061736b696e672070726963650000600082015250565b6000613f5a601e83613314565b9150613f6582613f24565b602082019050919050565b60006020820190508181036000830152613f8981613f4d565b9050919050565b7f4552433732313a20696e76616c696420746f6b656e2049440000000000000000600082015250565b6000613fc6601883613314565b9150613fd182613f90565b602082019050919050565b60006020820190508181036000830152613ff581613fb9565b9050919050565b7f4552433732313a2061646472657373207a65726f206973206e6f74206120766160008201527f6c6964206f776e65720000000000000000000000000000000000000000000000602082015250565b6000614058602983613314565b915061406382613ffc565b604082019050919050565b600060208201905081810360008301526140878161404b565b9050919050565b7f5072696365206d757374206265206174206c6561737420312077656900000000600082015250565b60006140c4601c83613314565b91506140cf8261408e565b602082019050919050565b600060208201905081810360008301526140f3816140b7565b9050919050565b7f596f7520617265206e6f74206f776e6572206f662074686973204e4654000000600082015250565b6000614130601d83613314565b915061413b826140fa565b602082019050919050565b6000602082019050818103600083015261415f81614123565b9050919050565b7f4974656d20697320616c7265616479206f6e2073616c65000000000000000000600082015250565b600061419c601783613314565b91506141a782614166565b602082019050919050565b600060208201905081810360008301526141cb8161418f565b9050919050565b7f5072696365206d75737420626520657175616c20746f206c697374696e67207060008201527f7269636500000000000000000000000000000000000000000000000000000000602082015250565b600061422e602483613314565b9150614239826141d2565b604082019050919050565b6000602082019050818103600083015261425d81614221565b9050919050565b7f546f6b656e2055524920616c7265616479206578697374730000000000000000600082015250565b600061429a601883613314565b91506142a582614264565b602082019050919050565b600060208201905081810360008301526142c98161428d565b9050919050565b60006142dc8285613dca565b91506142e88284613dca565b91508190509392505050565b60006142ff826133bb565b915061430a836133bb565b925082820190508082111561432257614321613e41565b5b92915050565b7f4f776e61626c653a206e6577206f776e657220697320746865207a65726f206160008201527f6464726573730000000000000000000000000000000000000000000000000000602082015250565b6000614384602683613314565b915061438f82614328565b604082019050919050565b600060208201905081810360008301526143b381614377565b9050919050565b7f4552433732313a207472616e736665722066726f6d20696e636f72726563742060008201527f6f776e6572000000000000000000000000000000000000000000000000000000602082015250565b6000614416602583613314565b9150614421826143ba565b604082019050919050565b6000602082019050818103600083015261444581614409565b9050919050565b7f4552433732313a207472616e7366657220746f20746865207a65726f2061646460008201527f7265737300000000000000000000000000000000000000000000000000000000602082015250565b60006144a8602483613314565b91506144b38261444c565b604082019050919050565b600060208201905081810360008301526144d78161449b565b9050919050565b7f436f756e7465723a2064656372656d656e74206f766572666c6f770000000000600082015250565b6000614514601b83613314565b915061451f826144de565b602082019050919050565b6000602082019050818103600083015261454381614507565b9050919050565b7f4f776e61626c653a2063616c6c6572206973206e6f7420746865206f776e6572600082015250565b6000614580602083613314565b915061458b8261454a565b602082019050919050565b600060208201905081810360008301526145af81614573565b9050919050565b7f4552433732313a20617070726f766520746f2063616c6c657200000000000000600082015250565b60006145ec601983613314565b91506145f7826145b6565b602082019050919050565b6000602082019050818103600083015261461b816145df565b9050919050565b7f4552433732313a207472616e7366657220746f206e6f6e20455243373231526560008201527f63656976657220696d706c656d656e7465720000000000000000000000000000602082015250565b600061467e603283613314565b915061468982614622565b604082019050919050565b600060208201905081810360008301526146ad81614671565b9050919050565b7f45524337323155524953746f726167653a2055524920736574206f66206e6f6e60008201527f6578697374656e7420746f6b656e000000000000000000000000000000000000602082015250565b6000614710602e83613314565b915061471b826146b4565b604082019050919050565b6000602082019050818103600083015261473f81614703565b9050919050565b60008190508160005260206000209050919050565b60006020601f8301049050919050565b600082821b905092915050565b6000600883026147a87fffffffffffffffffffffffffffffffffffffffffffffffffffffffffffffffff8261476b565b6147b2868361476b565b95508019841693508086168417925050509392505050565b6000819050919050565b60006147ef6147ea6147e5846133bb565b6147ca565b6133bb565b9050919050565b6000819050919050565b614809836147d4565b61481d614815826147f6565b848454614778565b825550505050565b600090565b614832614825565b61483d818484614800565b505050565b5b818110156148615761485660008261482a565b600181019050614843565b5050565b601f8211156148a65761487781614746565b6148808461475b565b8101602085101561488f578190505b6148a361489b8561475b565b830182614842565b50505b505050565b600082821c905092915050565b60006148c9600019846008026148ab565b1980831691505092915050565b60006148e283836148b8565b9150826002028217905092915050565b6148fb82613309565b67ffffffffffffffff8111156149145761491361356d565b5b61491e8254613b6c565b614929828285614865565b600060209050601f83116001811461495c576000841561494a578287015190505b61495485826148d6565b8655506149bc565b601f19841661496a86614746565b60005b828110156149925784890151825560018201915060208501945060208101905061496d565b868310156149af57848901516149ab601f8916826148b8565b8355505b6001600288020188555050505b505050505050565b60006080820190506149d960008301876134e6565b6149e660208301866134e6565b6149f36040830185613450565b614a0060608301846132df565b95945050505050565b600081519050919050565b600082825260208201905092915050565b6000614a3082614a09565b614a3a8185614a14565b9350614a4a818560208601613325565b614a538161334f565b840191505092915050565b6000608082019050614a736000830187613450565b614a806020830186613450565b614a8d60408301856134e6565b8181036060830152614a9f8184614a25565b905095945050505050565b600081519050614ab98161327a565b92915050565b600060208284031215614ad557614ad4613244565b5b6000614ae384828501614aaa565b91505092915050565b7f4e487b7100000000000000000000000000000000000000000000000000000000600052601260045260246000fd5b6000614b26826133bb565b9150614b31836133bb565b9250828203905081811115614b4957614b48613e41565b5b92915050565b7f4e487b7100000000000000000000000000000000000000000000000000000000600052603160045260246000fd5b7f4552433732313a206d696e7420746f20746865207a65726f2061646472657373600082015250565b6000614bb4602083613314565b9150614bbf82614b7e565b602082019050919050565b60006020820190508181036000830152614be381614ba7565b9050919050565b7f4552433732313a20746f6b656e20616c7265616479206d696e74656400000000600082015250565b6000614c20601c83613314565b9150614c2b82614bea565b602082019050919050565b60006020820190508181036000830152614c4f81614c13565b905091905056fea2646970667358221220bcde7a74be85c558fecbf55370ab6871974088329b8b30913799384dcad4048264736f6c63430008120033",
  "immutableReferences": {},
  "source": "// SPDX-License-Identifier: MIT\npragma solidity 0.8.18;\n\nimport \"@openzeppelin/contracts/token/ERC721/extensions/ERC721URIStorage.sol\";\nimport \"@openzeppelin/contracts/utils/Counters.sol\";\nimport \"@openzeppelin/contracts/access/Ownable.sol\";\n\ncontract NFTMarket is ERC721URIStorage, Ownable {\n\n  using Counters for Counters.Counter;\n\n  Counters.Counter private _listedItems; //How many NFTs are listed\n  Counters.Counter private _tokenIds; //How many NFTs created in total\n\n    struct NFTItem {\n    uint tokenId;\n    uint price;\n    address creator;\n    bool isListed;\n  }\n\n  uint public listingPrice = 0.025 ether;\n\n\n  mapping(string => bool) private _usedTokenURIs;\n  mapping(uint => NFTItem) private _idToNFTItem;\n\n  mapping(address => mapping(uint => uint)) private _ownedTokens;\n  mapping(uint => uint) private _idToOwnedIndex;\n\n  // all tokenIds in the array\n  uint256[] private _allNFTs;\n  mapping(uint => uint) private _idToNFTIndex;\n\n  event NFTItemCreated (\n    uint tokenId,\n    uint price,\n    address creator,\n    bool isListed\n  );\n\n  constructor() ERC721(\"CreaturesNFT\", \"CNFT\") {}\n\n  function setListingPrice(uint newPrice) external onlyOwner {\n    require(newPrice > 0, \"Price must be at least 1 wei\");\n    listingPrice = newPrice;\n  }\n\n  function  mintToken(string memory tokenURI, uint price) public payable returns (uint) {\n\n    require(!tokenURIExists(tokenURI), \"Token URI already exists\");\n    require(msg.value == listingPrice, \"Price must be equal to listing price\");\n\n    _tokenIds.increment();\n    _listedItems.increment();\n\n    uint newTokenId = _tokenIds.current();\n\n    _safeMint(msg.sender, newTokenId);\n    _setTokenURI(newTokenId, tokenURI);\n    _createNFTItem(newTokenId, price);\n    _usedTokenURIs[tokenURI] = true;\n\n    return newTokenId;\n  }\n\n  function buyNFT(uint tokenId) public payable {\n    uint price = _idToNFTItem[tokenId].price;\n    address owner = ownerOf(tokenId);\n\n    require(msg.sender != owner, \"You already own this NFT\");\n    require(msg.value == price,  \"Please submit the asking price\");\n\n    _idToNFTItem[tokenId].isListed = false;\n    _listedItems.decrement();\n\n    _transfer(owner, msg.sender, tokenId);\n    payable(owner).transfer(msg.value);\n  }\n\n  function sellNFT(uint tokenId, uint newPrice) public payable{\n    require(ERC721.ownerOf(tokenId) == msg.sender, \"You are not owner of this NFT\");\n    require(_idToNFTItem[tokenId].isListed == false, \"Item is already on sale\");\n    require(msg.value == listingPrice, \"Price must be equal to listing price\");\n\n    _idToNFTItem[tokenId].isListed = true;\n    _idToNFTItem[tokenId].price = newPrice;\n    _listedItems.increment();\n\n  }\n\n  function burnToken(uint tokenId) public {\n    _burn(tokenId);\n  }\n\n  function _createNFTItem(uint tokenId, uint price) private {\n    require(price > 0, \"Price must be at least 1 wei\");\n    _idToNFTItem[tokenId] = NFTItem(tokenId, price, msg.sender, true);\n\n    emit NFTItemCreated(tokenId, price, msg.sender, true);\n  }\n\n  function _beforeTokenTransfer(address from, address to, uint tokenId, uint batchSize) internal virtual override {\n    super._beforeTokenTransfer(from, to, tokenId, batchSize);\n    if(from == address(0)){\n      _addTokenToAllTokensEnumeration(tokenId);\n    }else if(from != to){\n      _removeTokenFromOwnerEnumeration(from, tokenId);\n    }\n\n    if(to == address(0)){\n        _removeTokenFromAllTokensEnumeration(tokenId);\n    } else if(to !=from){\n      _addTokenToOwnerEnumeration(to, tokenId);\n    }\n\n    if(to != from){\n      _addTokenToOwnerEnumeration(to, tokenId);\n    }\n  }\n\n  function _addTokenToAllTokensEnumeration(uint tokenId) private {\n    _idToNFTIndex[tokenId] = _allNFTs.length;\n    _allNFTs.push(tokenId);\n  }\n\n  function _addTokenToOwnerEnumeration(address to, uint tokenId) private {\n    uint length = ERC721.balanceOf(to);\n    _ownedTokens[to][length] = tokenId;\n    _idToOwnedIndex[tokenId] = length;\n  }\n\n  function _removeTokenFromOwnerEnumeration(address from, uint tokenId) private{\n    uint lastTokenIndex = ERC721.balanceOf(from) -1;\n    uint tokenIndex = _idToOwnedIndex[tokenId];\n\n    if(tokenIndex != lastTokenIndex){\n      uint lastTokenId = _ownedTokens[from][lastTokenIndex];\n\n      _ownedTokens[from][tokenIndex] =lastTokenId;\n      _idToOwnedIndex[lastTokenId] = tokenIndex;\n    }\n\n    delete _idToOwnedIndex[tokenId];\n    delete _ownedTokens[from][lastTokenIndex];\n   }\n\n   function _removeTokenFromAllTokensEnumeration(uint tokenId) private {\n      uint lastTokenIndex = _allNFTs.length - 1;\n      uint tokenIndex = _idToNFTIndex[tokenId];\n      uint lastTokenId = _allNFTs[lastTokenIndex];\n\n      _allNFTs[tokenIndex] = lastTokenId;\n      _idToNFTIndex[lastTokenId] = tokenIndex;\n\n      delete _idToNFTIndex[tokenId];\n      _allNFTs.pop();\n   }\n\n  function getOwnedNFTs() public view returns(NFTItem[] memory) {\n    uint ownedItemsCount = ERC721.balanceOf(msg.sender);\n    NFTItem[] memory items = new NFTItem[](ownedItemsCount);\n\n    for(uint i = 0; i < ownedItemsCount; i++){\n      uint tokenId = tokenOfOwnerByIndex(msg.sender, i);\n      NFTItem storage item = _idToNFTItem[tokenId];\n      items[i] = item;\n    }\n\n    return items;\n  }\n\n  function getAllNFTsOnSale() public view returns (NFTItem[] memory){\n    uint allItemsCounts = totalSupply();\n    uint currentIndex = 0;\n\n    NFTItem[] memory items = new NFTItem[](_listedItems.current());\n\n    for (uint i = 0; i < allItemsCounts; i++){\n      uint tokenId = tokenByIndex(i);\n      NFTItem storage item = _idToNFTItem[tokenId];\n\n      if(item.isListed == true){\n        items[currentIndex] = item;\n        currentIndex += 1;\n      }\n    }\n\n    return items;\n  }\n\n  function totalSupply() public view returns (uint){\n    return _allNFTs.length;\n  }\n\n  function tokenByIndex(uint index) public view returns (uint) {\n    require(index < totalSupply(), \"Index out of bounds\");\n    return _allNFTs[index];\n  }\n\n  function tokenOfOwnerByIndex(address owner, uint index) public view returns (uint) {\n    require(index < ERC721.balanceOf(owner), \"Index out of bounds\");\n    return _ownedTokens[owner][index];\n  }\n\n  function getNFTItem(uint tokenId) public view returns (NFTItem memory) {\n    return _idToNFTItem[tokenId];\n  }\n\n  function getListedItemsCount() public view returns (uint) {\n    return _listedItems.current();\n  }\n\n  function tokenURIExists(string memory tokenURI) public view returns (bool) {\n    return _usedTokenURIs[tokenURI] == true;\n  }\n}",
  "sourcePath": "/Users/michaelmburu/Documents/Visual Studio Code/React/NFT Marketplace/nft-marketplace/contracts/NFTMarket.sol",
  "compiler": {
    "name": "solc",
    "version": "0.8.18+commit.87f61d96.Emscripten.clang"
  },
  "schemaVersion": "3.4.11",
  "updatedAt": "2023-02-22T19:25:02.922Z",
  "networkType": "ethereum",
  "devdoc": {
    "events": {
      "Approval(address,address,uint256)": {
        "details": "Emitted when `owner` enables `approved` to manage the `tokenId` token."
      },
      "ApprovalForAll(address,address,bool)": {
        "details": "Emitted when `owner` enables or disables (`approved`) `operator` to manage all of its assets."
      },
      "Transfer(address,address,uint256)": {
        "details": "Emitted when `tokenId` token is transferred from `from` to `to`."
      }
    },
    "kind": "dev",
    "methods": {
      "approve(address,uint256)": {
        "details": "See {IERC721-approve}."
      },
      "balanceOf(address)": {
        "details": "See {IERC721-balanceOf}."
      },
      "getApproved(uint256)": {
        "details": "See {IERC721-getApproved}."
      },
      "isApprovedForAll(address,address)": {
        "details": "See {IERC721-isApprovedForAll}."
      },
      "name()": {
        "details": "See {IERC721Metadata-name}."
      },
      "owner()": {
        "details": "Returns the address of the current owner."
      },
      "ownerOf(uint256)": {
        "details": "See {IERC721-ownerOf}."
      },
      "renounceOwnership()": {
        "details": "Leaves the contract without owner. It will not be possible to call `onlyOwner` functions anymore. Can only be called by the current owner. NOTE: Renouncing ownership will leave the contract without an owner, thereby removing any functionality that is only available to the owner."
      },
      "safeTransferFrom(address,address,uint256)": {
        "details": "See {IERC721-safeTransferFrom}."
      },
      "safeTransferFrom(address,address,uint256,bytes)": {
        "details": "See {IERC721-safeTransferFrom}."
      },
      "setApprovalForAll(address,bool)": {
        "details": "See {IERC721-setApprovalForAll}."
      },
      "supportsInterface(bytes4)": {
        "details": "See {IERC165-supportsInterface}."
      },
      "symbol()": {
        "details": "See {IERC721Metadata-symbol}."
      },
      "tokenURI(uint256)": {
        "details": "See {IERC721Metadata-tokenURI}."
      },
      "transferFrom(address,address,uint256)": {
        "details": "See {IERC721-transferFrom}."
      },
      "transferOwnership(address)": {
        "details": "Transfers ownership of the contract to a new account (`newOwner`). Can only be called by the current owner."
      }
    },
    "version": 1
  },
  "userdoc": {
    "kind": "user",
    "methods": {},
    "version": 1
  }
}