{
  "contractName": "NFTMarket",
  "abi": [
    {
      "inputs": [],
      "stateMutability": "nonpayable",
      "type": "constructor"
    },
    {
      "anonymous": false,
      "inputs": [
        {
          "indexed": true,
          "internalType": "address",
          "name": "owner",
          "type": "address"
        },
        {
          "indexed": true,
          "internalType": "address",
          "name": "approved",
          "type": "address"
        },
        {
          "indexed": true,
          "internalType": "uint256",
          "name": "tokenId",
          "type": "uint256"
        }
      ],
      "name": "Approval",
      "type": "event"
    },
    {
      "anonymous": false,
      "inputs": [
        {
          "indexed": true,
          "internalType": "address",
          "name": "owner",
          "type": "address"
        },
        {
          "indexed": true,
          "internalType": "address",
          "name": "operator",
          "type": "address"
        },
        {
          "indexed": false,
          "internalType": "bool",
          "name": "approved",
          "type": "bool"
        }
      ],
      "name": "ApprovalForAll",
      "type": "event"
    },
    {
      "anonymous": false,
      "inputs": [
        {
          "indexed": false,
          "internalType": "uint256",
          "name": "tokenId",
          "type": "uint256"
        },
        {
          "indexed": false,
          "internalType": "uint256",
          "name": "price",
          "type": "uint256"
        },
        {
          "indexed": false,
          "internalType": "address",
          "name": "creator",
          "type": "address"
        },
        {
          "indexed": false,
          "internalType": "bool",
          "name": "isListed",
          "type": "bool"
        }
      ],
      "name": "NFTItemCreated",
      "type": "event"
    },
    {
      "anonymous": false,
      "inputs": [
        {
          "indexed": true,
          "internalType": "address",
          "name": "from",
          "type": "address"
        },
        {
          "indexed": true,
          "internalType": "address",
          "name": "to",
          "type": "address"
        },
        {
          "indexed": true,
          "internalType": "uint256",
          "name": "tokenId",
          "type": "uint256"
        }
      ],
      "name": "Transfer",
      "type": "event"
    },
    {
      "inputs": [
        {
          "internalType": "address",
          "name": "to",
          "type": "address"
        },
        {
          "internalType": "uint256",
          "name": "tokenId",
          "type": "uint256"
        }
      ],
      "name": "approve",
      "outputs": [],
      "stateMutability": "nonpayable",
      "type": "function"
    },
    {
      "inputs": [
        {
          "internalType": "address",
          "name": "owner",
          "type": "address"
        }
      ],
      "name": "balanceOf",
      "outputs": [
        {
          "internalType": "uint256",
          "name": "",
          "type": "uint256"
        }
      ],
      "stateMutability": "view",
      "type": "function"
    },
    {
      "inputs": [
        {
          "internalType": "uint256",
          "name": "tokenId",
          "type": "uint256"
        }
      ],
      "name": "getApproved",
      "outputs": [
        {
          "internalType": "address",
          "name": "",
          "type": "address"
        }
      ],
      "stateMutability": "view",
      "type": "function"
    },
    {
      "inputs": [
        {
          "internalType": "address",
          "name": "owner",
          "type": "address"
        },
        {
          "internalType": "address",
          "name": "operator",
          "type": "address"
        }
      ],
      "name": "isApprovedForAll",
      "outputs": [
        {
          "internalType": "bool",
          "name": "",
          "type": "bool"
        }
      ],
      "stateMutability": "view",
      "type": "function"
    },
    {
      "inputs": [],
      "name": "listingPrice",
      "outputs": [
        {
          "internalType": "uint256",
          "name": "",
          "type": "uint256"
        }
      ],
      "stateMutability": "view",
      "type": "function"
    },
    {
      "inputs": [],
      "name": "name",
      "outputs": [
        {
          "internalType": "string",
          "name": "",
          "type": "string"
        }
      ],
      "stateMutability": "view",
      "type": "function"
    },
    {
      "inputs": [
        {
          "internalType": "uint256",
          "name": "tokenId",
          "type": "uint256"
        }
      ],
      "name": "ownerOf",
      "outputs": [
        {
          "internalType": "address",
          "name": "",
          "type": "address"
        }
      ],
      "stateMutability": "view",
      "type": "function"
    },
    {
      "inputs": [
        {
          "internalType": "address",
          "name": "from",
          "type": "address"
        },
        {
          "internalType": "address",
          "name": "to",
          "type": "address"
        },
        {
          "internalType": "uint256",
          "name": "tokenId",
          "type": "uint256"
        }
      ],
      "name": "safeTransferFrom",
      "outputs": [],
      "stateMutability": "nonpayable",
      "type": "function"
    },
    {
      "inputs": [
        {
          "internalType": "address",
          "name": "from",
          "type": "address"
        },
        {
          "internalType": "address",
          "name": "to",
          "type": "address"
        },
        {
          "internalType": "uint256",
          "name": "tokenId",
          "type": "uint256"
        },
        {
          "internalType": "bytes",
          "name": "data",
          "type": "bytes"
        }
      ],
      "name": "safeTransferFrom",
      "outputs": [],
      "stateMutability": "nonpayable",
      "type": "function"
    },
    {
      "inputs": [
        {
          "internalType": "address",
          "name": "operator",
          "type": "address"
        },
        {
          "internalType": "bool",
          "name": "approved",
          "type": "bool"
        }
      ],
      "name": "setApprovalForAll",
      "outputs": [],
      "stateMutability": "nonpayable",
      "type": "function"
    },
    {
      "inputs": [
        {
          "internalType": "bytes4",
          "name": "interfaceId",
          "type": "bytes4"
        }
      ],
      "name": "supportsInterface",
      "outputs": [
        {
          "internalType": "bool",
          "name": "",
          "type": "bool"
        }
      ],
      "stateMutability": "view",
      "type": "function"
    },
    {
      "inputs": [],
      "name": "symbol",
      "outputs": [
        {
          "internalType": "string",
          "name": "",
          "type": "string"
        }
      ],
      "stateMutability": "view",
      "type": "function"
    },
    {
      "inputs": [
        {
          "internalType": "uint256",
          "name": "tokenId",
          "type": "uint256"
        }
      ],
      "name": "tokenURI",
      "outputs": [
        {
          "internalType": "string",
          "name": "",
          "type": "string"
        }
      ],
      "stateMutability": "view",
      "type": "function"
    },
    {
      "inputs": [
        {
          "internalType": "address",
          "name": "from",
          "type": "address"
        },
        {
          "internalType": "address",
          "name": "to",
          "type": "address"
        },
        {
          "internalType": "uint256",
          "name": "tokenId",
          "type": "uint256"
        }
      ],
      "name": "transferFrom",
      "outputs": [],
      "stateMutability": "nonpayable",
      "type": "function"
    },
    {
      "inputs": [
        {
          "internalType": "string",
          "name": "tokenURI",
          "type": "string"
        },
        {
          "internalType": "uint256",
          "name": "price",
          "type": "uint256"
        }
      ],
      "name": "mintToken",
      "outputs": [
        {
          "internalType": "uint256",
          "name": "",
          "type": "uint256"
        }
      ],
      "stateMutability": "payable",
      "type": "function"
    },
    {
      "inputs": [
        {
          "internalType": "uint256",
          "name": "tokenId",
          "type": "uint256"
        }
      ],
      "name": "buyNFT",
      "outputs": [],
      "stateMutability": "payable",
      "type": "function"
    },
    {
      "inputs": [
        {
          "internalType": "uint256",
          "name": "tokenId",
          "type": "uint256"
        }
      ],
      "name": "getNFTItem",
      "outputs": [
        {
          "components": [
            {
              "internalType": "uint256",
              "name": "tokenId",
              "type": "uint256"
            },
            {
              "internalType": "uint256",
              "name": "price",
              "type": "uint256"
            },
            {
              "internalType": "address",
              "name": "creator",
              "type": "address"
            },
            {
              "internalType": "bool",
              "name": "isListed",
              "type": "bool"
            }
          ],
          "internalType": "struct NFTMarket.NFTItem",
          "name": "",
          "type": "tuple"
        }
      ],
      "stateMutability": "view",
      "type": "function"
    },
    {
      "inputs": [],
      "name": "getListedItemsCount",
      "outputs": [
        {
          "internalType": "uint256",
          "name": "",
          "type": "uint256"
        }
      ],
      "stateMutability": "view",
      "type": "function"
    },
    {
      "inputs": [
        {
          "internalType": "string",
          "name": "tokenURI",
          "type": "string"
        }
      ],
      "name": "tokenURIExists",
      "outputs": [
        {
          "internalType": "bool",
          "name": "",
          "type": "bool"
        }
      ],
      "stateMutability": "view",
      "type": "function"
    }
  ],
  "bytecode": "0x60806040526658d15e176280006009553480156200001c57600080fd5b506040518060400160405280600c81526020017f4372656174757265734e465400000000000000000000000000000000000000008152506040518060400160405280600481526020017f434e46540000000000000000000000000000000000000000000000000000000081525081600090816200009a91906200032f565b508060019081620000ac91906200032f565b50505062000416565b600081519050919050565b7f4e487b7100000000000000000000000000000000000000000000000000000000600052604160045260246000fd5b7f4e487b7100000000000000000000000000000000000000000000000000000000600052602260045260246000fd5b600060028204905060018216806200013757607f821691505b6020821081036200014d576200014c620000ef565b5b50919050565b60008190508160005260206000209050919050565b60006020601f8301049050919050565b600082821b905092915050565b600060088302620001b77fffffffffffffffffffffffffffffffffffffffffffffffffffffffffffffffff8262000178565b620001c3868362000178565b95508019841693508086168417925050509392505050565b6000819050919050565b6000819050919050565b6000620002106200020a6200020484620001db565b620001e5565b620001db565b9050919050565b6000819050919050565b6200022c83620001ef565b620002446200023b8262000217565b84845462000185565b825550505050565b600090565b6200025b6200024c565b6200026881848462000221565b505050565b5b8181101562000290576200028460008262000251565b6001810190506200026e565b5050565b601f821115620002df57620002a98162000153565b620002b48462000168565b81016020851015620002c4578190505b620002dc620002d38562000168565b8301826200026d565b50505b505050565b600082821c905092915050565b60006200030460001984600802620002e4565b1980831691505092915050565b60006200031f8383620002f1565b9150826002028217905092915050565b6200033a82620000b5565b67ffffffffffffffff811115620003565762000355620000c0565b5b6200036282546200011e565b6200036f82828562000294565b600060209050601f831160018114620003a7576000841562000392578287015190505b6200039e858262000311565b8655506200040e565b601f198416620003b78662000153565b60005b82811015620003e157848901518255600182019150602085019450602081019050620003ba565b86831015620004015784890151620003fd601f891682620002f1565b8355505b6001600288020188555050505b505050505050565b61375880620004266000396000f3fe6080604052600436106101145760003560e01c80636352211e116100a0578063b88d4fde11610064578063b88d4fde146103c8578063c046372c146103f1578063c78f19f914610421578063c87b56dd1461044c578063e985e9c51461048957610114565b80636352211e146102bd5780636a3ceff9146102fa57806370a082311461033757806395d89b4114610374578063a22cb4651461039f57610114565b806323b872dd116100e757806323b872dd146101e757806333353f481461021057806342842e0e1461023b57806343d32ae71461026457806351ed8288146102a157610114565b806301ffc9a71461011957806306fdde0314610156578063081812fc14610181578063095ea7b3146101be575b600080fd5b34801561012557600080fd5b50610140600480360381019061013b91906121c0565b6104c6565b60405161014d9190612208565b60405180910390f35b34801561016257600080fd5b5061016b6105a8565b60405161017891906122b3565b60405180910390f35b34801561018d57600080fd5b506101a860048036038101906101a3919061230b565b61063a565b6040516101b59190612379565b60405180910390f35b3480156101ca57600080fd5b506101e560048036038101906101e091906123c0565b610680565b005b3480156101f357600080fd5b5061020e60048036038101906102099190612400565b610797565b005b34801561021c57600080fd5b506102256107f7565b6040516102329190612462565b60405180910390f35b34801561024757600080fd5b50610262600480360381019061025d9190612400565b610808565b005b34801561027057600080fd5b5061028b600480360381019061028691906125b2565b610828565b6040516102989190612208565b60405180910390f35b6102bb60048036038101906102b6919061230b565b610864565b005b3480156102c957600080fd5b506102e460048036038101906102df919061230b565b6109cc565b6040516102f19190612379565b60405180910390f35b34801561030657600080fd5b50610321600480360381019061031c919061230b565b610a52565b60405161032e919061267d565b60405180910390f35b34801561034357600080fd5b5061035e60048036038101906103599190612698565b610b04565b60405161036b9190612462565b60405180910390f35b34801561038057600080fd5b50610389610bbb565b60405161039691906122b3565b60405180910390f35b3480156103ab57600080fd5b506103c660048036038101906103c191906126f1565b610c4d565b005b3480156103d457600080fd5b506103ef60048036038101906103ea91906127d2565b610c63565b005b61040b60048036038101906104069190612855565b610cc5565b6040516104189190612462565b60405180910390f35b34801561042d57600080fd5b50610436610dd5565b6040516104439190612462565b60405180910390f35b34801561045857600080fd5b50610473600480360381019061046e919061230b565b610ddb565b60405161048091906122b3565b60405180910390f35b34801561049557600080fd5b506104b060048036038101906104ab91906128b1565b610eed565b6040516104bd9190612208565b60405180910390f35b60007f80ac58cd000000000000000000000000000000000000000000000000000000007bffffffffffffffffffffffffffffffffffffffffffffffffffffffff1916827bffffffffffffffffffffffffffffffffffffffffffffffffffffffff1916148061059157507f5b5e139f000000000000000000000000000000000000000000000000000000007bffffffffffffffffffffffffffffffffffffffffffffffffffffffff1916827bffffffffffffffffffffffffffffffffffffffffffffffffffffffff1916145b806105a157506105a082610f81565b5b9050919050565b6060600080546105b790612920565b80601f01602080910402602001604051908101604052809291908181526020018280546105e390612920565b80156106305780601f1061060557610100808354040283529160200191610630565b820191906000526020600020905b81548152906001019060200180831161061357829003601f168201915b5050505050905090565b600061064582610feb565b6004600083815260200190815260200160002060009054906101000a900473ffffffffffffffffffffffffffffffffffffffff169050919050565b600061068b826109cc565b90508073ffffffffffffffffffffffffffffffffffffffff168373ffffffffffffffffffffffffffffffffffffffff16036106fb576040517f08c379a00000000000000000000000000000000000000000000000000000000081526004016106f2906129c3565b60405180910390fd5b8073ffffffffffffffffffffffffffffffffffffffff1661071a611036565b73ffffffffffffffffffffffffffffffffffffffff161480610749575061074881610743611036565b610eed565b5b610788576040517f08c379a000000000000000000000000000000000000000000000000000000000815260040161077f90612a55565b60405180910390fd5b610792838361103e565b505050565b6107a86107a2611036565b826110f7565b6107e7576040517f08c379a00000000000000000000000000000000000000000000000000000000081526004016107de90612ae7565b60405180910390fd5b6107f283838361118c565b505050565b60006108036007611485565b905090565b61082383838360405180602001604052806000815250610c63565b505050565b600060011515600a8360405161083e9190612b43565b908152602001604051809103902060009054906101000a900460ff161515149050919050565b6000600b6000838152602001908152602001600020600101549050600061088a836109cc565b90508073ffffffffffffffffffffffffffffffffffffffff163373ffffffffffffffffffffffffffffffffffffffff16036108fa576040517f08c379a00000000000000000000000000000000000000000000000000000000081526004016108f190612ba6565b60405180910390fd5b81341461093c576040517f08c379a000000000000000000000000000000000000000000000000000000000815260040161093390612c12565b60405180910390fd5b6000600b600085815260200190815260200160002060020160146101000a81548160ff0219169083151502179055506109756007611493565b61098081338561118c565b8073ffffffffffffffffffffffffffffffffffffffff166108fc349081150290604051600060405180830381858888f193505050501580156109c6573d6000803e3d6000fd5b50505050565b6000806109d8836114ef565b9050600073ffffffffffffffffffffffffffffffffffffffff168173ffffffffffffffffffffffffffffffffffffffff1603610a49576040517f08c379a0000000000000000000000000000000000000000000000000000000008152600401610a4090612c7e565b60405180910390fd5b80915050919050565b610a5a612114565b600b600083815260200190815260200160002060405180608001604052908160008201548152602001600182015481526020016002820160009054906101000a900473ffffffffffffffffffffffffffffffffffffffff1673ffffffffffffffffffffffffffffffffffffffff1673ffffffffffffffffffffffffffffffffffffffff1681526020016002820160149054906101000a900460ff1615151515815250509050919050565b60008073ffffffffffffffffffffffffffffffffffffffff168273ffffffffffffffffffffffffffffffffffffffff1603610b74576040517f08c379a0000000000000000000000000000000000000000000000000000000008152600401610b6b90612d10565b60405180910390fd5b600360008373ffffffffffffffffffffffffffffffffffffffff1673ffffffffffffffffffffffffffffffffffffffff168152602001908152602001600020549050919050565b606060018054610bca90612920565b80601f0160208091040260200160405190810160405280929190818152602001828054610bf690612920565b8015610c435780601f10610c1857610100808354040283529160200191610c43565b820191906000526020600020905b815481529060010190602001808311610c2657829003601f168201915b5050505050905090565b610c5f610c58611036565b838361152c565b5050565b610c74610c6e611036565b836110f7565b610cb3576040517f08c379a0000000000000000000000000000000000000000000000000000000008152600401610caa90612ae7565b60405180910390fd5b610cbf84848484611698565b50505050565b6000610cd083610828565b15610d10576040517f08c379a0000000000000000000000000000000000000000000000000000000008152600401610d0790612d7c565b60405180910390fd5b6009543414610d54576040517f08c379a0000000000000000000000000000000000000000000000000000000008152600401610d4b90612e0e565b60405180910390fd5b610d5e60086116f4565b610d6860076116f4565b6000610d746008611485565b9050610d80338261170a565b610d8a8185611728565b610d948184611795565b6001600a85604051610da69190612b43565b908152602001604051809103902060006101000a81548160ff0219169083151502179055508091505092915050565b60095481565b6060610de682610feb565b6000600660008481526020019081526020016000208054610e0690612920565b80601f0160208091040260200160405190810160405280929190818152602001828054610e3290612920565b8015610e7f5780601f10610e5457610100808354040283529160200191610e7f565b820191906000526020600020905b815481529060010190602001808311610e6257829003601f168201915b505050505090506000610e906118e5565b90506000815103610ea5578192505050610ee8565b600082511115610eda578082604051602001610ec2929190612e2e565b60405160208183030381529060405292505050610ee8565b610ee3846118fc565b925050505b919050565b6000600560008473ffffffffffffffffffffffffffffffffffffffff1673ffffffffffffffffffffffffffffffffffffffff16815260200190815260200160002060008373ffffffffffffffffffffffffffffffffffffffff1673ffffffffffffffffffffffffffffffffffffffff16815260200190815260200160002060009054906101000a900460ff16905092915050565b60007f01ffc9a7000000000000000000000000000000000000000000000000000000007bffffffffffffffffffffffffffffffffffffffffffffffffffffffff1916827bffffffffffffffffffffffffffffffffffffffffffffffffffffffff1916149050919050565b610ff481611964565b611033576040517f08c379a000000000000000000000000000000000000000000000000000000000815260040161102a90612c7e565b60405180910390fd5b50565b600033905090565b816004600083815260200190815260200160002060006101000a81548173ffffffffffffffffffffffffffffffffffffffff021916908373ffffffffffffffffffffffffffffffffffffffff160217905550808273ffffffffffffffffffffffffffffffffffffffff166110b1836109cc565b73ffffffffffffffffffffffffffffffffffffffff167f8c5be1e5ebec7d5bd14f71427d1e84f3dd0314c0f7b2291e5b200ac8c7c3b92560405160405180910390a45050565b600080611103836109cc565b90508073ffffffffffffffffffffffffffffffffffffffff168473ffffffffffffffffffffffffffffffffffffffff16148061114557506111448185610eed565b5b8061118357508373ffffffffffffffffffffffffffffffffffffffff1661116b8461063a565b73ffffffffffffffffffffffffffffffffffffffff16145b91505092915050565b8273ffffffffffffffffffffffffffffffffffffffff166111ac826109cc565b73ffffffffffffffffffffffffffffffffffffffff1614611202576040517f08c379a00000000000000000000000000000000000000000000000000000000081526004016111f990612ec4565b60405180910390fd5b600073ffffffffffffffffffffffffffffffffffffffff168273ffffffffffffffffffffffffffffffffffffffff1603611271576040517f08c379a000000000000000000000000000000000000000000000000000000000815260040161126890612f56565b60405180910390fd5b61127e83838360016119a5565b8273ffffffffffffffffffffffffffffffffffffffff1661129e826109cc565b73ffffffffffffffffffffffffffffffffffffffff16146112f4576040517f08c379a00000000000000000000000000000000000000000000000000000000081526004016112eb90612ec4565b60405180910390fd5b6004600082815260200190815260200160002060006101000a81549073ffffffffffffffffffffffffffffffffffffffff02191690556001600360008573ffffffffffffffffffffffffffffffffffffffff1673ffffffffffffffffffffffffffffffffffffffff168152602001908152602001600020600082825403925050819055506001600360008473ffffffffffffffffffffffffffffffffffffffff1673ffffffffffffffffffffffffffffffffffffffff16815260200190815260200160002060008282540192505081905550816002600083815260200190815260200160002060006101000a81548173ffffffffffffffffffffffffffffffffffffffff021916908373ffffffffffffffffffffffffffffffffffffffff160217905550808273ffffffffffffffffffffffffffffffffffffffff168473ffffffffffffffffffffffffffffffffffffffff167fddf252ad1be2c89b69c2b068fc378daa952ba7f163c4a11628f55a4df523b3ef60405160405180910390a46114808383836001611acb565b505050565b600081600001549050919050565b600081600001549050600081116114df576040517f08c379a00000000000000000000000000000000000000000000000000000000081526004016114d690612fc2565b60405180910390fd5b6001810382600001819055505050565b60006002600083815260200190815260200160002060009054906101000a900473ffffffffffffffffffffffffffffffffffffffff169050919050565b8173ffffffffffffffffffffffffffffffffffffffff168373ffffffffffffffffffffffffffffffffffffffff160361159a576040517f08c379a00000000000000000000000000000000000000000000000000000000081526004016115919061302e565b60405180910390fd5b80600560008573ffffffffffffffffffffffffffffffffffffffff1673ffffffffffffffffffffffffffffffffffffffff16815260200190815260200160002060008473ffffffffffffffffffffffffffffffffffffffff1673ffffffffffffffffffffffffffffffffffffffff16815260200190815260200160002060006101000a81548160ff0219169083151502179055508173ffffffffffffffffffffffffffffffffffffffff168373ffffffffffffffffffffffffffffffffffffffff167f17307eab39ab6107e8899845ad3d59bd9653f200f220920489ca2b5937696c318360405161168b9190612208565b60405180910390a3505050565b6116a384848461118c565b6116af84848484611ad1565b6116ee576040517f08c379a00000000000000000000000000000000000000000000000000000000081526004016116e5906130c0565b60405180910390fd5b50505050565b6001816000016000828254019250508190555050565b611724828260405180602001604052806000815250611c58565b5050565b61173182611964565b611770576040517f08c379a000000000000000000000000000000000000000000000000000000000815260040161176790613152565b60405180910390fd5b80600660008481526020019081526020016000209081611790919061331e565b505050565b600081116117d8576040517f08c379a00000000000000000000000000000000000000000000000000000000081526004016117cf9061343c565b60405180910390fd5b60405180608001604052808381526020018281526020013373ffffffffffffffffffffffffffffffffffffffff16815260200160011515815250600b6000848152602001908152602001600020600082015181600001556020820151816001015560408201518160020160006101000a81548173ffffffffffffffffffffffffffffffffffffffff021916908373ffffffffffffffffffffffffffffffffffffffff16021790555060608201518160020160146101000a81548160ff0219169083151502179055509050507f43f35c7892cef3db6314a5b129e161ca0731bb9e4a5d4f7244b605bb7b65b11582823360016040516118d9949392919061345c565b60405180910390a15050565b606060405180602001604052806000815250905090565b606061190782610feb565b60006119116118e5565b90506000815111611931576040518060200160405280600081525061195c565b8061193b84611cb3565b60405160200161194c929190612e2e565b6040516020818303038152906040525b915050919050565b60008073ffffffffffffffffffffffffffffffffffffffff16611986836114ef565b73ffffffffffffffffffffffffffffffffffffffff1614159050919050565b6001811115611ac557600073ffffffffffffffffffffffffffffffffffffffff168473ffffffffffffffffffffffffffffffffffffffff1614611a395780600360008673ffffffffffffffffffffffffffffffffffffffff1673ffffffffffffffffffffffffffffffffffffffff1681526020019081526020016000206000828254611a3191906134d0565b925050819055505b600073ffffffffffffffffffffffffffffffffffffffff168373ffffffffffffffffffffffffffffffffffffffff1614611ac45780600360008573ffffffffffffffffffffffffffffffffffffffff1673ffffffffffffffffffffffffffffffffffffffff1681526020019081526020016000206000828254611abc9190613504565b925050819055505b5b50505050565b50505050565b6000611af28473ffffffffffffffffffffffffffffffffffffffff16611d81565b15611c4b578373ffffffffffffffffffffffffffffffffffffffff1663150b7a02611b1b611036565b8786866040518563ffffffff1660e01b8152600401611b3d949392919061358d565b6020604051808303816000875af1925050508015611b7957506040513d601f19601f82011682018060405250810190611b7691906135ee565b60015b611bfb573d8060008114611ba9576040519150601f19603f3d011682016040523d82523d6000602084013e611bae565b606091505b506000815103611bf3576040517f08c379a0000000000000000000000000000000000000000000000000000000008152600401611bea906130c0565b60405180910390fd5b805181602001fd5b63150b7a0260e01b7bffffffffffffffffffffffffffffffffffffffffffffffffffffffff1916817bffffffffffffffffffffffffffffffffffffffffffffffffffffffff191614915050611c50565b600190505b949350505050565b611c628383611da4565b611c6f6000848484611ad1565b611cae576040517f08c379a0000000000000000000000000000000000000000000000000000000008152600401611ca5906130c0565b60405180910390fd5b505050565b606060006001611cc284611fc1565b01905060008167ffffffffffffffff811115611ce157611ce0612487565b5b6040519080825280601f01601f191660200182016040528015611d135781602001600182028036833780820191505090505b509050600082602001820190505b600115611d76578080600190039150507f3031323334353637383961626364656600000000000000000000000000000000600a86061a8153600a8581611d6a57611d6961361b565b5b04945060008503611d21575b819350505050919050565b6000808273ffffffffffffffffffffffffffffffffffffffff163b119050919050565b600073ffffffffffffffffffffffffffffffffffffffff168273ffffffffffffffffffffffffffffffffffffffff1603611e13576040517f08c379a0000000000000000000000000000000000000000000000000000000008152600401611e0a90613696565b60405180910390fd5b611e1c81611964565b15611e5c576040517f08c379a0000000000000000000000000000000000000000000000000000000008152600401611e5390613702565b60405180910390fd5b611e6a6000838360016119a5565b611e7381611964565b15611eb3576040517f08c379a0000000000000000000000000000000000000000000000000000000008152600401611eaa90613702565b60405180910390fd5b6001600360008473ffffffffffffffffffffffffffffffffffffffff1673ffffffffffffffffffffffffffffffffffffffff16815260200190815260200160002060008282540192505081905550816002600083815260200190815260200160002060006101000a81548173ffffffffffffffffffffffffffffffffffffffff021916908373ffffffffffffffffffffffffffffffffffffffff160217905550808273ffffffffffffffffffffffffffffffffffffffff16600073ffffffffffffffffffffffffffffffffffffffff167fddf252ad1be2c89b69c2b068fc378daa952ba7f163c4a11628f55a4df523b3ef60405160405180910390a4611fbd600083836001611acb565b5050565b600080600090507a184f03e93ff9f4daa797ed6e38ed64bf6a1f010000000000000000831061201f577a184f03e93ff9f4daa797ed6e38ed64bf6a1f01000000000000000083816120155761201461361b565b5b0492506040810190505b6d04ee2d6d415b85acef8100000000831061205c576d04ee2d6d415b85acef810000000083816120525761205161361b565b5b0492506020810190505b662386f26fc10000831061208b57662386f26fc1000083816120815761208061361b565b5b0492506010810190505b6305f5e10083106120b4576305f5e10083816120aa576120a961361b565b5b0492506008810190505b61271083106120d95761271083816120cf576120ce61361b565b5b0492506004810190505b606483106120fc57606483816120f2576120f161361b565b5b0492506002810190505b600a831061210b576001810190505b80915050919050565b60405180608001604052806000815260200160008152602001600073ffffffffffffffffffffffffffffffffffffffff1681526020016000151581525090565b6000604051905090565b600080fd5b600080fd5b60007fffffffff0000000000000000000000000000000000000000000000000000000082169050919050565b61219d81612168565b81146121a857600080fd5b50565b6000813590506121ba81612194565b92915050565b6000602082840312156121d6576121d561215e565b5b60006121e4848285016121ab565b91505092915050565b60008115159050919050565b612202816121ed565b82525050565b600060208201905061221d60008301846121f9565b92915050565b600081519050919050565b600082825260208201905092915050565b60005b8381101561225d578082015181840152602081019050612242565b60008484015250505050565b6000601f19601f8301169050919050565b600061228582612223565b61228f818561222e565b935061229f81856020860161223f565b6122a881612269565b840191505092915050565b600060208201905081810360008301526122cd818461227a565b905092915050565b6000819050919050565b6122e8816122d5565b81146122f357600080fd5b50565b600081359050612305816122df565b92915050565b6000602082840312156123215761232061215e565b5b600061232f848285016122f6565b91505092915050565b600073ffffffffffffffffffffffffffffffffffffffff82169050919050565b600061236382612338565b9050919050565b61237381612358565b82525050565b600060208201905061238e600083018461236a565b92915050565b61239d81612358565b81146123a857600080fd5b50565b6000813590506123ba81612394565b92915050565b600080604083850312156123d7576123d661215e565b5b60006123e5858286016123ab565b92505060206123f6858286016122f6565b9150509250929050565b6000806000606084860312156124195761241861215e565b5b6000612427868287016123ab565b9350506020612438868287016123ab565b9250506040612449868287016122f6565b9150509250925092565b61245c816122d5565b82525050565b60006020820190506124776000830184612453565b92915050565b600080fd5b600080fd5b7f4e487b7100000000000000000000000000000000000000000000000000000000600052604160045260246000fd5b6124bf82612269565b810181811067ffffffffffffffff821117156124de576124dd612487565b5b80604052505050565b60006124f1612154565b90506124fd82826124b6565b919050565b600067ffffffffffffffff82111561251d5761251c612487565b5b61252682612269565b9050602081019050919050565b82818337600083830152505050565b600061255561255084612502565b6124e7565b90508281526020810184848401111561257157612570612482565b5b61257c848285612533565b509392505050565b600082601f8301126125995761259861247d565b5b81356125a9848260208601612542565b91505092915050565b6000602082840312156125c8576125c761215e565b5b600082013567ffffffffffffffff8111156125e6576125e5612163565b5b6125f284828501612584565b91505092915050565b612604816122d5565b82525050565b61261381612358565b82525050565b612622816121ed565b82525050565b60808201600082015161263e60008501826125fb565b50602082015161265160208501826125fb565b506040820151612664604085018261260a565b5060608201516126776060850182612619565b50505050565b60006080820190506126926000830184612628565b92915050565b6000602082840312156126ae576126ad61215e565b5b60006126bc848285016123ab565b91505092915050565b6126ce816121ed565b81146126d957600080fd5b50565b6000813590506126eb816126c5565b92915050565b600080604083850312156127085761270761215e565b5b6000612716858286016123ab565b9250506020612727858286016126dc565b9150509250929050565b600067ffffffffffffffff82111561274c5761274b612487565b5b61275582612269565b9050602081019050919050565b600061277561277084612731565b6124e7565b90508281526020810184848401111561279157612790612482565b5b61279c848285612533565b509392505050565b600082601f8301126127b9576127b861247d565b5b81356127c9848260208601612762565b91505092915050565b600080600080608085870312156127ec576127eb61215e565b5b60006127fa878288016123ab565b945050602061280b878288016123ab565b935050604061281c878288016122f6565b925050606085013567ffffffffffffffff81111561283d5761283c612163565b5b612849878288016127a4565b91505092959194509250565b6000806040838503121561286c5761286b61215e565b5b600083013567ffffffffffffffff81111561288a57612889612163565b5b61289685828601612584565b92505060206128a7858286016122f6565b9150509250929050565b600080604083850312156128c8576128c761215e565b5b60006128d6858286016123ab565b92505060206128e7858286016123ab565b9150509250929050565b7f4e487b7100000000000000000000000000000000000000000000000000000000600052602260045260246000fd5b6000600282049050600182168061293857607f821691505b60208210810361294b5761294a6128f1565b5b50919050565b7f4552433732313a20617070726f76616c20746f2063757272656e74206f776e6560008201527f7200000000000000000000000000000000000000000000000000000000000000602082015250565b60006129ad60218361222e565b91506129b882612951565b604082019050919050565b600060208201905081810360008301526129dc816129a0565b9050919050565b7f4552433732313a20617070726f76652063616c6c6572206973206e6f7420746f60008201527f6b656e206f776e6572206f7220617070726f76656420666f7220616c6c000000602082015250565b6000612a3f603d8361222e565b9150612a4a826129e3565b604082019050919050565b60006020820190508181036000830152612a6e81612a32565b9050919050565b7f4552433732313a2063616c6c6572206973206e6f7420746f6b656e206f776e6560008201527f72206f7220617070726f76656400000000000000000000000000000000000000602082015250565b6000612ad1602d8361222e565b9150612adc82612a75565b604082019050919050565b60006020820190508181036000830152612b0081612ac4565b9050919050565b600081905092915050565b6000612b1d82612223565b612b278185612b07565b9350612b3781856020860161223f565b80840191505092915050565b6000612b4f8284612b12565b915081905092915050565b7f596f7520616c7265616479206f776e2074686973204e46540000000000000000600082015250565b6000612b9060188361222e565b9150612b9b82612b5a565b602082019050919050565b60006020820190508181036000830152612bbf81612b83565b9050919050565b7f506c65617365207375626d6974207468652061736b696e672070726963650000600082015250565b6000612bfc601e8361222e565b9150612c0782612bc6565b602082019050919050565b60006020820190508181036000830152612c2b81612bef565b9050919050565b7f4552433732313a20696e76616c696420746f6b656e2049440000000000000000600082015250565b6000612c6860188361222e565b9150612c7382612c32565b602082019050919050565b60006020820190508181036000830152612c9781612c5b565b9050919050565b7f4552433732313a2061646472657373207a65726f206973206e6f74206120766160008201527f6c6964206f776e65720000000000000000000000000000000000000000000000602082015250565b6000612cfa60298361222e565b9150612d0582612c9e565b604082019050919050565b60006020820190508181036000830152612d2981612ced565b9050919050565b7f546f6b656e2055524920616c7265616479206578697374730000000000000000600082015250565b6000612d6660188361222e565b9150612d7182612d30565b602082019050919050565b60006020820190508181036000830152612d9581612d59565b9050919050565b7f5072696365206d75737420626520657175616c20746f206c697374696e67207060008201527f7269636500000000000000000000000000000000000000000000000000000000602082015250565b6000612df860248361222e565b9150612e0382612d9c565b604082019050919050565b60006020820190508181036000830152612e2781612deb565b9050919050565b6000612e3a8285612b12565b9150612e468284612b12565b91508190509392505050565b7f4552433732313a207472616e736665722066726f6d20696e636f72726563742060008201527f6f776e6572000000000000000000000000000000000000000000000000000000602082015250565b6000612eae60258361222e565b9150612eb982612e52565b604082019050919050565b60006020820190508181036000830152612edd81612ea1565b9050919050565b7f4552433732313a207472616e7366657220746f20746865207a65726f2061646460008201527f7265737300000000000000000000000000000000000000000000000000000000602082015250565b6000612f4060248361222e565b9150612f4b82612ee4565b604082019050919050565b60006020820190508181036000830152612f6f81612f33565b9050919050565b7f436f756e7465723a2064656372656d656e74206f766572666c6f770000000000600082015250565b6000612fac601b8361222e565b9150612fb782612f76565b602082019050919050565b60006020820190508181036000830152612fdb81612f9f565b9050919050565b7f4552433732313a20617070726f766520746f2063616c6c657200000000000000600082015250565b600061301860198361222e565b915061302382612fe2565b602082019050919050565b600060208201905081810360008301526130478161300b565b9050919050565b7f4552433732313a207472616e7366657220746f206e6f6e20455243373231526560008201527f63656976657220696d706c656d656e7465720000000000000000000000000000602082015250565b60006130aa60328361222e565b91506130b58261304e565b604082019050919050565b600060208201905081810360008301526130d98161309d565b9050919050565b7f45524337323155524953746f726167653a2055524920736574206f66206e6f6e60008201527f6578697374656e7420746f6b656e000000000000000000000000000000000000602082015250565b600061313c602e8361222e565b9150613147826130e0565b604082019050919050565b6000602082019050818103600083015261316b8161312f565b9050919050565b60008190508160005260206000209050919050565b60006020601f8301049050919050565b600082821b905092915050565b6000600883026131d47fffffffffffffffffffffffffffffffffffffffffffffffffffffffffffffffff82613197565b6131de8683613197565b95508019841693508086168417925050509392505050565b6000819050919050565b600061321b613216613211846122d5565b6131f6565b6122d5565b9050919050565b6000819050919050565b61323583613200565b61324961324182613222565b8484546131a4565b825550505050565b600090565b61325e613251565b61326981848461322c565b505050565b5b8181101561328d57613282600082613256565b60018101905061326f565b5050565b601f8211156132d2576132a381613172565b6132ac84613187565b810160208510156132bb578190505b6132cf6132c785613187565b83018261326e565b50505b505050565b600082821c905092915050565b60006132f5600019846008026132d7565b1980831691505092915050565b600061330e83836132e4565b9150826002028217905092915050565b61332782612223565b67ffffffffffffffff8111156133405761333f612487565b5b61334a8254612920565b613355828285613291565b600060209050601f8311600181146133885760008415613376578287015190505b6133808582613302565b8655506133e8565b601f19841661339686613172565b60005b828110156133be57848901518255600182019150602085019450602081019050613399565b868310156133db57848901516133d7601f8916826132e4565b8355505b6001600288020188555050505b505050505050565b7f5072696365206d757374206265206174206c6561737420312077656900000000600082015250565b6000613426601c8361222e565b9150613431826133f0565b602082019050919050565b6000602082019050818103600083015261345581613419565b9050919050565b60006080820190506134716000830187612453565b61347e6020830186612453565b61348b604083018561236a565b61349860608301846121f9565b95945050505050565b7f4e487b7100000000000000000000000000000000000000000000000000000000600052601160045260246000fd5b60006134db826122d5565b91506134e6836122d5565b92508282039050818111156134fe576134fd6134a1565b5b92915050565b600061350f826122d5565b915061351a836122d5565b9250828201905080821115613532576135316134a1565b5b92915050565b600081519050919050565b600082825260208201905092915050565b600061355f82613538565b6135698185613543565b935061357981856020860161223f565b61358281612269565b840191505092915050565b60006080820190506135a2600083018761236a565b6135af602083018661236a565b6135bc6040830185612453565b81810360608301526135ce8184613554565b905095945050505050565b6000815190506135e881612194565b92915050565b6000602082840312156136045761360361215e565b5b6000613612848285016135d9565b91505092915050565b7f4e487b7100000000000000000000000000000000000000000000000000000000600052601260045260246000fd5b7f4552433732313a206d696e7420746f20746865207a65726f2061646472657373600082015250565b600061368060208361222e565b915061368b8261364a565b602082019050919050565b600060208201905081810360008301526136af81613673565b9050919050565b7f4552433732313a20746f6b656e20616c7265616479206d696e74656400000000600082015250565b60006136ec601c8361222e565b91506136f7826136b6565b602082019050919050565b6000602082019050818103600083015261371b816136df565b905091905056fea26469706673582212202a7cc7a54e4087e20362f484e17c209d9eaa7aa0967c1f286b02a9b91285c5c564736f6c63430008120033",
  "immutableReferences": {},
  "source": "// SPDX-License-Identifier: MIT\npragma solidity 0.8.18;\n\nimport \"@openzeppelin/contracts/token/ERC721/extensions/ERC721URIStorage.sol\";\nimport \"@openzeppelin/contracts/utils/Counters.sol\";\n\ncontract NFTMarket is ERC721URIStorage {\n\n  using Counters for Counters.Counter;\n\n  Counters.Counter private _listedItems; //How many NFTs are listed\n  Counters.Counter private _tokenIds; //How many NFTs created in total\n\n    struct NFTItem {\n    uint tokenId;\n    uint price;\n    address creator;\n    bool isListed;\n  }\n\n  uint public listingPrice = 0.025 ether;\n\n  mapping(string => bool) private _usedTokenURIs;\n  mapping(uint => NFTItem) private _idToNFTItem;\n\n  event NFTItemCreated (\n    uint tokenId,\n    uint price,\n    address creator,\n    bool isListed\n  );\n\n  constructor() ERC721(\"CreaturesNFT\", \"CNFT\") {}\n\n  function  mintToken(string memory tokenURI, uint price) public payable returns (uint) {\n\n    require(!tokenURIExists(tokenURI), \"Token URI already exists\");\n    require(msg.value == listingPrice, \"Price must be equal to listing price\");\n\n    _tokenIds.increment();\n    _listedItems.increment();\n\n    uint newTokenId = _tokenIds.current();\n\n    _safeMint(msg.sender, newTokenId);\n    _setTokenURI(newTokenId, tokenURI);\n    _createNFTItem(newTokenId, price);\n    _usedTokenURIs[tokenURI] = true;\n\n    return newTokenId;\n  }\n\n  function buyNFT(uint tokenId) public payable {\n    uint price = _idToNFTItem[tokenId].price;\n    address owner = ownerOf(tokenId);\n\n    require(msg.sender != owner, \"You already own this NFT\");\n    require(msg.value == price,  \"Please submit the asking price\");\n\n    _idToNFTItem[tokenId].isListed = false;\n    _listedItems.decrement();\n\n    _transfer(owner, msg.sender, tokenId);\n    payable(owner).transfer(msg.value);\n  }\n\n  function _createNFTItem(uint tokenId, uint price) private {\n    require(price > 0, \"Price must be at least 1 wei\");\n    _idToNFTItem[tokenId] = NFTItem(tokenId, price, msg.sender, true);\n\n    emit NFTItemCreated(tokenId, price, msg.sender, true);\n  }\n\n  function getNFTItem(uint tokenId) public view returns (NFTItem memory) {\n    return _idToNFTItem[tokenId];\n  }\n\n  function getListedItemsCount() public view returns (uint) {\n    return _listedItems.current();\n  }\n\n  function tokenURIExists(string memory tokenURI) public view returns (bool) {\n    return _usedTokenURIs[tokenURI] == true;\n  }\n}",
  "sourcePath": "/Users/michaelmburu/Documents/Visual Studio Code/React/NFT Marketplace/nft-marketplace/contracts/NFTMarket.sol",
  "compiler": {
    "name": "solc",
    "version": "0.8.18+commit.87f61d96.Emscripten.clang"
  },
  "schemaVersion": "3.4.11",
  "updatedAt": "2023-02-21T16:36:30.908Z",
  "devdoc": {
    "events": {
      "Approval(address,address,uint256)": {
        "details": "Emitted when `owner` enables `approved` to manage the `tokenId` token."
      },
      "ApprovalForAll(address,address,bool)": {
        "details": "Emitted when `owner` enables or disables (`approved`) `operator` to manage all of its assets."
      },
      "Transfer(address,address,uint256)": {
        "details": "Emitted when `tokenId` token is transferred from `from` to `to`."
      }
    },
    "kind": "dev",
    "methods": {
      "approve(address,uint256)": {
        "details": "See {IERC721-approve}."
      },
      "balanceOf(address)": {
        "details": "See {IERC721-balanceOf}."
      },
      "getApproved(uint256)": {
        "details": "See {IERC721-getApproved}."
      },
      "isApprovedForAll(address,address)": {
        "details": "See {IERC721-isApprovedForAll}."
      },
      "name()": {
        "details": "See {IERC721Metadata-name}."
      },
      "ownerOf(uint256)": {
        "details": "See {IERC721-ownerOf}."
      },
      "safeTransferFrom(address,address,uint256)": {
        "details": "See {IERC721-safeTransferFrom}."
      },
      "safeTransferFrom(address,address,uint256,bytes)": {
        "details": "See {IERC721-safeTransferFrom}."
      },
      "setApprovalForAll(address,bool)": {
        "details": "See {IERC721-setApprovalForAll}."
      },
      "supportsInterface(bytes4)": {
        "details": "See {IERC165-supportsInterface}."
      },
      "symbol()": {
        "details": "See {IERC721Metadata-symbol}."
      },
      "tokenURI(uint256)": {
        "details": "See {IERC721Metadata-tokenURI}."
      },
      "transferFrom(address,address,uint256)": {
        "details": "See {IERC721-transferFrom}."
      }
    },
    "version": 1
  },
  "userdoc": {
    "kind": "user",
    "methods": {},
    "version": 1
  }
}