{
  "contractName": "NFTMarket",
  "abi": [
    {
      "inputs": [],
      "stateMutability": "nonpayable",
      "type": "constructor"
    },
    {
      "anonymous": false,
      "inputs": [
        {
          "indexed": true,
          "internalType": "address",
          "name": "owner",
          "type": "address"
        },
        {
          "indexed": true,
          "internalType": "address",
          "name": "approved",
          "type": "address"
        },
        {
          "indexed": true,
          "internalType": "uint256",
          "name": "tokenId",
          "type": "uint256"
        }
      ],
      "name": "Approval",
      "type": "event"
    },
    {
      "anonymous": false,
      "inputs": [
        {
          "indexed": true,
          "internalType": "address",
          "name": "owner",
          "type": "address"
        },
        {
          "indexed": true,
          "internalType": "address",
          "name": "operator",
          "type": "address"
        },
        {
          "indexed": false,
          "internalType": "bool",
          "name": "approved",
          "type": "bool"
        }
      ],
      "name": "ApprovalForAll",
      "type": "event"
    },
    {
      "anonymous": false,
      "inputs": [
        {
          "indexed": false,
          "internalType": "uint256",
          "name": "tokenId",
          "type": "uint256"
        },
        {
          "indexed": false,
          "internalType": "uint256",
          "name": "price",
          "type": "uint256"
        },
        {
          "indexed": false,
          "internalType": "address",
          "name": "creator",
          "type": "address"
        },
        {
          "indexed": false,
          "internalType": "bool",
          "name": "isListed",
          "type": "bool"
        }
      ],
      "name": "NFTItemCreated",
      "type": "event"
    },
    {
      "anonymous": false,
      "inputs": [
        {
          "indexed": true,
          "internalType": "address",
          "name": "from",
          "type": "address"
        },
        {
          "indexed": true,
          "internalType": "address",
          "name": "to",
          "type": "address"
        },
        {
          "indexed": true,
          "internalType": "uint256",
          "name": "tokenId",
          "type": "uint256"
        }
      ],
      "name": "Transfer",
      "type": "event"
    },
    {
      "inputs": [
        {
          "internalType": "address",
          "name": "to",
          "type": "address"
        },
        {
          "internalType": "uint256",
          "name": "tokenId",
          "type": "uint256"
        }
      ],
      "name": "approve",
      "outputs": [],
      "stateMutability": "nonpayable",
      "type": "function"
    },
    {
      "inputs": [
        {
          "internalType": "address",
          "name": "owner",
          "type": "address"
        }
      ],
      "name": "balanceOf",
      "outputs": [
        {
          "internalType": "uint256",
          "name": "",
          "type": "uint256"
        }
      ],
      "stateMutability": "view",
      "type": "function"
    },
    {
      "inputs": [
        {
          "internalType": "uint256",
          "name": "tokenId",
          "type": "uint256"
        }
      ],
      "name": "getApproved",
      "outputs": [
        {
          "internalType": "address",
          "name": "",
          "type": "address"
        }
      ],
      "stateMutability": "view",
      "type": "function"
    },
    {
      "inputs": [
        {
          "internalType": "address",
          "name": "owner",
          "type": "address"
        },
        {
          "internalType": "address",
          "name": "operator",
          "type": "address"
        }
      ],
      "name": "isApprovedForAll",
      "outputs": [
        {
          "internalType": "bool",
          "name": "",
          "type": "bool"
        }
      ],
      "stateMutability": "view",
      "type": "function"
    },
    {
      "inputs": [],
      "name": "listingPrice",
      "outputs": [
        {
          "internalType": "uint256",
          "name": "",
          "type": "uint256"
        }
      ],
      "stateMutability": "view",
      "type": "function"
    },
    {
      "inputs": [],
      "name": "name",
      "outputs": [
        {
          "internalType": "string",
          "name": "",
          "type": "string"
        }
      ],
      "stateMutability": "view",
      "type": "function"
    },
    {
      "inputs": [
        {
          "internalType": "uint256",
          "name": "tokenId",
          "type": "uint256"
        }
      ],
      "name": "ownerOf",
      "outputs": [
        {
          "internalType": "address",
          "name": "",
          "type": "address"
        }
      ],
      "stateMutability": "view",
      "type": "function"
    },
    {
      "inputs": [
        {
          "internalType": "address",
          "name": "from",
          "type": "address"
        },
        {
          "internalType": "address",
          "name": "to",
          "type": "address"
        },
        {
          "internalType": "uint256",
          "name": "tokenId",
          "type": "uint256"
        }
      ],
      "name": "safeTransferFrom",
      "outputs": [],
      "stateMutability": "nonpayable",
      "type": "function"
    },
    {
      "inputs": [
        {
          "internalType": "address",
          "name": "from",
          "type": "address"
        },
        {
          "internalType": "address",
          "name": "to",
          "type": "address"
        },
        {
          "internalType": "uint256",
          "name": "tokenId",
          "type": "uint256"
        },
        {
          "internalType": "bytes",
          "name": "data",
          "type": "bytes"
        }
      ],
      "name": "safeTransferFrom",
      "outputs": [],
      "stateMutability": "nonpayable",
      "type": "function"
    },
    {
      "inputs": [
        {
          "internalType": "address",
          "name": "operator",
          "type": "address"
        },
        {
          "internalType": "bool",
          "name": "approved",
          "type": "bool"
        }
      ],
      "name": "setApprovalForAll",
      "outputs": [],
      "stateMutability": "nonpayable",
      "type": "function"
    },
    {
      "inputs": [
        {
          "internalType": "bytes4",
          "name": "interfaceId",
          "type": "bytes4"
        }
      ],
      "name": "supportsInterface",
      "outputs": [
        {
          "internalType": "bool",
          "name": "",
          "type": "bool"
        }
      ],
      "stateMutability": "view",
      "type": "function"
    },
    {
      "inputs": [],
      "name": "symbol",
      "outputs": [
        {
          "internalType": "string",
          "name": "",
          "type": "string"
        }
      ],
      "stateMutability": "view",
      "type": "function"
    },
    {
      "inputs": [
        {
          "internalType": "uint256",
          "name": "tokenId",
          "type": "uint256"
        }
      ],
      "name": "tokenURI",
      "outputs": [
        {
          "internalType": "string",
          "name": "",
          "type": "string"
        }
      ],
      "stateMutability": "view",
      "type": "function"
    },
    {
      "inputs": [
        {
          "internalType": "address",
          "name": "from",
          "type": "address"
        },
        {
          "internalType": "address",
          "name": "to",
          "type": "address"
        },
        {
          "internalType": "uint256",
          "name": "tokenId",
          "type": "uint256"
        }
      ],
      "name": "transferFrom",
      "outputs": [],
      "stateMutability": "nonpayable",
      "type": "function"
    },
    {
      "inputs": [
        {
          "internalType": "string",
          "name": "tokenURI",
          "type": "string"
        },
        {
          "internalType": "uint256",
          "name": "price",
          "type": "uint256"
        }
      ],
      "name": "mintToken",
      "outputs": [
        {
          "internalType": "uint256",
          "name": "",
          "type": "uint256"
        }
      ],
      "stateMutability": "payable",
      "type": "function"
    },
    {
      "inputs": [
        {
          "internalType": "uint256",
          "name": "tokenId",
          "type": "uint256"
        }
      ],
      "name": "buyNFT",
      "outputs": [],
      "stateMutability": "payable",
      "type": "function"
    },
    {
      "inputs": [],
      "name": "getOwnedNFTs",
      "outputs": [
        {
          "components": [
            {
              "internalType": "uint256",
              "name": "tokenId",
              "type": "uint256"
            },
            {
              "internalType": "uint256",
              "name": "price",
              "type": "uint256"
            },
            {
              "internalType": "address",
              "name": "creator",
              "type": "address"
            },
            {
              "internalType": "bool",
              "name": "isListed",
              "type": "bool"
            }
          ],
          "internalType": "struct NFTMarket.NFTItem[]",
          "name": "",
          "type": "tuple[]"
        }
      ],
      "stateMutability": "view",
      "type": "function"
    },
    {
      "inputs": [],
      "name": "getAllNFTsOnSale",
      "outputs": [
        {
          "components": [
            {
              "internalType": "uint256",
              "name": "tokenId",
              "type": "uint256"
            },
            {
              "internalType": "uint256",
              "name": "price",
              "type": "uint256"
            },
            {
              "internalType": "address",
              "name": "creator",
              "type": "address"
            },
            {
              "internalType": "bool",
              "name": "isListed",
              "type": "bool"
            }
          ],
          "internalType": "struct NFTMarket.NFTItem[]",
          "name": "",
          "type": "tuple[]"
        }
      ],
      "stateMutability": "view",
      "type": "function"
    },
    {
      "inputs": [],
      "name": "totalSupply",
      "outputs": [
        {
          "internalType": "uint256",
          "name": "",
          "type": "uint256"
        }
      ],
      "stateMutability": "view",
      "type": "function"
    },
    {
      "inputs": [
        {
          "internalType": "uint256",
          "name": "index",
          "type": "uint256"
        }
      ],
      "name": "tokenByIndex",
      "outputs": [
        {
          "internalType": "uint256",
          "name": "",
          "type": "uint256"
        }
      ],
      "stateMutability": "view",
      "type": "function"
    },
    {
      "inputs": [
        {
          "internalType": "address",
          "name": "owner",
          "type": "address"
        },
        {
          "internalType": "uint256",
          "name": "index",
          "type": "uint256"
        }
      ],
      "name": "tokenOfOwnerByIndex",
      "outputs": [
        {
          "internalType": "uint256",
          "name": "",
          "type": "uint256"
        }
      ],
      "stateMutability": "view",
      "type": "function"
    },
    {
      "inputs": [
        {
          "internalType": "uint256",
          "name": "tokenId",
          "type": "uint256"
        }
      ],
      "name": "getNFTItem",
      "outputs": [
        {
          "components": [
            {
              "internalType": "uint256",
              "name": "tokenId",
              "type": "uint256"
            },
            {
              "internalType": "uint256",
              "name": "price",
              "type": "uint256"
            },
            {
              "internalType": "address",
              "name": "creator",
              "type": "address"
            },
            {
              "internalType": "bool",
              "name": "isListed",
              "type": "bool"
            }
          ],
          "internalType": "struct NFTMarket.NFTItem",
          "name": "",
          "type": "tuple"
        }
      ],
      "stateMutability": "view",
      "type": "function"
    },
    {
      "inputs": [],
      "name": "getListedItemsCount",
      "outputs": [
        {
          "internalType": "uint256",
          "name": "",
          "type": "uint256"
        }
      ],
      "stateMutability": "view",
      "type": "function"
    },
    {
      "inputs": [
        {
          "internalType": "string",
          "name": "tokenURI",
          "type": "string"
        }
      ],
      "name": "tokenURIExists",
      "outputs": [
        {
          "internalType": "bool",
          "name": "",
          "type": "bool"
        }
      ],
      "stateMutability": "view",
      "type": "function"
    }
  ],
  "bytecode": "0x60806040526658d15e176280006009553480156200001c57600080fd5b506040518060400160405280600c81526020017f4372656174757265734e465400000000000000000000000000000000000000008152506040518060400160405280600481526020017f434e46540000000000000000000000000000000000000000000000000000000081525081600090816200009a91906200032f565b508060019081620000ac91906200032f565b50505062000416565b600081519050919050565b7f4e487b7100000000000000000000000000000000000000000000000000000000600052604160045260246000fd5b7f4e487b7100000000000000000000000000000000000000000000000000000000600052602260045260246000fd5b600060028204905060018216806200013757607f821691505b6020821081036200014d576200014c620000ef565b5b50919050565b60008190508160005260206000209050919050565b60006020601f8301049050919050565b600082821b905092915050565b600060088302620001b77fffffffffffffffffffffffffffffffffffffffffffffffffffffffffffffffff8262000178565b620001c3868362000178565b95508019841693508086168417925050509392505050565b6000819050919050565b6000819050919050565b6000620002106200020a6200020484620001db565b620001e5565b620001db565b9050919050565b6000819050919050565b6200022c83620001ef565b620002446200023b8262000217565b84845462000185565b825550505050565b600090565b6200025b6200024c565b6200026881848462000221565b505050565b5b8181101562000290576200028460008262000251565b6001810190506200026e565b5050565b601f821115620002df57620002a98162000153565b620002b48462000168565b81016020851015620002c4578190505b620002dc620002d38562000168565b8301826200026d565b50505b505050565b600082821c905092915050565b60006200030460001984600802620002e4565b1980831691505092915050565b60006200031f8383620002f1565b9150826002028217905092915050565b6200033a82620000b5565b67ffffffffffffffff811115620003565762000355620000c0565b5b6200036282546200011e565b6200036f82828562000294565b600060209050601f831160018114620003a7576000841562000392578287015190505b6200039e858262000311565b8655506200040e565b601f198416620003b78662000153565b60005b82811015620003e157848901518255600182019150602085019450602081019050620003ba565b86831015620004015784890151620003fd601f891682620002f1565b8355505b6001600288020188555050505b505050505050565b6141ba80620004266000396000f3fe60806040526004361061014b5760003560e01c806351ed8288116100b6578063b88d4fde1161006f578063b88d4fde146104cf578063c046372c146104f8578063c78f19f914610528578063c87b56dd14610553578063e985e9c514610590578063f0be4fac146105cd5761014b565b806351ed8288146103a85780636352211e146103c45780636a3ceff91461040157806370a082311461043e57806395d89b411461047b578063a22cb465146104a65761014b565b80632f745c59116101085780632f745c591461027257806333353f48146102af57806342842e0e146102da57806343d32ae7146103035780634c0eb7d9146103405780634f6ccce71461036b5761014b565b806301ffc9a71461015057806306fdde031461018d578063081812fc146101b8578063095ea7b3146101f557806318160ddd1461021e57806323b872dd14610249575b600080fd5b34801561015c57600080fd5b5061017760048036038101906101729190612a19565b6105f8565b6040516101849190612a61565b60405180910390f35b34801561019957600080fd5b506101a26106da565b6040516101af9190612b0c565b60405180910390f35b3480156101c457600080fd5b506101df60048036038101906101da9190612b64565b61076c565b6040516101ec9190612bd2565b60405180910390f35b34801561020157600080fd5b5061021c60048036038101906102179190612c19565b6107b2565b005b34801561022a57600080fd5b506102336108c9565b6040516102409190612c68565b60405180910390f35b34801561025557600080fd5b50610270600480360381019061026b9190612c83565b6108d6565b005b34801561027e57600080fd5b5061029960048036038101906102949190612c19565b610936565b6040516102a69190612c68565b60405180910390f35b3480156102bb57600080fd5b506102c46109db565b6040516102d19190612c68565b60405180910390f35b3480156102e657600080fd5b5061030160048036038101906102fc9190612c83565b6109ec565b005b34801561030f57600080fd5b5061032a60048036038101906103259190612e0b565b610a0c565b6040516103379190612a61565b60405180910390f35b34801561034c57600080fd5b50610355610a48565b6040516103629190612f85565b60405180910390f35b34801561037757600080fd5b50610392600480360381019061038d9190612b64565b610bac565b60405161039f9190612c68565b60405180910390f35b6103c260048036038101906103bd9190612b64565b610c1d565b005b3480156103d057600080fd5b506103eb60048036038101906103e69190612b64565b610d85565b6040516103f89190612bd2565b60405180910390f35b34801561040d57600080fd5b5061042860048036038101906104239190612b64565b610e0b565b6040516104359190612ffc565b60405180910390f35b34801561044a57600080fd5b5061046560048036038101906104609190613017565b610ebd565b6040516104729190612c68565b60405180910390f35b34801561048757600080fd5b50610490610f74565b60405161049d9190612b0c565b60405180910390f35b3480156104b257600080fd5b506104cd60048036038101906104c89190613070565b611006565b005b3480156104db57600080fd5b506104f660048036038101906104f19190613151565b61101c565b005b610512600480360381019061050d91906131d4565b61107e565b60405161051f9190612c68565b60405180910390f35b34801561053457600080fd5b5061053d61118e565b60405161054a9190612c68565b60405180910390f35b34801561055f57600080fd5b5061057a60048036038101906105759190612b64565b611194565b6040516105879190612b0c565b60405180910390f35b34801561059c57600080fd5b506105b760048036038101906105b29190613230565b6112a6565b6040516105c49190612a61565b60405180910390f35b3480156105d957600080fd5b506105e261133a565b6040516105ef9190612f85565b60405180910390f35b60007f80ac58cd000000000000000000000000000000000000000000000000000000007bffffffffffffffffffffffffffffffffffffffffffffffffffffffff1916827bffffffffffffffffffffffffffffffffffffffffffffffffffffffff191614806106c357507f5b5e139f000000000000000000000000000000000000000000000000000000007bffffffffffffffffffffffffffffffffffffffffffffffffffffffff1916827bffffffffffffffffffffffffffffffffffffffffffffffffffffffff1916145b806106d357506106d2826114d4565b5b9050919050565b6060600080546106e99061329f565b80601f01602080910402602001604051908101604052809291908181526020018280546107159061329f565b80156107625780601f1061073757610100808354040283529160200191610762565b820191906000526020600020905b81548152906001019060200180831161074557829003601f168201915b5050505050905090565b60006107778261153e565b6004600083815260200190815260200160002060009054906101000a900473ffffffffffffffffffffffffffffffffffffffff169050919050565b60006107bd82610d85565b90508073ffffffffffffffffffffffffffffffffffffffff168373ffffffffffffffffffffffffffffffffffffffff160361082d576040517f08c379a000000000000000000000000000000000000000000000000000000000815260040161082490613342565b60405180910390fd5b8073ffffffffffffffffffffffffffffffffffffffff1661084c611589565b73ffffffffffffffffffffffffffffffffffffffff16148061087b575061087a81610875611589565b6112a6565b5b6108ba576040517f08c379a00000000000000000000000000000000000000000000000000000000081526004016108b1906133d4565b60405180910390fd5b6108c48383611591565b505050565b6000600e80549050905090565b6108e76108e1611589565b8261164a565b610926576040517f08c379a000000000000000000000000000000000000000000000000000000000815260040161091d90613466565b60405180910390fd5b6109318383836116df565b505050565b600061094183610ebd565b8210610982576040517f08c379a0000000000000000000000000000000000000000000000000000000008152600401610979906134d2565b60405180910390fd5b600c60008473ffffffffffffffffffffffffffffffffffffffff1673ffffffffffffffffffffffffffffffffffffffff168152602001908152602001600020600083815260200190815260200160002054905092915050565b60006109e760076119d8565b905090565b610a078383836040518060200160405280600081525061101c565b505050565b600060011515600a83604051610a22919061352e565b908152602001604051809103902060009054906101000a900460ff161515149050919050565b60606000610a5533610ebd565b905060008167ffffffffffffffff811115610a7357610a72612ce0565b5b604051908082528060200260200182016040528015610aac57816020015b610a9961296d565b815260200190600190039081610a915790505b50905060005b82811015610ba3576000610ac63383610936565b90506000600b600083815260200190815260200160002090508060405180608001604052908160008201548152602001600182015481526020016002820160009054906101000a900473ffffffffffffffffffffffffffffffffffffffff1673ffffffffffffffffffffffffffffffffffffffff1673ffffffffffffffffffffffffffffffffffffffff1681526020016002820160149054906101000a900460ff161515151581525050848481518110610b8357610b82613545565b5b602002602001018190525050508080610b9b906135a3565b915050610ab2565b50809250505090565b6000610bb66108c9565b8210610bf7576040517f08c379a0000000000000000000000000000000000000000000000000000000008152600401610bee906134d2565b60405180910390fd5b600e8281548110610c0b57610c0a613545565b5b90600052602060002001549050919050565b6000600b60008381526020019081526020016000206001015490506000610c4383610d85565b90508073ffffffffffffffffffffffffffffffffffffffff163373ffffffffffffffffffffffffffffffffffffffff1603610cb3576040517f08c379a0000000000000000000000000000000000000000000000000000000008152600401610caa90613637565b60405180910390fd5b813414610cf5576040517f08c379a0000000000000000000000000000000000000000000000000000000008152600401610cec906136a3565b60405180910390fd5b6000600b600085815260200190815260200160002060020160146101000a81548160ff021916908315150217905550610d2e60076119e6565b610d398133856116df565b8073ffffffffffffffffffffffffffffffffffffffff166108fc349081150290604051600060405180830381858888f19350505050158015610d7f573d6000803e3d6000fd5b50505050565b600080610d9183611a42565b9050600073ffffffffffffffffffffffffffffffffffffffff168173ffffffffffffffffffffffffffffffffffffffff1603610e02576040517f08c379a0000000000000000000000000000000000000000000000000000000008152600401610df99061370f565b60405180910390fd5b80915050919050565b610e1361296d565b600b600083815260200190815260200160002060405180608001604052908160008201548152602001600182015481526020016002820160009054906101000a900473ffffffffffffffffffffffffffffffffffffffff1673ffffffffffffffffffffffffffffffffffffffff1673ffffffffffffffffffffffffffffffffffffffff1681526020016002820160149054906101000a900460ff1615151515815250509050919050565b60008073ffffffffffffffffffffffffffffffffffffffff168273ffffffffffffffffffffffffffffffffffffffff1603610f2d576040517f08c379a0000000000000000000000000000000000000000000000000000000008152600401610f24906137a1565b60405180910390fd5b600360008373ffffffffffffffffffffffffffffffffffffffff1673ffffffffffffffffffffffffffffffffffffffff168152602001908152602001600020549050919050565b606060018054610f839061329f565b80601f0160208091040260200160405190810160405280929190818152602001828054610faf9061329f565b8015610ffc5780601f10610fd157610100808354040283529160200191610ffc565b820191906000526020600020905b815481529060010190602001808311610fdf57829003601f168201915b5050505050905090565b611018611011611589565b8383611a7f565b5050565b61102d611027611589565b8361164a565b61106c576040517f08c379a000000000000000000000000000000000000000000000000000000000815260040161106390613466565b60405180910390fd5b61107884848484611beb565b50505050565b600061108983610a0c565b156110c9576040517f08c379a00000000000000000000000000000000000000000000000000000000081526004016110c09061380d565b60405180910390fd5b600954341461110d576040517f08c379a00000000000000000000000000000000000000000000000000000000081526004016111049061389f565b60405180910390fd5b6111176008611c47565b6111216007611c47565b600061112d60086119d8565b90506111393382611c5d565b6111438185611c7b565b61114d8184611ce8565b6001600a8560405161115f919061352e565b908152602001604051809103902060006101000a81548160ff0219169083151502179055508091505092915050565b60095481565b606061119f8261153e565b60006006600084815260200190815260200160002080546111bf9061329f565b80601f01602080910402602001604051908101604052809291908181526020018280546111eb9061329f565b80156112385780601f1061120d57610100808354040283529160200191611238565b820191906000526020600020905b81548152906001019060200180831161121b57829003601f168201915b505050505090506000611249611e38565b9050600081510361125e5781925050506112a1565b60008251111561129357808260405160200161127b9291906138bf565b604051602081830303815290604052925050506112a1565b61129c84611e4f565b925050505b919050565b6000600560008473ffffffffffffffffffffffffffffffffffffffff1673ffffffffffffffffffffffffffffffffffffffff16815260200190815260200160002060008373ffffffffffffffffffffffffffffffffffffffff1673ffffffffffffffffffffffffffffffffffffffff16815260200190815260200160002060009054906101000a900460ff16905092915050565b606060006113466108c9565b905060008061135560076119d8565b67ffffffffffffffff81111561136e5761136d612ce0565b5b6040519080825280602002602001820160405280156113a757816020015b61139461296d565b81526020019060019003908161138c5790505b50905060005b838110156114ca5760006113c082610bac565b90506000600b60008381526020019081526020016000209050600115158160020160149054906101000a900460ff161515036114b5578060405180608001604052908160008201548152602001600182015481526020016002820160009054906101000a900473ffffffffffffffffffffffffffffffffffffffff1673ffffffffffffffffffffffffffffffffffffffff1673ffffffffffffffffffffffffffffffffffffffff1681526020016002820160149054906101000a900460ff16151515158152505084868151811061149a57611499613545565b5b60200260200101819052506001856114b291906138e3565b94505b505080806114c2906135a3565b9150506113ad565b5080935050505090565b60007f01ffc9a7000000000000000000000000000000000000000000000000000000007bffffffffffffffffffffffffffffffffffffffffffffffffffffffff1916827bffffffffffffffffffffffffffffffffffffffffffffffffffffffff1916149050919050565b61154781611eb7565b611586576040517f08c379a000000000000000000000000000000000000000000000000000000000815260040161157d9061370f565b60405180910390fd5b50565b600033905090565b816004600083815260200190815260200160002060006101000a81548173ffffffffffffffffffffffffffffffffffffffff021916908373ffffffffffffffffffffffffffffffffffffffff160217905550808273ffffffffffffffffffffffffffffffffffffffff1661160483610d85565b73ffffffffffffffffffffffffffffffffffffffff167f8c5be1e5ebec7d5bd14f71427d1e84f3dd0314c0f7b2291e5b200ac8c7c3b92560405160405180910390a45050565b60008061165683610d85565b90508073ffffffffffffffffffffffffffffffffffffffff168473ffffffffffffffffffffffffffffffffffffffff161480611698575061169781856112a6565b5b806116d657508373ffffffffffffffffffffffffffffffffffffffff166116be8461076c565b73ffffffffffffffffffffffffffffffffffffffff16145b91505092915050565b8273ffffffffffffffffffffffffffffffffffffffff166116ff82610d85565b73ffffffffffffffffffffffffffffffffffffffff1614611755576040517f08c379a000000000000000000000000000000000000000000000000000000000815260040161174c90613989565b60405180910390fd5b600073ffffffffffffffffffffffffffffffffffffffff168273ffffffffffffffffffffffffffffffffffffffff16036117c4576040517f08c379a00000000000000000000000000000000000000000000000000000000081526004016117bb90613a1b565b60405180910390fd5b6117d18383836001611ef8565b8273ffffffffffffffffffffffffffffffffffffffff166117f182610d85565b73ffffffffffffffffffffffffffffffffffffffff1614611847576040517f08c379a000000000000000000000000000000000000000000000000000000000815260040161183e90613989565b60405180910390fd5b6004600082815260200190815260200160002060006101000a81549073ffffffffffffffffffffffffffffffffffffffff02191690556001600360008573ffffffffffffffffffffffffffffffffffffffff1673ffffffffffffffffffffffffffffffffffffffff168152602001908152602001600020600082825403925050819055506001600360008473ffffffffffffffffffffffffffffffffffffffff1673ffffffffffffffffffffffffffffffffffffffff16815260200190815260200160002060008282540192505081905550816002600083815260200190815260200160002060006101000a81548173ffffffffffffffffffffffffffffffffffffffff021916908373ffffffffffffffffffffffffffffffffffffffff160217905550808273ffffffffffffffffffffffffffffffffffffffff168473ffffffffffffffffffffffffffffffffffffffff167fddf252ad1be2c89b69c2b068fc378daa952ba7f163c4a11628f55a4df523b3ef60405160405180910390a46119d38383836001611fc9565b505050565b600081600001549050919050565b60008160000154905060008111611a32576040517f08c379a0000000000000000000000000000000000000000000000000000000008152600401611a2990613a87565b60405180910390fd5b6001810382600001819055505050565b60006002600083815260200190815260200160002060009054906101000a900473ffffffffffffffffffffffffffffffffffffffff169050919050565b8173ffffffffffffffffffffffffffffffffffffffff168373ffffffffffffffffffffffffffffffffffffffff1603611aed576040517f08c379a0000000000000000000000000000000000000000000000000000000008152600401611ae490613af3565b60405180910390fd5b80600560008573ffffffffffffffffffffffffffffffffffffffff1673ffffffffffffffffffffffffffffffffffffffff16815260200190815260200160002060008473ffffffffffffffffffffffffffffffffffffffff1673ffffffffffffffffffffffffffffffffffffffff16815260200190815260200160002060006101000a81548160ff0219169083151502179055508173ffffffffffffffffffffffffffffffffffffffff168373ffffffffffffffffffffffffffffffffffffffff167f17307eab39ab6107e8899845ad3d59bd9653f200f220920489ca2b5937696c3183604051611bde9190612a61565b60405180910390a3505050565b611bf68484846116df565b611c0284848484611fcf565b611c41576040517f08c379a0000000000000000000000000000000000000000000000000000000008152600401611c3890613b85565b60405180910390fd5b50505050565b6001816000016000828254019250508190555050565b611c77828260405180602001604052806000815250612156565b5050565b611c8482611eb7565b611cc3576040517f08c379a0000000000000000000000000000000000000000000000000000000008152600401611cba90613c17565b60405180910390fd5b80600660008481526020019081526020016000209081611ce39190613de3565b505050565b60008111611d2b576040517f08c379a0000000000000000000000000000000000000000000000000000000008152600401611d2290613f01565b60405180910390fd5b60405180608001604052808381526020018281526020013373ffffffffffffffffffffffffffffffffffffffff16815260200160011515815250600b6000848152602001908152602001600020600082015181600001556020820151816001015560408201518160020160006101000a81548173ffffffffffffffffffffffffffffffffffffffff021916908373ffffffffffffffffffffffffffffffffffffffff16021790555060608201518160020160146101000a81548160ff0219169083151502179055509050507f43f35c7892cef3db6314a5b129e161ca0731bb9e4a5d4f7244b605bb7b65b1158282336001604051611e2c9493929190613f21565b60405180910390a15050565b606060405180602001604052806000815250905090565b6060611e5a8261153e565b6000611e64611e38565b90506000815111611e845760405180602001604052806000815250611eaf565b80611e8e846121b1565b604051602001611e9f9291906138bf565b6040516020818303038152906040525b915050919050565b60008073ffffffffffffffffffffffffffffffffffffffff16611ed983611a42565b73ffffffffffffffffffffffffffffffffffffffff1614159050919050565b611f048484848461227f565b600073ffffffffffffffffffffffffffffffffffffffff168473ffffffffffffffffffffffffffffffffffffffff1603611f4657611f41826123a5565b611f85565b8273ffffffffffffffffffffffffffffffffffffffff168473ffffffffffffffffffffffffffffffffffffffff1614611f8457611f8384836123ee565b5b5b8373ffffffffffffffffffffffffffffffffffffffff168373ffffffffffffffffffffffffffffffffffffffff1614611fc357611fc2838361255b565b5b50505050565b50505050565b6000611ff08473ffffffffffffffffffffffffffffffffffffffff166125da565b15612149578373ffffffffffffffffffffffffffffffffffffffff1663150b7a02612019611589565b8786866040518563ffffffff1660e01b815260040161203b9493929190613fbb565b6020604051808303816000875af192505050801561207757506040513d601f19601f82011682018060405250810190612074919061401c565b60015b6120f9573d80600081146120a7576040519150601f19603f3d011682016040523d82523d6000602084013e6120ac565b606091505b5060008151036120f1576040517f08c379a00000000000000000000000000000000000000000000000000000000081526004016120e890613b85565b60405180910390fd5b805181602001fd5b63150b7a0260e01b7bffffffffffffffffffffffffffffffffffffffffffffffffffffffff1916817bffffffffffffffffffffffffffffffffffffffffffffffffffffffff19161491505061214e565b600190505b949350505050565b61216083836125fd565b61216d6000848484611fcf565b6121ac576040517f08c379a00000000000000000000000000000000000000000000000000000000081526004016121a390613b85565b60405180910390fd5b505050565b6060600060016121c08461281a565b01905060008167ffffffffffffffff8111156121df576121de612ce0565b5b6040519080825280601f01601f1916602001820160405280156122115781602001600182028036833780820191505090505b509050600082602001820190505b600115612274578080600190039150507f3031323334353637383961626364656600000000000000000000000000000000600a86061a8153600a858161226857612267614049565b5b0494506000850361221f575b819350505050919050565b600181111561239f57600073ffffffffffffffffffffffffffffffffffffffff168473ffffffffffffffffffffffffffffffffffffffff16146123135780600360008673ffffffffffffffffffffffffffffffffffffffff1673ffffffffffffffffffffffffffffffffffffffff168152602001908152602001600020600082825461230b9190614078565b925050819055505b600073ffffffffffffffffffffffffffffffffffffffff168373ffffffffffffffffffffffffffffffffffffffff161461239e5780600360008573ffffffffffffffffffffffffffffffffffffffff1673ffffffffffffffffffffffffffffffffffffffff168152602001908152602001600020600082825461239691906138e3565b925050819055505b5b50505050565b600e80549050600f600083815260200190815260200160002081905550600e81908060018154018082558091505060019003906000526020600020016000909190919091505550565b600060016123fb84610ebd565b6124059190614078565b90506000600d60008481526020019081526020016000205490508181146124ea576000600c60008673ffffffffffffffffffffffffffffffffffffffff1673ffffffffffffffffffffffffffffffffffffffff168152602001908152602001600020600084815260200190815260200160002054905080600c60008773ffffffffffffffffffffffffffffffffffffffff1673ffffffffffffffffffffffffffffffffffffffff16815260200190815260200160002060008481526020019081526020016000208190555081600d600083815260200190815260200160002081905550505b600d600084815260200190815260200160002060009055600c60008573ffffffffffffffffffffffffffffffffffffffff1673ffffffffffffffffffffffffffffffffffffffff16815260200190815260200160002060008381526020019081526020016000206000905550505050565b600061256683610ebd565b905081600c60008573ffffffffffffffffffffffffffffffffffffffff1673ffffffffffffffffffffffffffffffffffffffff16815260200190815260200160002060008381526020019081526020016000208190555080600d600084815260200190815260200160002081905550505050565b6000808273ffffffffffffffffffffffffffffffffffffffff163b119050919050565b600073ffffffffffffffffffffffffffffffffffffffff168273ffffffffffffffffffffffffffffffffffffffff160361266c576040517f08c379a0000000000000000000000000000000000000000000000000000000008152600401612663906140f8565b60405180910390fd5b61267581611eb7565b156126b5576040517f08c379a00000000000000000000000000000000000000000000000000000000081526004016126ac90614164565b60405180910390fd5b6126c3600083836001611ef8565b6126cc81611eb7565b1561270c576040517f08c379a000000000000000000000000000000000000000000000000000000000815260040161270390614164565b60405180910390fd5b6001600360008473ffffffffffffffffffffffffffffffffffffffff1673ffffffffffffffffffffffffffffffffffffffff16815260200190815260200160002060008282540192505081905550816002600083815260200190815260200160002060006101000a81548173ffffffffffffffffffffffffffffffffffffffff021916908373ffffffffffffffffffffffffffffffffffffffff160217905550808273ffffffffffffffffffffffffffffffffffffffff16600073ffffffffffffffffffffffffffffffffffffffff167fddf252ad1be2c89b69c2b068fc378daa952ba7f163c4a11628f55a4df523b3ef60405160405180910390a4612816600083836001611fc9565b5050565b600080600090507a184f03e93ff9f4daa797ed6e38ed64bf6a1f0100000000000000008310612878577a184f03e93ff9f4daa797ed6e38ed64bf6a1f010000000000000000838161286e5761286d614049565b5b0492506040810190505b6d04ee2d6d415b85acef810000000083106128b5576d04ee2d6d415b85acef810000000083816128ab576128aa614049565b5b0492506020810190505b662386f26fc1000083106128e457662386f26fc1000083816128da576128d9614049565b5b0492506010810190505b6305f5e100831061290d576305f5e100838161290357612902614049565b5b0492506008810190505b612710831061293257612710838161292857612927614049565b5b0492506004810190505b60648310612955576064838161294b5761294a614049565b5b0492506002810190505b600a8310612964576001810190505b80915050919050565b60405180608001604052806000815260200160008152602001600073ffffffffffffffffffffffffffffffffffffffff1681526020016000151581525090565b6000604051905090565b600080fd5b600080fd5b60007fffffffff0000000000000000000000000000000000000000000000000000000082169050919050565b6129f6816129c1565b8114612a0157600080fd5b50565b600081359050612a13816129ed565b92915050565b600060208284031215612a2f57612a2e6129b7565b5b6000612a3d84828501612a04565b91505092915050565b60008115159050919050565b612a5b81612a46565b82525050565b6000602082019050612a766000830184612a52565b92915050565b600081519050919050565b600082825260208201905092915050565b60005b83811015612ab6578082015181840152602081019050612a9b565b60008484015250505050565b6000601f19601f8301169050919050565b6000612ade82612a7c565b612ae88185612a87565b9350612af8818560208601612a98565b612b0181612ac2565b840191505092915050565b60006020820190508181036000830152612b268184612ad3565b905092915050565b6000819050919050565b612b4181612b2e565b8114612b4c57600080fd5b50565b600081359050612b5e81612b38565b92915050565b600060208284031215612b7a57612b796129b7565b5b6000612b8884828501612b4f565b91505092915050565b600073ffffffffffffffffffffffffffffffffffffffff82169050919050565b6000612bbc82612b91565b9050919050565b612bcc81612bb1565b82525050565b6000602082019050612be76000830184612bc3565b92915050565b612bf681612bb1565b8114612c0157600080fd5b50565b600081359050612c1381612bed565b92915050565b60008060408385031215612c3057612c2f6129b7565b5b6000612c3e85828601612c04565b9250506020612c4f85828601612b4f565b9150509250929050565b612c6281612b2e565b82525050565b6000602082019050612c7d6000830184612c59565b92915050565b600080600060608486031215612c9c57612c9b6129b7565b5b6000612caa86828701612c04565b9350506020612cbb86828701612c04565b9250506040612ccc86828701612b4f565b9150509250925092565b600080fd5b600080fd5b7f4e487b7100000000000000000000000000000000000000000000000000000000600052604160045260246000fd5b612d1882612ac2565b810181811067ffffffffffffffff82111715612d3757612d36612ce0565b5b80604052505050565b6000612d4a6129ad565b9050612d568282612d0f565b919050565b600067ffffffffffffffff821115612d7657612d75612ce0565b5b612d7f82612ac2565b9050602081019050919050565b82818337600083830152505050565b6000612dae612da984612d5b565b612d40565b905082815260208101848484011115612dca57612dc9612cdb565b5b612dd5848285612d8c565b509392505050565b600082601f830112612df257612df1612cd6565b5b8135612e02848260208601612d9b565b91505092915050565b600060208284031215612e2157612e206129b7565b5b600082013567ffffffffffffffff811115612e3f57612e3e6129bc565b5b612e4b84828501612ddd565b91505092915050565b600081519050919050565b600082825260208201905092915050565b6000819050602082019050919050565b612e8981612b2e565b82525050565b612e9881612bb1565b82525050565b612ea781612a46565b82525050565b608082016000820151612ec36000850182612e80565b506020820151612ed66020850182612e80565b506040820151612ee96040850182612e8f565b506060820151612efc6060850182612e9e565b50505050565b6000612f0e8383612ead565b60808301905092915050565b6000602082019050919050565b6000612f3282612e54565b612f3c8185612e5f565b9350612f4783612e70565b8060005b83811015612f78578151612f5f8882612f02565b9750612f6a83612f1a565b925050600181019050612f4b565b5085935050505092915050565b60006020820190508181036000830152612f9f8184612f27565b905092915050565b608082016000820151612fbd6000850182612e80565b506020820151612fd06020850182612e80565b506040820151612fe36040850182612e8f565b506060820151612ff66060850182612e9e565b50505050565b60006080820190506130116000830184612fa7565b92915050565b60006020828403121561302d5761302c6129b7565b5b600061303b84828501612c04565b91505092915050565b61304d81612a46565b811461305857600080fd5b50565b60008135905061306a81613044565b92915050565b60008060408385031215613087576130866129b7565b5b600061309585828601612c04565b92505060206130a68582860161305b565b9150509250929050565b600067ffffffffffffffff8211156130cb576130ca612ce0565b5b6130d482612ac2565b9050602081019050919050565b60006130f46130ef846130b0565b612d40565b9050828152602081018484840111156131105761310f612cdb565b5b61311b848285612d8c565b509392505050565b600082601f83011261313857613137612cd6565b5b81356131488482602086016130e1565b91505092915050565b6000806000806080858703121561316b5761316a6129b7565b5b600061317987828801612c04565b945050602061318a87828801612c04565b935050604061319b87828801612b4f565b925050606085013567ffffffffffffffff8111156131bc576131bb6129bc565b5b6131c887828801613123565b91505092959194509250565b600080604083850312156131eb576131ea6129b7565b5b600083013567ffffffffffffffff811115613209576132086129bc565b5b61321585828601612ddd565b925050602061322685828601612b4f565b9150509250929050565b60008060408385031215613247576132466129b7565b5b600061325585828601612c04565b925050602061326685828601612c04565b9150509250929050565b7f4e487b7100000000000000000000000000000000000000000000000000000000600052602260045260246000fd5b600060028204905060018216806132b757607f821691505b6020821081036132ca576132c9613270565b5b50919050565b7f4552433732313a20617070726f76616c20746f2063757272656e74206f776e6560008201527f7200000000000000000000000000000000000000000000000000000000000000602082015250565b600061332c602183612a87565b9150613337826132d0565b604082019050919050565b6000602082019050818103600083015261335b8161331f565b9050919050565b7f4552433732313a20617070726f76652063616c6c6572206973206e6f7420746f60008201527f6b656e206f776e6572206f7220617070726f76656420666f7220616c6c000000602082015250565b60006133be603d83612a87565b91506133c982613362565b604082019050919050565b600060208201905081810360008301526133ed816133b1565b9050919050565b7f4552433732313a2063616c6c6572206973206e6f7420746f6b656e206f776e6560008201527f72206f7220617070726f76656400000000000000000000000000000000000000602082015250565b6000613450602d83612a87565b915061345b826133f4565b604082019050919050565b6000602082019050818103600083015261347f81613443565b9050919050565b7f496e646578206f7574206f6620626f756e647300000000000000000000000000600082015250565b60006134bc601383612a87565b91506134c782613486565b602082019050919050565b600060208201905081810360008301526134eb816134af565b9050919050565b600081905092915050565b600061350882612a7c565b61351281856134f2565b9350613522818560208601612a98565b80840191505092915050565b600061353a82846134fd565b915081905092915050565b7f4e487b7100000000000000000000000000000000000000000000000000000000600052603260045260246000fd5b7f4e487b7100000000000000000000000000000000000000000000000000000000600052601160045260246000fd5b60006135ae82612b2e565b91507fffffffffffffffffffffffffffffffffffffffffffffffffffffffffffffffff82036135e0576135df613574565b5b600182019050919050565b7f596f7520616c7265616479206f776e2074686973204e46540000000000000000600082015250565b6000613621601883612a87565b915061362c826135eb565b602082019050919050565b6000602082019050818103600083015261365081613614565b9050919050565b7f506c65617365207375626d6974207468652061736b696e672070726963650000600082015250565b600061368d601e83612a87565b915061369882613657565b602082019050919050565b600060208201905081810360008301526136bc81613680565b9050919050565b7f4552433732313a20696e76616c696420746f6b656e2049440000000000000000600082015250565b60006136f9601883612a87565b9150613704826136c3565b602082019050919050565b60006020820190508181036000830152613728816136ec565b9050919050565b7f4552433732313a2061646472657373207a65726f206973206e6f74206120766160008201527f6c6964206f776e65720000000000000000000000000000000000000000000000602082015250565b600061378b602983612a87565b91506137968261372f565b604082019050919050565b600060208201905081810360008301526137ba8161377e565b9050919050565b7f546f6b656e2055524920616c7265616479206578697374730000000000000000600082015250565b60006137f7601883612a87565b9150613802826137c1565b602082019050919050565b60006020820190508181036000830152613826816137ea565b9050919050565b7f5072696365206d75737420626520657175616c20746f206c697374696e67207060008201527f7269636500000000000000000000000000000000000000000000000000000000602082015250565b6000613889602483612a87565b91506138948261382d565b604082019050919050565b600060208201905081810360008301526138b88161387c565b9050919050565b60006138cb82856134fd565b91506138d782846134fd565b91508190509392505050565b60006138ee82612b2e565b91506138f983612b2e565b925082820190508082111561391157613910613574565b5b92915050565b7f4552433732313a207472616e736665722066726f6d20696e636f72726563742060008201527f6f776e6572000000000000000000000000000000000000000000000000000000602082015250565b6000613973602583612a87565b915061397e82613917565b604082019050919050565b600060208201905081810360008301526139a281613966565b9050919050565b7f4552433732313a207472616e7366657220746f20746865207a65726f2061646460008201527f7265737300000000000000000000000000000000000000000000000000000000602082015250565b6000613a05602483612a87565b9150613a10826139a9565b604082019050919050565b60006020820190508181036000830152613a34816139f8565b9050919050565b7f436f756e7465723a2064656372656d656e74206f766572666c6f770000000000600082015250565b6000613a71601b83612a87565b9150613a7c82613a3b565b602082019050919050565b60006020820190508181036000830152613aa081613a64565b9050919050565b7f4552433732313a20617070726f766520746f2063616c6c657200000000000000600082015250565b6000613add601983612a87565b9150613ae882613aa7565b602082019050919050565b60006020820190508181036000830152613b0c81613ad0565b9050919050565b7f4552433732313a207472616e7366657220746f206e6f6e20455243373231526560008201527f63656976657220696d706c656d656e7465720000000000000000000000000000602082015250565b6000613b6f603283612a87565b9150613b7a82613b13565b604082019050919050565b60006020820190508181036000830152613b9e81613b62565b9050919050565b7f45524337323155524953746f726167653a2055524920736574206f66206e6f6e60008201527f6578697374656e7420746f6b656e000000000000000000000000000000000000602082015250565b6000613c01602e83612a87565b9150613c0c82613ba5565b604082019050919050565b60006020820190508181036000830152613c3081613bf4565b9050919050565b60008190508160005260206000209050919050565b60006020601f8301049050919050565b600082821b905092915050565b600060088302613c997fffffffffffffffffffffffffffffffffffffffffffffffffffffffffffffffff82613c5c565b613ca38683613c5c565b95508019841693508086168417925050509392505050565b6000819050919050565b6000613ce0613cdb613cd684612b2e565b613cbb565b612b2e565b9050919050565b6000819050919050565b613cfa83613cc5565b613d0e613d0682613ce7565b848454613c69565b825550505050565b600090565b613d23613d16565b613d2e818484613cf1565b505050565b5b81811015613d5257613d47600082613d1b565b600181019050613d34565b5050565b601f821115613d9757613d6881613c37565b613d7184613c4c565b81016020851015613d80578190505b613d94613d8c85613c4c565b830182613d33565b50505b505050565b600082821c905092915050565b6000613dba60001984600802613d9c565b1980831691505092915050565b6000613dd38383613da9565b9150826002028217905092915050565b613dec82612a7c565b67ffffffffffffffff811115613e0557613e04612ce0565b5b613e0f825461329f565b613e1a828285613d56565b600060209050601f831160018114613e4d5760008415613e3b578287015190505b613e458582613dc7565b865550613ead565b601f198416613e5b86613c37565b60005b82811015613e8357848901518255600182019150602085019450602081019050613e5e565b86831015613ea05784890151613e9c601f891682613da9565b8355505b6001600288020188555050505b505050505050565b7f5072696365206d757374206265206174206c6561737420312077656900000000600082015250565b6000613eeb601c83612a87565b9150613ef682613eb5565b602082019050919050565b60006020820190508181036000830152613f1a81613ede565b9050919050565b6000608082019050613f366000830187612c59565b613f436020830186612c59565b613f506040830185612bc3565b613f5d6060830184612a52565b95945050505050565b600081519050919050565b600082825260208201905092915050565b6000613f8d82613f66565b613f978185613f71565b9350613fa7818560208601612a98565b613fb081612ac2565b840191505092915050565b6000608082019050613fd06000830187612bc3565b613fdd6020830186612bc3565b613fea6040830185612c59565b8181036060830152613ffc8184613f82565b905095945050505050565b600081519050614016816129ed565b92915050565b600060208284031215614032576140316129b7565b5b600061404084828501614007565b91505092915050565b7f4e487b7100000000000000000000000000000000000000000000000000000000600052601260045260246000fd5b600061408382612b2e565b915061408e83612b2e565b92508282039050818111156140a6576140a5613574565b5b92915050565b7f4552433732313a206d696e7420746f20746865207a65726f2061646472657373600082015250565b60006140e2602083612a87565b91506140ed826140ac565b602082019050919050565b60006020820190508181036000830152614111816140d5565b9050919050565b7f4552433732313a20746f6b656e20616c7265616479206d696e74656400000000600082015250565b600061414e601c83612a87565b915061415982614118565b602082019050919050565b6000602082019050818103600083015261417d81614141565b905091905056fea264697066735822122011135706e8921bff9d40bfc5a9799de10bec7286ea3e0b74a41a015977a4885664736f6c63430008120033",
  "immutableReferences": {},
  "source": "// SPDX-License-Identifier: MIT\npragma solidity 0.8.18;\n\nimport \"@openzeppelin/contracts/token/ERC721/extensions/ERC721URIStorage.sol\";\nimport \"@openzeppelin/contracts/utils/Counters.sol\";\n\ncontract NFTMarket is ERC721URIStorage {\n\n  using Counters for Counters.Counter;\n\n  Counters.Counter private _listedItems; //How many NFTs are listed\n  Counters.Counter private _tokenIds; //How many NFTs created in total\n\n    struct NFTItem {\n    uint tokenId;\n    uint price;\n    address creator;\n    bool isListed;\n  }\n\n  uint public listingPrice = 0.025 ether;\n\n\n  mapping(string => bool) private _usedTokenURIs;\n  mapping(uint => NFTItem) private _idToNFTItem;\n\n  mapping(address => mapping(uint => uint)) private _ownedTokens;\n  mapping(uint => uint) private _idToOwnedIndex;\n\n  // all tokenIds in the array\n  uint256[] private _allNFTs;\n  mapping(uint => uint) private _idToNFTIndex;\n\n  event NFTItemCreated (\n    uint tokenId,\n    uint price,\n    address creator,\n    bool isListed\n  );\n\n  constructor() ERC721(\"CreaturesNFT\", \"CNFT\") {}\n\n  function  mintToken(string memory tokenURI, uint price) public payable returns (uint) {\n\n    require(!tokenURIExists(tokenURI), \"Token URI already exists\");\n    require(msg.value == listingPrice, \"Price must be equal to listing price\");\n\n    _tokenIds.increment();\n    _listedItems.increment();\n\n    uint newTokenId = _tokenIds.current();\n\n    _safeMint(msg.sender, newTokenId);\n    _setTokenURI(newTokenId, tokenURI);\n    _createNFTItem(newTokenId, price);\n    _usedTokenURIs[tokenURI] = true;\n\n    return newTokenId;\n  }\n\n  function buyNFT(uint tokenId) public payable {\n    uint price = _idToNFTItem[tokenId].price;\n    address owner = ownerOf(tokenId);\n\n    require(msg.sender != owner, \"You already own this NFT\");\n    require(msg.value == price,  \"Please submit the asking price\");\n\n    _idToNFTItem[tokenId].isListed = false;\n    _listedItems.decrement();\n\n    _transfer(owner, msg.sender, tokenId);\n    payable(owner).transfer(msg.value);\n  }\n\n  function _createNFTItem(uint tokenId, uint price) private {\n    require(price > 0, \"Price must be at least 1 wei\");\n    _idToNFTItem[tokenId] = NFTItem(tokenId, price, msg.sender, true);\n\n    emit NFTItemCreated(tokenId, price, msg.sender, true);\n  }\n\n  function _beforeTokenTransfer(address from, address to, uint tokenId, uint batchSize) internal virtual override {\n    super._beforeTokenTransfer(from, to, tokenId, batchSize);\n    if(from == address(0)){\n      _addTokenToAllTokensEnumeration(tokenId);\n    }else if(from != to){\n      _removeTokenFromOwnerEnumeration(from, tokenId);\n    }\n\n    if(to != from){\n      _addTokenToOwnerEnumeration(to, tokenId);\n    }\n  }\n\n  function _addTokenToAllTokensEnumeration(uint tokenId) private {\n    _idToNFTIndex[tokenId] = _allNFTs.length;\n    _allNFTs.push(tokenId);\n  }\n\n    function _addTokenToOwnerEnumeration(address to, uint tokenId) private {\n    uint length = ERC721.balanceOf(to);\n    _ownedTokens[to][length] = tokenId;\n    _idToOwnedIndex[tokenId] = length;\n  }\n\n  function _removeTokenFromOwnerEnumeration(address from, uint tokenId) private{\n    uint lastTokenIndex = ERC721.balanceOf(from) -1;\n    uint tokenIndex = _idToOwnedIndex[tokenId];\n\n    if(tokenIndex != lastTokenIndex){\n      uint lastTokenId = _ownedTokens[from][lastTokenIndex];\n\n      _ownedTokens[from][tokenIndex] =lastTokenId;\n      _idToOwnedIndex[lastTokenId] = tokenIndex;\n    }\n\n    delete _idToOwnedIndex[tokenId];\n    delete _ownedTokens[from][lastTokenIndex];\n   }\n\n  function getOwnedNFTs() public view returns(NFTItem[] memory) {\n    uint ownedItemsCount = ERC721.balanceOf(msg.sender);\n    NFTItem[] memory items = new NFTItem[](ownedItemsCount);\n\n    for(uint i = 0; i < ownedItemsCount; i++){\n      uint tokenId = tokenOfOwnerByIndex(msg.sender, i);\n      NFTItem storage item = _idToNFTItem[tokenId];\n      items[i] = item;\n    }\n\n    return items;\n  }\n\n  function getAllNFTsOnSale() public view returns (NFTItem[] memory){\n    uint allItemsCounts = totalSupply();\n    uint currentIndex = 0;\n\n    NFTItem[] memory items = new NFTItem[](_listedItems.current());\n\n    for (uint i = 0; i < allItemsCounts; i++){\n      uint tokenId = tokenByIndex(i);\n      NFTItem storage item = _idToNFTItem[tokenId];\n\n      if(item.isListed == true){\n        items[currentIndex] = item;\n        currentIndex += 1;\n      }\n    }\n\n    return items;\n  }\n\n  function totalSupply() public view returns (uint){\n    return _allNFTs.length;\n  }\n\n  function tokenByIndex(uint index) public view returns (uint) {\n    require(index < totalSupply(), \"Index out of bounds\");\n    return _allNFTs[index];\n  }\n\n  function tokenOfOwnerByIndex(address owner, uint index) public view returns (uint) {\n    require(index < ERC721.balanceOf(owner), \"Index out of bounds\");\n    return _ownedTokens[owner][index];\n  }\n\n  function getNFTItem(uint tokenId) public view returns (NFTItem memory) {\n    return _idToNFTItem[tokenId];\n  }\n\n  function getListedItemsCount() public view returns (uint) {\n    return _listedItems.current();\n  }\n\n  function tokenURIExists(string memory tokenURI) public view returns (bool) {\n    return _usedTokenURIs[tokenURI] == true;\n  }\n}",
  "sourcePath": "/Users/michaelmburu/Documents/Visual Studio Code/React/NFT Marketplace/nft-marketplace/contracts/NFTMarket.sol",
  "compiler": {
    "name": "solc",
    "version": "0.8.18+commit.87f61d96.Emscripten.clang"
  },
  "schemaVersion": "3.4.11",
  "updatedAt": "2023-02-21T18:38:07.983Z",
  "devdoc": {
    "events": {
      "Approval(address,address,uint256)": {
        "details": "Emitted when `owner` enables `approved` to manage the `tokenId` token."
      },
      "ApprovalForAll(address,address,bool)": {
        "details": "Emitted when `owner` enables or disables (`approved`) `operator` to manage all of its assets."
      },
      "Transfer(address,address,uint256)": {
        "details": "Emitted when `tokenId` token is transferred from `from` to `to`."
      }
    },
    "kind": "dev",
    "methods": {
      "approve(address,uint256)": {
        "details": "See {IERC721-approve}."
      },
      "balanceOf(address)": {
        "details": "See {IERC721-balanceOf}."
      },
      "getApproved(uint256)": {
        "details": "See {IERC721-getApproved}."
      },
      "isApprovedForAll(address,address)": {
        "details": "See {IERC721-isApprovedForAll}."
      },
      "name()": {
        "details": "See {IERC721Metadata-name}."
      },
      "ownerOf(uint256)": {
        "details": "See {IERC721-ownerOf}."
      },
      "safeTransferFrom(address,address,uint256)": {
        "details": "See {IERC721-safeTransferFrom}."
      },
      "safeTransferFrom(address,address,uint256,bytes)": {
        "details": "See {IERC721-safeTransferFrom}."
      },
      "setApprovalForAll(address,bool)": {
        "details": "See {IERC721-setApprovalForAll}."
      },
      "supportsInterface(bytes4)": {
        "details": "See {IERC165-supportsInterface}."
      },
      "symbol()": {
        "details": "See {IERC721Metadata-symbol}."
      },
      "tokenURI(uint256)": {
        "details": "See {IERC721Metadata-tokenURI}."
      },
      "transferFrom(address,address,uint256)": {
        "details": "See {IERC721-transferFrom}."
      }
    },
    "version": 1
  },
  "userdoc": {
    "kind": "user",
    "methods": {},
    "version": 1
  }
}