{
  "contractName": "NFTMarket",
  "abi": [
    {
      "inputs": [],
      "stateMutability": "nonpayable",
      "type": "constructor"
    },
    {
      "anonymous": false,
      "inputs": [
        {
          "indexed": true,
          "internalType": "address",
          "name": "owner",
          "type": "address"
        },
        {
          "indexed": true,
          "internalType": "address",
          "name": "approved",
          "type": "address"
        },
        {
          "indexed": true,
          "internalType": "uint256",
          "name": "tokenId",
          "type": "uint256"
        }
      ],
      "name": "Approval",
      "type": "event"
    },
    {
      "anonymous": false,
      "inputs": [
        {
          "indexed": true,
          "internalType": "address",
          "name": "owner",
          "type": "address"
        },
        {
          "indexed": true,
          "internalType": "address",
          "name": "operator",
          "type": "address"
        },
        {
          "indexed": false,
          "internalType": "bool",
          "name": "approved",
          "type": "bool"
        }
      ],
      "name": "ApprovalForAll",
      "type": "event"
    },
    {
      "anonymous": false,
      "inputs": [
        {
          "indexed": false,
          "internalType": "uint256",
          "name": "tokenId",
          "type": "uint256"
        },
        {
          "indexed": false,
          "internalType": "uint256",
          "name": "price",
          "type": "uint256"
        },
        {
          "indexed": false,
          "internalType": "address",
          "name": "creator",
          "type": "address"
        },
        {
          "indexed": false,
          "internalType": "bool",
          "name": "isListed",
          "type": "bool"
        }
      ],
      "name": "NFTItemCreated",
      "type": "event"
    },
    {
      "anonymous": false,
      "inputs": [
        {
          "indexed": true,
          "internalType": "address",
          "name": "from",
          "type": "address"
        },
        {
          "indexed": true,
          "internalType": "address",
          "name": "to",
          "type": "address"
        },
        {
          "indexed": true,
          "internalType": "uint256",
          "name": "tokenId",
          "type": "uint256"
        }
      ],
      "name": "Transfer",
      "type": "event"
    },
    {
      "inputs": [
        {
          "internalType": "address",
          "name": "to",
          "type": "address"
        },
        {
          "internalType": "uint256",
          "name": "tokenId",
          "type": "uint256"
        }
      ],
      "name": "approve",
      "outputs": [],
      "stateMutability": "nonpayable",
      "type": "function"
    },
    {
      "inputs": [
        {
          "internalType": "address",
          "name": "owner",
          "type": "address"
        }
      ],
      "name": "balanceOf",
      "outputs": [
        {
          "internalType": "uint256",
          "name": "",
          "type": "uint256"
        }
      ],
      "stateMutability": "view",
      "type": "function"
    },
    {
      "inputs": [
        {
          "internalType": "uint256",
          "name": "tokenId",
          "type": "uint256"
        }
      ],
      "name": "getApproved",
      "outputs": [
        {
          "internalType": "address",
          "name": "",
          "type": "address"
        }
      ],
      "stateMutability": "view",
      "type": "function"
    },
    {
      "inputs": [
        {
          "internalType": "address",
          "name": "owner",
          "type": "address"
        },
        {
          "internalType": "address",
          "name": "operator",
          "type": "address"
        }
      ],
      "name": "isApprovedForAll",
      "outputs": [
        {
          "internalType": "bool",
          "name": "",
          "type": "bool"
        }
      ],
      "stateMutability": "view",
      "type": "function"
    },
    {
      "inputs": [],
      "name": "listingPrice",
      "outputs": [
        {
          "internalType": "uint256",
          "name": "",
          "type": "uint256"
        }
      ],
      "stateMutability": "view",
      "type": "function"
    },
    {
      "inputs": [],
      "name": "name",
      "outputs": [
        {
          "internalType": "string",
          "name": "",
          "type": "string"
        }
      ],
      "stateMutability": "view",
      "type": "function"
    },
    {
      "inputs": [
        {
          "internalType": "uint256",
          "name": "tokenId",
          "type": "uint256"
        }
      ],
      "name": "ownerOf",
      "outputs": [
        {
          "internalType": "address",
          "name": "",
          "type": "address"
        }
      ],
      "stateMutability": "view",
      "type": "function"
    },
    {
      "inputs": [
        {
          "internalType": "address",
          "name": "from",
          "type": "address"
        },
        {
          "internalType": "address",
          "name": "to",
          "type": "address"
        },
        {
          "internalType": "uint256",
          "name": "tokenId",
          "type": "uint256"
        }
      ],
      "name": "safeTransferFrom",
      "outputs": [],
      "stateMutability": "nonpayable",
      "type": "function"
    },
    {
      "inputs": [
        {
          "internalType": "address",
          "name": "from",
          "type": "address"
        },
        {
          "internalType": "address",
          "name": "to",
          "type": "address"
        },
        {
          "internalType": "uint256",
          "name": "tokenId",
          "type": "uint256"
        },
        {
          "internalType": "bytes",
          "name": "data",
          "type": "bytes"
        }
      ],
      "name": "safeTransferFrom",
      "outputs": [],
      "stateMutability": "nonpayable",
      "type": "function"
    },
    {
      "inputs": [
        {
          "internalType": "address",
          "name": "operator",
          "type": "address"
        },
        {
          "internalType": "bool",
          "name": "approved",
          "type": "bool"
        }
      ],
      "name": "setApprovalForAll",
      "outputs": [],
      "stateMutability": "nonpayable",
      "type": "function"
    },
    {
      "inputs": [
        {
          "internalType": "bytes4",
          "name": "interfaceId",
          "type": "bytes4"
        }
      ],
      "name": "supportsInterface",
      "outputs": [
        {
          "internalType": "bool",
          "name": "",
          "type": "bool"
        }
      ],
      "stateMutability": "view",
      "type": "function"
    },
    {
      "inputs": [],
      "name": "symbol",
      "outputs": [
        {
          "internalType": "string",
          "name": "",
          "type": "string"
        }
      ],
      "stateMutability": "view",
      "type": "function"
    },
    {
      "inputs": [
        {
          "internalType": "uint256",
          "name": "tokenId",
          "type": "uint256"
        }
      ],
      "name": "tokenURI",
      "outputs": [
        {
          "internalType": "string",
          "name": "",
          "type": "string"
        }
      ],
      "stateMutability": "view",
      "type": "function"
    },
    {
      "inputs": [
        {
          "internalType": "address",
          "name": "from",
          "type": "address"
        },
        {
          "internalType": "address",
          "name": "to",
          "type": "address"
        },
        {
          "internalType": "uint256",
          "name": "tokenId",
          "type": "uint256"
        }
      ],
      "name": "transferFrom",
      "outputs": [],
      "stateMutability": "nonpayable",
      "type": "function"
    },
    {
      "inputs": [
        {
          "internalType": "string",
          "name": "tokenURI",
          "type": "string"
        },
        {
          "internalType": "uint256",
          "name": "price",
          "type": "uint256"
        }
      ],
      "name": "mintToken",
      "outputs": [
        {
          "internalType": "uint256",
          "name": "",
          "type": "uint256"
        }
      ],
      "stateMutability": "payable",
      "type": "function"
    },
    {
      "inputs": [
        {
          "internalType": "uint256",
          "name": "tokenId",
          "type": "uint256"
        }
      ],
      "name": "getNFTItem",
      "outputs": [
        {
          "components": [
            {
              "internalType": "uint256",
              "name": "tokenId",
              "type": "uint256"
            },
            {
              "internalType": "uint256",
              "name": "price",
              "type": "uint256"
            },
            {
              "internalType": "address",
              "name": "creator",
              "type": "address"
            },
            {
              "internalType": "bool",
              "name": "isListed",
              "type": "bool"
            }
          ],
          "internalType": "struct NFTMarket.NFTItem",
          "name": "",
          "type": "tuple"
        }
      ],
      "stateMutability": "view",
      "type": "function"
    },
    {
      "inputs": [],
      "name": "getListedItemsCount",
      "outputs": [
        {
          "internalType": "uint256",
          "name": "",
          "type": "uint256"
        }
      ],
      "stateMutability": "view",
      "type": "function"
    },
    {
      "inputs": [
        {
          "internalType": "string",
          "name": "tokenURI",
          "type": "string"
        }
      ],
      "name": "tokenURIExists",
      "outputs": [
        {
          "internalType": "bool",
          "name": "",
          "type": "bool"
        }
      ],
      "stateMutability": "view",
      "type": "function"
    }
  ],
  "bytecode": "0x60806040526658d15e176280006009553480156200001c57600080fd5b506040518060400160405280600c81526020017f4372656174757265734e465400000000000000000000000000000000000000008152506040518060400160405280600481526020017f434e46540000000000000000000000000000000000000000000000000000000081525081600090816200009a91906200032f565b508060019081620000ac91906200032f565b50505062000416565b600081519050919050565b7f4e487b7100000000000000000000000000000000000000000000000000000000600052604160045260246000fd5b7f4e487b7100000000000000000000000000000000000000000000000000000000600052602260045260246000fd5b600060028204905060018216806200013757607f821691505b6020821081036200014d576200014c620000ef565b5b50919050565b60008190508160005260206000209050919050565b60006020601f8301049050919050565b600082821b905092915050565b600060088302620001b77fffffffffffffffffffffffffffffffffffffffffffffffffffffffffffffffff8262000178565b620001c3868362000178565b95508019841693508086168417925050509392505050565b6000819050919050565b6000819050919050565b6000620002106200020a6200020484620001db565b620001e5565b620001db565b9050919050565b6000819050919050565b6200022c83620001ef565b620002446200023b8262000217565b84845462000185565b825550505050565b600090565b6200025b6200024c565b6200026881848462000221565b505050565b5b8181101562000290576200028460008262000251565b6001810190506200026e565b5050565b601f821115620002df57620002a98162000153565b620002b48462000168565b81016020851015620002c4578190505b620002dc620002d38562000168565b8301826200026d565b50505b505050565b600082821c905092915050565b60006200030460001984600802620002e4565b1980831691505092915050565b60006200031f8383620002f1565b9150826002028217905092915050565b6200033a82620000b5565b67ffffffffffffffff811115620003565762000355620000c0565b5b6200036282546200011e565b6200036f82828562000294565b600060209050601f831160018114620003a7576000841562000392578287015190505b6200039e858262000311565b8655506200040e565b601f198416620003b78662000153565b60005b82811015620003e157848901518255600182019150602085019450602081019050620003ba565b86831015620004015784890151620003fd601f891682620002f1565b8355505b6001600288020188555050505b505050505050565b61342980620004266000396000f3fe6080604052600436106101095760003560e01c80636a3ceff911610095578063b88d4fde11610064578063b88d4fde146103a1578063c046372c146103ca578063c78f19f9146103fa578063c87b56dd14610425578063e985e9c51461046257610109565b80636a3ceff9146102d357806370a082311461031057806395d89b411461034d578063a22cb4651461037857610109565b806323b872dd116100dc57806323b872dd146101dc57806333353f481461020557806342842e0e1461023057806343d32ae7146102595780636352211e1461029657610109565b806301ffc9a71461010e57806306fdde031461014b578063081812fc14610176578063095ea7b3146101b3575b600080fd5b34801561011a57600080fd5b5061013560048036038101906101309190611fd5565b61049f565b604051610142919061201d565b60405180910390f35b34801561015757600080fd5b50610160610581565b60405161016d91906120c8565b60405180910390f35b34801561018257600080fd5b5061019d60048036038101906101989190612120565b610613565b6040516101aa919061218e565b60405180910390f35b3480156101bf57600080fd5b506101da60048036038101906101d591906121d5565b610659565b005b3480156101e857600080fd5b5061020360048036038101906101fe9190612215565b610770565b005b34801561021157600080fd5b5061021a6107d0565b6040516102279190612277565b60405180910390f35b34801561023c57600080fd5b5061025760048036038101906102529190612215565b6107e1565b005b34801561026557600080fd5b50610280600480360381019061027b91906123c7565b610801565b60405161028d919061201d565b60405180910390f35b3480156102a257600080fd5b506102bd60048036038101906102b89190612120565b61083d565b6040516102ca919061218e565b60405180910390f35b3480156102df57600080fd5b506102fa60048036038101906102f59190612120565b6108c3565b6040516103079190612492565b60405180910390f35b34801561031c57600080fd5b50610337600480360381019061033291906124ad565b610975565b6040516103449190612277565b60405180910390f35b34801561035957600080fd5b50610362610a2c565b60405161036f91906120c8565b60405180910390f35b34801561038457600080fd5b5061039f600480360381019061039a9190612506565b610abe565b005b3480156103ad57600080fd5b506103c860048036038101906103c391906125e7565b610ad4565b005b6103e460048036038101906103df919061266a565b610b36565b6040516103f19190612277565b60405180910390f35b34801561040657600080fd5b5061040f610c46565b60405161041c9190612277565b60405180910390f35b34801561043157600080fd5b5061044c60048036038101906104479190612120565b610c4c565b60405161045991906120c8565b60405180910390f35b34801561046e57600080fd5b50610489600480360381019061048491906126c6565b610d5e565b604051610496919061201d565b60405180910390f35b60007f80ac58cd000000000000000000000000000000000000000000000000000000007bffffffffffffffffffffffffffffffffffffffffffffffffffffffff1916827bffffffffffffffffffffffffffffffffffffffffffffffffffffffff1916148061056a57507f5b5e139f000000000000000000000000000000000000000000000000000000007bffffffffffffffffffffffffffffffffffffffffffffffffffffffff1916827bffffffffffffffffffffffffffffffffffffffffffffffffffffffff1916145b8061057a575061057982610df2565b5b9050919050565b60606000805461059090612735565b80601f01602080910402602001604051908101604052809291908181526020018280546105bc90612735565b80156106095780601f106105de57610100808354040283529160200191610609565b820191906000526020600020905b8154815290600101906020018083116105ec57829003601f168201915b5050505050905090565b600061061e82610e5c565b6004600083815260200190815260200160002060009054906101000a900473ffffffffffffffffffffffffffffffffffffffff169050919050565b60006106648261083d565b90508073ffffffffffffffffffffffffffffffffffffffff168373ffffffffffffffffffffffffffffffffffffffff16036106d4576040517f08c379a00000000000000000000000000000000000000000000000000000000081526004016106cb906127d8565b60405180910390fd5b8073ffffffffffffffffffffffffffffffffffffffff166106f3610ea7565b73ffffffffffffffffffffffffffffffffffffffff16148061072257506107218161071c610ea7565b610d5e565b5b610761576040517f08c379a00000000000000000000000000000000000000000000000000000000081526004016107589061286a565b60405180910390fd5b61076b8383610eaf565b505050565b61078161077b610ea7565b82610f68565b6107c0576040517f08c379a00000000000000000000000000000000000000000000000000000000081526004016107b7906128fc565b60405180910390fd5b6107cb838383610ffd565b505050565b60006107dc60076112f6565b905090565b6107fc83838360405180602001604052806000815250610ad4565b505050565b600060011515600a836040516108179190612958565b908152602001604051809103902060009054906101000a900460ff161515149050919050565b60008061084983611304565b9050600073ffffffffffffffffffffffffffffffffffffffff168173ffffffffffffffffffffffffffffffffffffffff16036108ba576040517f08c379a00000000000000000000000000000000000000000000000000000000081526004016108b1906129bb565b60405180910390fd5b80915050919050565b6108cb611f29565b600b600083815260200190815260200160002060405180608001604052908160008201548152602001600182015481526020016002820160009054906101000a900473ffffffffffffffffffffffffffffffffffffffff1673ffffffffffffffffffffffffffffffffffffffff1673ffffffffffffffffffffffffffffffffffffffff1681526020016002820160149054906101000a900460ff1615151515815250509050919050565b60008073ffffffffffffffffffffffffffffffffffffffff168273ffffffffffffffffffffffffffffffffffffffff16036109e5576040517f08c379a00000000000000000000000000000000000000000000000000000000081526004016109dc90612a4d565b60405180910390fd5b600360008373ffffffffffffffffffffffffffffffffffffffff1673ffffffffffffffffffffffffffffffffffffffff168152602001908152602001600020549050919050565b606060018054610a3b90612735565b80601f0160208091040260200160405190810160405280929190818152602001828054610a6790612735565b8015610ab45780601f10610a8957610100808354040283529160200191610ab4565b820191906000526020600020905b815481529060010190602001808311610a9757829003601f168201915b5050505050905090565b610ad0610ac9610ea7565b8383611341565b5050565b610ae5610adf610ea7565b83610f68565b610b24576040517f08c379a0000000000000000000000000000000000000000000000000000000008152600401610b1b906128fc565b60405180910390fd5b610b30848484846114ad565b50505050565b6000610b4183610801565b15610b81576040517f08c379a0000000000000000000000000000000000000000000000000000000008152600401610b7890612ab9565b60405180910390fd5b6009543414610bc5576040517f08c379a0000000000000000000000000000000000000000000000000000000008152600401610bbc90612b4b565b60405180910390fd5b610bcf6008611509565b610bd96007611509565b6000610be560086112f6565b9050610bf1338261151f565b610bfb818561153d565b610c0581846115aa565b6001600a85604051610c179190612958565b908152602001604051809103902060006101000a81548160ff0219169083151502179055508091505092915050565b60095481565b6060610c5782610e5c565b6000600660008481526020019081526020016000208054610c7790612735565b80601f0160208091040260200160405190810160405280929190818152602001828054610ca390612735565b8015610cf05780601f10610cc557610100808354040283529160200191610cf0565b820191906000526020600020905b815481529060010190602001808311610cd357829003601f168201915b505050505090506000610d016116fa565b90506000815103610d16578192505050610d59565b600082511115610d4b578082604051602001610d33929190612b6b565b60405160208183030381529060405292505050610d59565b610d5484611711565b925050505b919050565b6000600560008473ffffffffffffffffffffffffffffffffffffffff1673ffffffffffffffffffffffffffffffffffffffff16815260200190815260200160002060008373ffffffffffffffffffffffffffffffffffffffff1673ffffffffffffffffffffffffffffffffffffffff16815260200190815260200160002060009054906101000a900460ff16905092915050565b60007f01ffc9a7000000000000000000000000000000000000000000000000000000007bffffffffffffffffffffffffffffffffffffffffffffffffffffffff1916827bffffffffffffffffffffffffffffffffffffffffffffffffffffffff1916149050919050565b610e6581611779565b610ea4576040517f08c379a0000000000000000000000000000000000000000000000000000000008152600401610e9b906129bb565b60405180910390fd5b50565b600033905090565b816004600083815260200190815260200160002060006101000a81548173ffffffffffffffffffffffffffffffffffffffff021916908373ffffffffffffffffffffffffffffffffffffffff160217905550808273ffffffffffffffffffffffffffffffffffffffff16610f228361083d565b73ffffffffffffffffffffffffffffffffffffffff167f8c5be1e5ebec7d5bd14f71427d1e84f3dd0314c0f7b2291e5b200ac8c7c3b92560405160405180910390a45050565b600080610f748361083d565b90508073ffffffffffffffffffffffffffffffffffffffff168473ffffffffffffffffffffffffffffffffffffffff161480610fb65750610fb58185610d5e565b5b80610ff457508373ffffffffffffffffffffffffffffffffffffffff16610fdc84610613565b73ffffffffffffffffffffffffffffffffffffffff16145b91505092915050565b8273ffffffffffffffffffffffffffffffffffffffff1661101d8261083d565b73ffffffffffffffffffffffffffffffffffffffff1614611073576040517f08c379a000000000000000000000000000000000000000000000000000000000815260040161106a90612c01565b60405180910390fd5b600073ffffffffffffffffffffffffffffffffffffffff168273ffffffffffffffffffffffffffffffffffffffff16036110e2576040517f08c379a00000000000000000000000000000000000000000000000000000000081526004016110d990612c93565b60405180910390fd5b6110ef83838360016117ba565b8273ffffffffffffffffffffffffffffffffffffffff1661110f8261083d565b73ffffffffffffffffffffffffffffffffffffffff1614611165576040517f08c379a000000000000000000000000000000000000000000000000000000000815260040161115c90612c01565b60405180910390fd5b6004600082815260200190815260200160002060006101000a81549073ffffffffffffffffffffffffffffffffffffffff02191690556001600360008573ffffffffffffffffffffffffffffffffffffffff1673ffffffffffffffffffffffffffffffffffffffff168152602001908152602001600020600082825403925050819055506001600360008473ffffffffffffffffffffffffffffffffffffffff1673ffffffffffffffffffffffffffffffffffffffff16815260200190815260200160002060008282540192505081905550816002600083815260200190815260200160002060006101000a81548173ffffffffffffffffffffffffffffffffffffffff021916908373ffffffffffffffffffffffffffffffffffffffff160217905550808273ffffffffffffffffffffffffffffffffffffffff168473ffffffffffffffffffffffffffffffffffffffff167fddf252ad1be2c89b69c2b068fc378daa952ba7f163c4a11628f55a4df523b3ef60405160405180910390a46112f183838360016118e0565b505050565b600081600001549050919050565b60006002600083815260200190815260200160002060009054906101000a900473ffffffffffffffffffffffffffffffffffffffff169050919050565b8173ffffffffffffffffffffffffffffffffffffffff168373ffffffffffffffffffffffffffffffffffffffff16036113af576040517f08c379a00000000000000000000000000000000000000000000000000000000081526004016113a690612cff565b60405180910390fd5b80600560008573ffffffffffffffffffffffffffffffffffffffff1673ffffffffffffffffffffffffffffffffffffffff16815260200190815260200160002060008473ffffffffffffffffffffffffffffffffffffffff1673ffffffffffffffffffffffffffffffffffffffff16815260200190815260200160002060006101000a81548160ff0219169083151502179055508173ffffffffffffffffffffffffffffffffffffffff168373ffffffffffffffffffffffffffffffffffffffff167f17307eab39ab6107e8899845ad3d59bd9653f200f220920489ca2b5937696c31836040516114a0919061201d565b60405180910390a3505050565b6114b8848484610ffd565b6114c4848484846118e6565b611503576040517f08c379a00000000000000000000000000000000000000000000000000000000081526004016114fa90612d91565b60405180910390fd5b50505050565b6001816000016000828254019250508190555050565b611539828260405180602001604052806000815250611a6d565b5050565b61154682611779565b611585576040517f08c379a000000000000000000000000000000000000000000000000000000000815260040161157c90612e23565b60405180910390fd5b806006600084815260200190815260200160002090816115a59190612fef565b505050565b600081116115ed576040517f08c379a00000000000000000000000000000000000000000000000000000000081526004016115e49061310d565b60405180910390fd5b60405180608001604052808381526020018281526020013373ffffffffffffffffffffffffffffffffffffffff16815260200160011515815250600b6000848152602001908152602001600020600082015181600001556020820151816001015560408201518160020160006101000a81548173ffffffffffffffffffffffffffffffffffffffff021916908373ffffffffffffffffffffffffffffffffffffffff16021790555060608201518160020160146101000a81548160ff0219169083151502179055509050507f43f35c7892cef3db6314a5b129e161ca0731bb9e4a5d4f7244b605bb7b65b11582823360016040516116ee949392919061312d565b60405180910390a15050565b606060405180602001604052806000815250905090565b606061171c82610e5c565b60006117266116fa565b905060008151116117465760405180602001604052806000815250611771565b8061175084611ac8565b604051602001611761929190612b6b565b6040516020818303038152906040525b915050919050565b60008073ffffffffffffffffffffffffffffffffffffffff1661179b83611304565b73ffffffffffffffffffffffffffffffffffffffff1614159050919050565b60018111156118da57600073ffffffffffffffffffffffffffffffffffffffff168473ffffffffffffffffffffffffffffffffffffffff161461184e5780600360008673ffffffffffffffffffffffffffffffffffffffff1673ffffffffffffffffffffffffffffffffffffffff168152602001908152602001600020600082825461184691906131a1565b925050819055505b600073ffffffffffffffffffffffffffffffffffffffff168373ffffffffffffffffffffffffffffffffffffffff16146118d95780600360008573ffffffffffffffffffffffffffffffffffffffff1673ffffffffffffffffffffffffffffffffffffffff16815260200190815260200160002060008282546118d191906131d5565b925050819055505b5b50505050565b50505050565b60006119078473ffffffffffffffffffffffffffffffffffffffff16611b96565b15611a60578373ffffffffffffffffffffffffffffffffffffffff1663150b7a02611930610ea7565b8786866040518563ffffffff1660e01b8152600401611952949392919061325e565b6020604051808303816000875af192505050801561198e57506040513d601f19601f8201168201806040525081019061198b91906132bf565b60015b611a10573d80600081146119be576040519150601f19603f3d011682016040523d82523d6000602084013e6119c3565b606091505b506000815103611a08576040517f08c379a00000000000000000000000000000000000000000000000000000000081526004016119ff90612d91565b60405180910390fd5b805181602001fd5b63150b7a0260e01b7bffffffffffffffffffffffffffffffffffffffffffffffffffffffff1916817bffffffffffffffffffffffffffffffffffffffffffffffffffffffff191614915050611a65565b600190505b949350505050565b611a778383611bb9565b611a8460008484846118e6565b611ac3576040517f08c379a0000000000000000000000000000000000000000000000000000000008152600401611aba90612d91565b60405180910390fd5b505050565b606060006001611ad784611dd6565b01905060008167ffffffffffffffff811115611af657611af561229c565b5b6040519080825280601f01601f191660200182016040528015611b285781602001600182028036833780820191505090505b509050600082602001820190505b600115611b8b578080600190039150507f3031323334353637383961626364656600000000000000000000000000000000600a86061a8153600a8581611b7f57611b7e6132ec565b5b04945060008503611b36575b819350505050919050565b6000808273ffffffffffffffffffffffffffffffffffffffff163b119050919050565b600073ffffffffffffffffffffffffffffffffffffffff168273ffffffffffffffffffffffffffffffffffffffff1603611c28576040517f08c379a0000000000000000000000000000000000000000000000000000000008152600401611c1f90613367565b60405180910390fd5b611c3181611779565b15611c71576040517f08c379a0000000000000000000000000000000000000000000000000000000008152600401611c68906133d3565b60405180910390fd5b611c7f6000838360016117ba565b611c8881611779565b15611cc8576040517f08c379a0000000000000000000000000000000000000000000000000000000008152600401611cbf906133d3565b60405180910390fd5b6001600360008473ffffffffffffffffffffffffffffffffffffffff1673ffffffffffffffffffffffffffffffffffffffff16815260200190815260200160002060008282540192505081905550816002600083815260200190815260200160002060006101000a81548173ffffffffffffffffffffffffffffffffffffffff021916908373ffffffffffffffffffffffffffffffffffffffff160217905550808273ffffffffffffffffffffffffffffffffffffffff16600073ffffffffffffffffffffffffffffffffffffffff167fddf252ad1be2c89b69c2b068fc378daa952ba7f163c4a11628f55a4df523b3ef60405160405180910390a4611dd26000838360016118e0565b5050565b600080600090507a184f03e93ff9f4daa797ed6e38ed64bf6a1f0100000000000000008310611e34577a184f03e93ff9f4daa797ed6e38ed64bf6a1f0100000000000000008381611e2a57611e296132ec565b5b0492506040810190505b6d04ee2d6d415b85acef81000000008310611e71576d04ee2d6d415b85acef81000000008381611e6757611e666132ec565b5b0492506020810190505b662386f26fc100008310611ea057662386f26fc100008381611e9657611e956132ec565b5b0492506010810190505b6305f5e1008310611ec9576305f5e1008381611ebf57611ebe6132ec565b5b0492506008810190505b6127108310611eee576127108381611ee457611ee36132ec565b5b0492506004810190505b60648310611f115760648381611f0757611f066132ec565b5b0492506002810190505b600a8310611f20576001810190505b80915050919050565b60405180608001604052806000815260200160008152602001600073ffffffffffffffffffffffffffffffffffffffff1681526020016000151581525090565b6000604051905090565b600080fd5b600080fd5b60007fffffffff0000000000000000000000000000000000000000000000000000000082169050919050565b611fb281611f7d565b8114611fbd57600080fd5b50565b600081359050611fcf81611fa9565b92915050565b600060208284031215611feb57611fea611f73565b5b6000611ff984828501611fc0565b91505092915050565b60008115159050919050565b61201781612002565b82525050565b6000602082019050612032600083018461200e565b92915050565b600081519050919050565b600082825260208201905092915050565b60005b83811015612072578082015181840152602081019050612057565b60008484015250505050565b6000601f19601f8301169050919050565b600061209a82612038565b6120a48185612043565b93506120b4818560208601612054565b6120bd8161207e565b840191505092915050565b600060208201905081810360008301526120e2818461208f565b905092915050565b6000819050919050565b6120fd816120ea565b811461210857600080fd5b50565b60008135905061211a816120f4565b92915050565b60006020828403121561213657612135611f73565b5b60006121448482850161210b565b91505092915050565b600073ffffffffffffffffffffffffffffffffffffffff82169050919050565b60006121788261214d565b9050919050565b6121888161216d565b82525050565b60006020820190506121a3600083018461217f565b92915050565b6121b28161216d565b81146121bd57600080fd5b50565b6000813590506121cf816121a9565b92915050565b600080604083850312156121ec576121eb611f73565b5b60006121fa858286016121c0565b925050602061220b8582860161210b565b9150509250929050565b60008060006060848603121561222e5761222d611f73565b5b600061223c868287016121c0565b935050602061224d868287016121c0565b925050604061225e8682870161210b565b9150509250925092565b612271816120ea565b82525050565b600060208201905061228c6000830184612268565b92915050565b600080fd5b600080fd5b7f4e487b7100000000000000000000000000000000000000000000000000000000600052604160045260246000fd5b6122d48261207e565b810181811067ffffffffffffffff821117156122f3576122f261229c565b5b80604052505050565b6000612306611f69565b905061231282826122cb565b919050565b600067ffffffffffffffff8211156123325761233161229c565b5b61233b8261207e565b9050602081019050919050565b82818337600083830152505050565b600061236a61236584612317565b6122fc565b90508281526020810184848401111561238657612385612297565b5b612391848285612348565b509392505050565b600082601f8301126123ae576123ad612292565b5b81356123be848260208601612357565b91505092915050565b6000602082840312156123dd576123dc611f73565b5b600082013567ffffffffffffffff8111156123fb576123fa611f78565b5b61240784828501612399565b91505092915050565b612419816120ea565b82525050565b6124288161216d565b82525050565b61243781612002565b82525050565b6080820160008201516124536000850182612410565b5060208201516124666020850182612410565b506040820151612479604085018261241f565b50606082015161248c606085018261242e565b50505050565b60006080820190506124a7600083018461243d565b92915050565b6000602082840312156124c3576124c2611f73565b5b60006124d1848285016121c0565b91505092915050565b6124e381612002565b81146124ee57600080fd5b50565b600081359050612500816124da565b92915050565b6000806040838503121561251d5761251c611f73565b5b600061252b858286016121c0565b925050602061253c858286016124f1565b9150509250929050565b600067ffffffffffffffff8211156125615761256061229c565b5b61256a8261207e565b9050602081019050919050565b600061258a61258584612546565b6122fc565b9050828152602081018484840111156125a6576125a5612297565b5b6125b1848285612348565b509392505050565b600082601f8301126125ce576125cd612292565b5b81356125de848260208601612577565b91505092915050565b6000806000806080858703121561260157612600611f73565b5b600061260f878288016121c0565b9450506020612620878288016121c0565b93505060406126318782880161210b565b925050606085013567ffffffffffffffff81111561265257612651611f78565b5b61265e878288016125b9565b91505092959194509250565b6000806040838503121561268157612680611f73565b5b600083013567ffffffffffffffff81111561269f5761269e611f78565b5b6126ab85828601612399565b92505060206126bc8582860161210b565b9150509250929050565b600080604083850312156126dd576126dc611f73565b5b60006126eb858286016121c0565b92505060206126fc858286016121c0565b9150509250929050565b7f4e487b7100000000000000000000000000000000000000000000000000000000600052602260045260246000fd5b6000600282049050600182168061274d57607f821691505b6020821081036127605761275f612706565b5b50919050565b7f4552433732313a20617070726f76616c20746f2063757272656e74206f776e6560008201527f7200000000000000000000000000000000000000000000000000000000000000602082015250565b60006127c2602183612043565b91506127cd82612766565b604082019050919050565b600060208201905081810360008301526127f1816127b5565b9050919050565b7f4552433732313a20617070726f76652063616c6c6572206973206e6f7420746f60008201527f6b656e206f776e6572206f7220617070726f76656420666f7220616c6c000000602082015250565b6000612854603d83612043565b915061285f826127f8565b604082019050919050565b6000602082019050818103600083015261288381612847565b9050919050565b7f4552433732313a2063616c6c6572206973206e6f7420746f6b656e206f776e6560008201527f72206f7220617070726f76656400000000000000000000000000000000000000602082015250565b60006128e6602d83612043565b91506128f18261288a565b604082019050919050565b60006020820190508181036000830152612915816128d9565b9050919050565b600081905092915050565b600061293282612038565b61293c818561291c565b935061294c818560208601612054565b80840191505092915050565b60006129648284612927565b915081905092915050565b7f4552433732313a20696e76616c696420746f6b656e2049440000000000000000600082015250565b60006129a5601883612043565b91506129b08261296f565b602082019050919050565b600060208201905081810360008301526129d481612998565b9050919050565b7f4552433732313a2061646472657373207a65726f206973206e6f74206120766160008201527f6c6964206f776e65720000000000000000000000000000000000000000000000602082015250565b6000612a37602983612043565b9150612a42826129db565b604082019050919050565b60006020820190508181036000830152612a6681612a2a565b9050919050565b7f546f6b656e2055524920616c7265616479206578697374730000000000000000600082015250565b6000612aa3601883612043565b9150612aae82612a6d565b602082019050919050565b60006020820190508181036000830152612ad281612a96565b9050919050565b7f5072696365206d75737420626520657175616c20746f206c697374696e67207060008201527f7269636500000000000000000000000000000000000000000000000000000000602082015250565b6000612b35602483612043565b9150612b4082612ad9565b604082019050919050565b60006020820190508181036000830152612b6481612b28565b9050919050565b6000612b778285612927565b9150612b838284612927565b91508190509392505050565b7f4552433732313a207472616e736665722066726f6d20696e636f72726563742060008201527f6f776e6572000000000000000000000000000000000000000000000000000000602082015250565b6000612beb602583612043565b9150612bf682612b8f565b604082019050919050565b60006020820190508181036000830152612c1a81612bde565b9050919050565b7f4552433732313a207472616e7366657220746f20746865207a65726f2061646460008201527f7265737300000000000000000000000000000000000000000000000000000000602082015250565b6000612c7d602483612043565b9150612c8882612c21565b604082019050919050565b60006020820190508181036000830152612cac81612c70565b9050919050565b7f4552433732313a20617070726f766520746f2063616c6c657200000000000000600082015250565b6000612ce9601983612043565b9150612cf482612cb3565b602082019050919050565b60006020820190508181036000830152612d1881612cdc565b9050919050565b7f4552433732313a207472616e7366657220746f206e6f6e20455243373231526560008201527f63656976657220696d706c656d656e7465720000000000000000000000000000602082015250565b6000612d7b603283612043565b9150612d8682612d1f565b604082019050919050565b60006020820190508181036000830152612daa81612d6e565b9050919050565b7f45524337323155524953746f726167653a2055524920736574206f66206e6f6e60008201527f6578697374656e7420746f6b656e000000000000000000000000000000000000602082015250565b6000612e0d602e83612043565b9150612e1882612db1565b604082019050919050565b60006020820190508181036000830152612e3c81612e00565b9050919050565b60008190508160005260206000209050919050565b60006020601f8301049050919050565b600082821b905092915050565b600060088302612ea57fffffffffffffffffffffffffffffffffffffffffffffffffffffffffffffffff82612e68565b612eaf8683612e68565b95508019841693508086168417925050509392505050565b6000819050919050565b6000612eec612ee7612ee2846120ea565b612ec7565b6120ea565b9050919050565b6000819050919050565b612f0683612ed1565b612f1a612f1282612ef3565b848454612e75565b825550505050565b600090565b612f2f612f22565b612f3a818484612efd565b505050565b5b81811015612f5e57612f53600082612f27565b600181019050612f40565b5050565b601f821115612fa357612f7481612e43565b612f7d84612e58565b81016020851015612f8c578190505b612fa0612f9885612e58565b830182612f3f565b50505b505050565b600082821c905092915050565b6000612fc660001984600802612fa8565b1980831691505092915050565b6000612fdf8383612fb5565b9150826002028217905092915050565b612ff882612038565b67ffffffffffffffff8111156130115761301061229c565b5b61301b8254612735565b613026828285612f62565b600060209050601f8311600181146130595760008415613047578287015190505b6130518582612fd3565b8655506130b9565b601f19841661306786612e43565b60005b8281101561308f5784890151825560018201915060208501945060208101905061306a565b868310156130ac57848901516130a8601f891682612fb5565b8355505b6001600288020188555050505b505050505050565b7f5072696365206d757374206265206174206c6561737420312077656900000000600082015250565b60006130f7601c83612043565b9150613102826130c1565b602082019050919050565b60006020820190508181036000830152613126816130ea565b9050919050565b60006080820190506131426000830187612268565b61314f6020830186612268565b61315c604083018561217f565b613169606083018461200e565b95945050505050565b7f4e487b7100000000000000000000000000000000000000000000000000000000600052601160045260246000fd5b60006131ac826120ea565b91506131b7836120ea565b92508282039050818111156131cf576131ce613172565b5b92915050565b60006131e0826120ea565b91506131eb836120ea565b925082820190508082111561320357613202613172565b5b92915050565b600081519050919050565b600082825260208201905092915050565b600061323082613209565b61323a8185613214565b935061324a818560208601612054565b6132538161207e565b840191505092915050565b6000608082019050613273600083018761217f565b613280602083018661217f565b61328d6040830185612268565b818103606083015261329f8184613225565b905095945050505050565b6000815190506132b981611fa9565b92915050565b6000602082840312156132d5576132d4611f73565b5b60006132e3848285016132aa565b91505092915050565b7f4e487b7100000000000000000000000000000000000000000000000000000000600052601260045260246000fd5b7f4552433732313a206d696e7420746f20746865207a65726f2061646472657373600082015250565b6000613351602083612043565b915061335c8261331b565b602082019050919050565b6000602082019050818103600083015261338081613344565b9050919050565b7f4552433732313a20746f6b656e20616c7265616479206d696e74656400000000600082015250565b60006133bd601c83612043565b91506133c882613387565b602082019050919050565b600060208201905081810360008301526133ec816133b0565b905091905056fea2646970667358221220a7a1e8eb19109c8a201da85e68c50bfb2109270f35459ec7f5d3dfdc0215086164736f6c63430008120033",
  "immutableReferences": {},
  "source": "// SPDX-License-Identifier: MIT\npragma solidity 0.8.18;\n\nimport \"@openzeppelin/contracts/token/ERC721/extensions/ERC721URIStorage.sol\";\nimport \"@openzeppelin/contracts/utils/Counters.sol\";\n\ncontract NFTMarket is ERC721URIStorage {\n\n  using Counters for Counters.Counter;\n\n  Counters.Counter private _listedItems; //How many NFTs are listed\n  Counters.Counter private _tokenIds; //How many NFTs created in total\n\n    struct NFTItem {\n    uint tokenId;\n    uint price;\n    address creator;\n    bool isListed;\n  }\n\n  uint public listingPrice = 0.025 ether;\n\n  mapping(string => bool) private _usedTokenURIs;\n  mapping(uint => NFTItem) private _idToNFTItem;\n\n  event NFTItemCreated (\n    uint tokenId,\n    uint price,\n    address creator,\n    bool isListed\n  );\n\n  constructor() ERC721(\"CreaturesNFT\", \"CNFT\") {}\n\n  function  mintToken(string memory tokenURI, uint price) public payable returns (uint) {\n\n    require(!tokenURIExists(tokenURI), \"Token URI already exists\");\n    require(msg.value == listingPrice, \"Price must be equal to listing price\");\n\n    _tokenIds.increment();\n    _listedItems.increment();\n\n    uint newTokenId = _tokenIds.current();\n\n    _safeMint(msg.sender, newTokenId);\n    _setTokenURI(newTokenId, tokenURI);\n    _createNFTItem(newTokenId, price);\n    _usedTokenURIs[tokenURI] = true;\n\n    return newTokenId;\n  }\n\n  function _createNFTItem(uint tokenId, uint price) private {\n    require(price > 0, \"Price must be at least 1 wei\");\n    _idToNFTItem[tokenId] = NFTItem(tokenId, price, msg.sender, true);\n\n    emit NFTItemCreated(tokenId, price, msg.sender, true);\n  }\n\n  function getNFTItem(uint tokenId) public view returns (NFTItem memory) {\n    return _idToNFTItem[tokenId];\n  }\n\n  function getListedItemsCount() public view returns (uint) {\n    return _listedItems.current();\n  }\n\n  function tokenURIExists(string memory tokenURI) public view returns (bool) {\n    return _usedTokenURIs[tokenURI] == true;\n  }\n}",
  "sourcePath": "/Users/michaelmburu/Documents/Visual Studio Code/React/NFT Marketplace/nft-marketplace/contracts/NFTMarket.sol",
  "compiler": {
    "name": "solc",
    "version": "0.8.18+commit.87f61d96.Emscripten.clang"
  },
  "schemaVersion": "3.4.11",
  "updatedAt": "2023-02-20T18:34:40.478Z",
  "devdoc": {
    "events": {
      "Approval(address,address,uint256)": {
        "details": "Emitted when `owner` enables `approved` to manage the `tokenId` token."
      },
      "ApprovalForAll(address,address,bool)": {
        "details": "Emitted when `owner` enables or disables (`approved`) `operator` to manage all of its assets."
      },
      "Transfer(address,address,uint256)": {
        "details": "Emitted when `tokenId` token is transferred from `from` to `to`."
      }
    },
    "kind": "dev",
    "methods": {
      "approve(address,uint256)": {
        "details": "See {IERC721-approve}."
      },
      "balanceOf(address)": {
        "details": "See {IERC721-balanceOf}."
      },
      "getApproved(uint256)": {
        "details": "See {IERC721-getApproved}."
      },
      "isApprovedForAll(address,address)": {
        "details": "See {IERC721-isApprovedForAll}."
      },
      "name()": {
        "details": "See {IERC721Metadata-name}."
      },
      "ownerOf(uint256)": {
        "details": "See {IERC721-ownerOf}."
      },
      "safeTransferFrom(address,address,uint256)": {
        "details": "See {IERC721-safeTransferFrom}."
      },
      "safeTransferFrom(address,address,uint256,bytes)": {
        "details": "See {IERC721-safeTransferFrom}."
      },
      "setApprovalForAll(address,bool)": {
        "details": "See {IERC721-setApprovalForAll}."
      },
      "supportsInterface(bytes4)": {
        "details": "See {IERC165-supportsInterface}."
      },
      "symbol()": {
        "details": "See {IERC721Metadata-symbol}."
      },
      "tokenURI(uint256)": {
        "details": "See {IERC721Metadata-tokenURI}."
      },
      "transferFrom(address,address,uint256)": {
        "details": "See {IERC721-transferFrom}."
      }
    },
    "version": 1
  },
  "userdoc": {
    "kind": "user",
    "methods": {},
    "version": 1
  }
}